{
  "_format": "hh-sol-artifact-1",
  "contractName": "mockFaucetLINK",
  "sourceName": "contracts/MockFaucet.sol",
  "abi": [
    {
      "inputs": [
        {
          "internalType": "address",
          "name": "_token",
          "type": "address"
        }
      ],
      "stateMutability": "nonpayable",
      "type": "constructor"
    },
    {
      "anonymous": false,
      "inputs": [],
      "name": "faucetWithdraw",
      "type": "event"
    },
    {
      "inputs": [],
      "name": "relayAddress",
      "outputs": [
        {
          "internalType": "address",
          "name": "",
          "type": "address"
        }
      ],
      "stateMutability": "view",
      "type": "function"
    },
    {
      "inputs": [
        {
          "internalType": "address",
          "name": "",
          "type": "address"
        }
      ],
      "name": "userPreviousWithdrawTime",
      "outputs": [
        {
          "internalType": "uint256",
          "name": "",
          "type": "uint256"
        }
      ],
      "stateMutability": "view",
      "type": "function"
    },
    {
      "inputs": [],
      "name": "withdrawDirect",
      "outputs": [],
      "stateMutability": "nonpayable",
      "type": "function"
    },
    {
      "inputs": [
        {
          "internalType": "address",
          "name": "relayCaller",
          "type": "address"
        }
      ],
      "name": "withdrawRelay",
      "outputs": [],
      "stateMutability": "nonpayable",
      "type": "function"
    }
  ],
  "bytecode": "0x60a06040523480156200001157600080fd5b506040516200155738038062001557833981810160405281019062000037919062000223565b6200006b7fd17d81f0bfe38ef598c5b5326686b3b841bb8fb64a9ef291aef1633d555d1c1d60001b620001b660201b60201c565b6200009f7f09b4cc3fe9e01108b92bbe7cfc4d59c5de0accd1c659474ee733dd7005e3636d60001b620001b660201b60201c565b620000d37f5cfd35715a56e5073f91fee7a1ddbdd786c98cc90b6b0dafa74d65dc3ba5e3f060001b620001b660201b60201c565b3373ffffffffffffffffffffffffffffffffffffffff1660808173ffffffffffffffffffffffffffffffffffffffff16815250506200013b7fcfcd532b76d6d992505e921f1720d38a016a323952e4a5214ef34fbb3933f33360001b620001b660201b60201c565b6200016f7f1354b2a03885f407a17ad563e60adab1d79eaca89a9669a724527f14044b88ee60001b620001b660201b60201c565b806000806101000a81548173ffffffffffffffffffffffffffffffffffffffff021916908373ffffffffffffffffffffffffffffffffffffffff1602179055505062000255565b50565b600080fd5b600073ffffffffffffffffffffffffffffffffffffffff82169050919050565b6000620001eb82620001be565b9050919050565b620001fd81620001de565b81146200020957600080fd5b50565b6000815190506200021d81620001f2565b92915050565b6000602082840312156200023c576200023b620001b9565b5b60006200024c848285016200020c565b91505092915050565b6080516112df6200027860003960008181610177015261083001526112df6000f3fe608060405234801561001057600080fd5b506004361061004c5760003560e01c80637cc201d2146100515780638a6481841461006d578063b4c3f1171461008b578063e0533ecb146100bb575b600080fd5b61006b60048036038101906100669190610ea2565b6100c5565b005b61007561082e565b6040516100829190610ede565b60405180910390f35b6100a560048036038101906100a09190610ea2565b610852565b6040516100b29190610f12565b60405180910390f35b6100c361086a565b005b6100f17f09834eeb7d9a875992a97e4461fd17ebb34839dc8568839cd7ba3e484372af2560001b610e3c565b61011d7f1bc4a90ad555e49d4c7301c59757a70833a525851be49a991586d1fe2d84dab860001b610e3c565b6101497f9cf1c65ca4da2a94c6e5c356ef6c6fcd2f059c19eb42f2dd581c7605bdeac70c60001b610e3c565b6101757fb790f339a0d8f06db97c2c8f1e7f4cc3eb78208bdb9a1e98953fb8fd5cdcea1460001b610e3c565b7f000000000000000000000000000000000000000000000000000000000000000073ffffffffffffffffffffffffffffffffffffffff163373ffffffffffffffffffffffffffffffffffffffff1614610203576040517f08c379a00000000000000000000000000000000000000000000000000000000081526004016101fa90610fb0565b60405180910390fd5b61022f7ff16b1183cb642f6b1eb2140cba9df14cdc7f311995b9b744979d93addaba265e60001b610e3c565b61025b7f57918b59776cb7bdcd583d588c6e056c4b9ef41b8cfcba73d7412ddae1c7f0e360001b610e3c565b6102877f25a6ba64ebccf68f4eab481d2c7a6fe5e412218586eba08e6793c5fe87ac748960001b610e3c565b6102b37fa0bbfedd8bc1b13be068259df7df5bcaba4dbcc98f3be22220ca34214bab9c7360001b610e3c565b6102df7f30c158bf52d35c6c40ff50d425d3550f9554a353555c5dac77a3b1cdabdbbbb660001b610e3c565b61030b7f2513955287913bb10d025d4b26f7b19ed9de5634b0dbc412ed71a6274a893ee760001b610e3c565b6801158e460913d0000060008054906101000a900473ffffffffffffffffffffffffffffffffffffffff1673ffffffffffffffffffffffffffffffffffffffff166370a08231306040518263ffffffff1660e01b815260040161036e9190610ede565b602060405180830381865afa15801561038b573d6000803e3d6000fd5b505050506040513d601f19601f820116820180604052508101906103af9190610ffc565b10156103f0576040517f08c379a00000000000000000000000000000000000000000000000000000000081526004016103e7906110c1565b60405180910390fd5b61041c7fa161396d893f1accbdd976de90551b313a99f9b94c309e21ac442b57e04ee0be60001b610e3c565b6104487f5e14b81eca0794dd5cb77e7aa4fcf81086f8482d332e58ce21c72acd1679b84960001b610e3c565b806104757fbb22b343107e9a21fe371dc23b13dd3b579e57d3550ed5932194e943d5acbca760001b610e3c565b6104a17f0d85c495f738159b700029628178b98b37b46f6e66d1da25422b5f1d75d9f12f60001b610e3c565b6104cd7ff0467ff5dccba3604370e67c63d0dd88574382947f5e50a4253ff8ff0d5e6bbe60001b610e3c565b6104f87e67ef551efd75d75c1476147c60379e89c330e85ebac98c1ffb00bc4d78a6a160001b610e3c565b61a8c0600160008373ffffffffffffffffffffffffffffffffffffffff1673ffffffffffffffffffffffffffffffffffffffff168152602001908152602001600020546105459190611110565b4211610586576040517f08c379a000000000000000000000000000000000000000000000000000000000815260040161057d906111b6565b60405180910390fd5b6105b27fd8747278c5ba7074695cddda7a3b2bd41ae2e8da4a83dbfbc28a64857f09059760001b610e3c565b6105de7f16e4164a2b225254119722fc2dae5516eff578a90ff5535881b6b0d24e84255f60001b610e3c565b61060a7f6671f58e3c33577f458b94f40d0c50258961c8ba91167fb0f623c8daac000ced60001b610e3c565b6106367f2af909d5e490d6188bc178653dd692e3aaad061a5e71d8bf7c6e6ebb5beefd9060001b610e3c565b6106627febcb22b55e6f639fef3dc5623fea7a2656c36db657381bd33973ef85324caca160001b610e3c565b42600160008473ffffffffffffffffffffffffffffffffffffffff1673ffffffffffffffffffffffffffffffffffffffff168152602001908152602001600020819055506106d27f599f7ddc83687fe370612561a72db7d7d4a0d57967a8a485982ae651417eee2c60001b610e3c565b6106fe7f7a4aeed02a1e105e2a2f7d7bc9eadf5dbd5b38de14fb09d8ae5a8c74682f380360001b610e3c565b60008054906101000a900473ffffffffffffffffffffffffffffffffffffffff1673ffffffffffffffffffffffffffffffffffffffff1663a9059cbb836801158e460913d000006040518363ffffffff1660e01b815260040161076292919061121b565b6020604051808303816000875af1158015610781573d6000803e3d6000fd5b505050506040513d601f19601f820116820180604052508101906107a5919061127c565b506107d27fa41c26ae6d5292ad82dcc44e2c95c68c9693479a78d511fe00df2c6742c5d48b60001b610e3c565b6107fe7fe27df01dd15ff16664188dd065081bc0d7273728448b24bf76287a46e724066660001b610e3c565b7ffa247eeb36d2dfb6c2ffb4f9e4cb0dbec2ee9675e3c55b944d1782cbc905e2d560405160405180910390a15050565b7f000000000000000000000000000000000000000000000000000000000000000081565b60016020528060005260406000206000915090505481565b6108967f25a6ba64ebccf68f4eab481d2c7a6fe5e412218586eba08e6793c5fe87ac748960001b610e3c565b6108c27fa0bbfedd8bc1b13be068259df7df5bcaba4dbcc98f3be22220ca34214bab9c7360001b610e3c565b6108ee7f30c158bf52d35c6c40ff50d425d3550f9554a353555c5dac77a3b1cdabdbbbb660001b610e3c565b61091a7f2513955287913bb10d025d4b26f7b19ed9de5634b0dbc412ed71a6274a893ee760001b610e3c565b6801158e460913d0000060008054906101000a900473ffffffffffffffffffffffffffffffffffffffff1673ffffffffffffffffffffffffffffffffffffffff166370a08231306040518263ffffffff1660e01b815260040161097d9190610ede565b602060405180830381865afa15801561099a573d6000803e3d6000fd5b505050506040513d601f19601f820116820180604052508101906109be9190610ffc565b10156109ff576040517f08c379a00000000000000000000000000000000000000000000000000000000081526004016109f6906110c1565b60405180910390fd5b610a2b7fa161396d893f1accbdd976de90551b313a99f9b94c309e21ac442b57e04ee0be60001b610e3c565b610a577f5e14b81eca0794dd5cb77e7aa4fcf81086f8482d332e58ce21c72acd1679b84960001b610e3c565b33610a847fbb22b343107e9a21fe371dc23b13dd3b579e57d3550ed5932194e943d5acbca760001b610e3c565b610ab07f0d85c495f738159b700029628178b98b37b46f6e66d1da25422b5f1d75d9f12f60001b610e3c565b610adc7ff0467ff5dccba3604370e67c63d0dd88574382947f5e50a4253ff8ff0d5e6bbe60001b610e3c565b610b077e67ef551efd75d75c1476147c60379e89c330e85ebac98c1ffb00bc4d78a6a160001b610e3c565b61a8c0600160008373ffffffffffffffffffffffffffffffffffffffff1673ffffffffffffffffffffffffffffffffffffffff16815260200190815260200160002054610b549190611110565b4211610b95576040517f08c379a0000000000000000000000000000000000000000000000000000000008152600401610b8c906111b6565b60405180910390fd5b610bc17fd8747278c5ba7074695cddda7a3b2bd41ae2e8da4a83dbfbc28a64857f09059760001b610e3c565b610bed7f16e4164a2b225254119722fc2dae5516eff578a90ff5535881b6b0d24e84255f60001b610e3c565b610c197fb5bf0ca0e31d7b25b92fdb846baea372718ce5ee5e1062f00241b219dc10c07060001b610e3c565b610c457fdf9c35654baae2fb82d2bc461f03bfce3c38f19487f5f938f135f4fb7db5688d60001b610e3c565b610c717f7847dba4f9098f4d911e519b5f3b14927868ffcdfa4021fd2c12e3530db41c2f60001b610e3c565b42600160003373ffffffffffffffffffffffffffffffffffffffff1673ffffffffffffffffffffffffffffffffffffffff16815260200190815260200160002081905550610ce17f46fb42bd47c33180912a60a6249aceafa55ad2719ab8273c545a7d572b268b2360001b610e3c565b610d0d7f8af1623a345a87ef9d48ed362daa4c31cb4fecb8950d20b1cd91e74c0ce21bf960001b610e3c565b60008054906101000a900473ffffffffffffffffffffffffffffffffffffffff1673ffffffffffffffffffffffffffffffffffffffff1663a9059cbb336801158e460913d000006040518363ffffffff1660e01b8152600401610d7192919061121b565b6020604051808303816000875af1158015610d90573d6000803e3d6000fd5b505050506040513d601f19601f82011682018060405250810190610db4919061127c565b50610de17fb05a60f7e020c7b6b2a266a5ad4ab8efa2afac542e7869358cf949071e23feab60001b610e3c565b610e0d7fef22b6586e319ef650d75ba0b3e899db5c8cc0467ed64a0381c81875e6b5b60a60001b610e3c565b7ffa247eeb36d2dfb6c2ffb4f9e4cb0dbec2ee9675e3c55b944d1782cbc905e2d560405160405180910390a150565b50565b600080fd5b600073ffffffffffffffffffffffffffffffffffffffff82169050919050565b6000610e6f82610e44565b9050919050565b610e7f81610e64565b8114610e8a57600080fd5b50565b600081359050610e9c81610e76565b92915050565b600060208284031215610eb857610eb7610e3f565b5b6000610ec684828501610e8d565b91505092915050565b610ed881610e64565b82525050565b6000602082019050610ef36000830184610ecf565b92915050565b6000819050919050565b610f0c81610ef9565b82525050565b6000602082019050610f276000830184610f03565b92915050565b600082825260208201905092915050565b7f4f6e6c79207468652072656c617920616464726573732063616e20616363657360008201527f7320746869732066756e6374696f6e2e00000000000000000000000000000000602082015250565b6000610f9a603083610f2d565b9150610fa582610f3e565b604082019050919050565b60006020820190508181036000830152610fc981610f8d565b9050919050565b610fd981610ef9565b8114610fe457600080fd5b50565b600081519050610ff681610fd0565b92915050565b60006020828403121561101257611011610e3f565b5b600061102084828501610fe7565b91505092915050565b7f46617563657420646f6573206e6f74206861766520616e79206d6f7265204c4960008201527f4e4b2028686173206c657373207468616e203230204c494e4b2063757272656e60208201527f746c79292e000000000000000000000000000000000000000000000000000000604082015250565b60006110ab604583610f2d565b91506110b682611029565b606082019050919050565b600060208201905081810360008301526110da8161109e565b9050919050565b7f4e487b7100000000000000000000000000000000000000000000000000000000600052601160045260246000fd5b600061111b82610ef9565b915061112683610ef9565b925082820190508082111561113e5761113d6110e1565b5b92915050565b7f43757272656e742075736572206d757374207761697420313220686f7572732060008201527f666f722066617563657420636f6f6c646f776e2e000000000000000000000000602082015250565b60006111a0603483610f2d565b91506111ab82611144565b604082019050919050565b600060208201905081810360008301526111cf81611193565b9050919050565b6000819050919050565b6000819050919050565b60006112056112006111fb846111d6565b6111e0565b610ef9565b9050919050565b611215816111ea565b82525050565b60006040820190506112306000830185610ecf565b61123d602083018461120c565b9392505050565b60008115159050919050565b61125981611244565b811461126457600080fd5b50565b60008151905061127681611250565b92915050565b60006020828403121561129257611291610e3f565b5b60006112a084828501611267565b9150509291505056fea2646970667358221220ee5ce64d5ee44b9cb96db4db33eba9fb981f7688858e176fe1f41216f799025164736f6c63430008100033",
  "linkReferences": {},
  "deployedLinkReferences": {}
}