{
  "_format": "hh-sol-artifact-1",
  "contractName": "MockFaucetLINK",
  "sourceName": "contracts/MockFaucet.sol",
  "abi": [
    {
      "inputs": [],
      "stateMutability": "nonpayable",
      "type": "constructor"
    },
    {
      "anonymous": false,
      "inputs": [],
      "name": "faucetWithdraw",
      "type": "event"
    },
    {
      "inputs": [],
      "name": "relayAddress",
      "outputs": [
        {
          "internalType": "address",
          "name": "",
          "type": "address"
        }
      ],
      "stateMutability": "view",
      "type": "function"
    },
    {
      "inputs": [
        {
          "internalType": "address",
          "name": "",
          "type": "address"
        }
      ],
      "name": "userPreviousWithdrawTime",
      "outputs": [
        {
          "internalType": "uint256",
          "name": "",
          "type": "uint256"
        }
      ],
      "stateMutability": "view",
      "type": "function"
    },
    {
      "inputs": [],
      "name": "withdrawDirect",
      "outputs": [],
      "stateMutability": "nonpayable",
      "type": "function"
    },
    {
      "inputs": [
        {
          "internalType": "address",
          "name": "relayCaller",
          "type": "address"
        }
      ],
      "name": "withdrawRelay",
      "outputs": [],
      "stateMutability": "nonpayable",
      "type": "function"
    }
  ],
  "bytecode": "0x60a060405273bfb26279a9d28cec1f781808da89efbbfe2c42686000806101000a81548173ffffffffffffffffffffffffffffffffffffffff021916908373ffffffffffffffffffffffffffffffffffffffff16021790555060008054906101000a900473ffffffffffffffffffffffffffffffffffffffff16600160006101000a81548173ffffffffffffffffffffffffffffffffffffffff021916908373ffffffffffffffffffffffffffffffffffffffff1602179055503480156100c557600080fd5b506100f87f3b1d1527ead661cad4c9fd2e76aff2b624410a8f3a5bec9371e92228f24a58cc60001b61019560201b60201c565b61012a7fcfe1970650083f8bfcaf4cf53f0fdee4c348802e05b09b21550b800a06c4276560001b61019560201b60201c565b61015c7fa192e52e23d7403730bf5eb013487e634cd045206fb52b7971aad82ce84a064360001b61019560201b60201c565b3373ffffffffffffffffffffffffffffffffffffffff1660808173ffffffffffffffffffffffffffffffffffffffff1681525050610198565b50565b6080516112e96101ba60003960008181610177015261083501526112e96000f3fe608060405234801561001057600080fd5b506004361061004c5760003560e01c80637cc201d2146100515780638a6481841461006d578063b4c3f1171461008b578063e0533ecb146100bb575b600080fd5b61006b60048036038101906100669190610eac565b6100c5565b005b610075610833565b6040516100829190610ee8565b60405180910390f35b6100a560048036038101906100a09190610eac565b610857565b6040516100b29190610f1c565b60405180910390f35b6100c361086f565b005b6100f17f45d98730324df3ecabc57fde0e6e7c96672a866c27afb928c685fc5bd8dc92c260001b610e46565b61011d7f39a1c89e5ebd4e3b0159026d371f595d45e4b7c13970af9e0e8213d2601a50ca60001b610e46565b6101497f8b05c860c365cdc7c73e7d50be4ea003cea9799058f5952ee196ff5ab016054860001b610e46565b6101757fa8c8fb03c07df9c6431ea7f9ea357f72b148b5f9b805b99818742e38b467176460001b610e46565b7f000000000000000000000000000000000000000000000000000000000000000073ffffffffffffffffffffffffffffffffffffffff163373ffffffffffffffffffffffffffffffffffffffff1614610203576040517f08c379a00000000000000000000000000000000000000000000000000000000081526004016101fa90610fba565b60405180910390fd5b61022f7f703a1b316bde5af95d5fbcc9a64e7088f910b581e77b29e302145cb61450c01b60001b610e46565b61025b7fb6fa6e84c6104547aa579361791d0f7ec9b6a7e2a14583b321803b8e78cc1c8860001b610e46565b6102877f1e80f21843eb56a764027e3c45ba250643c02f4632dd56ab9153db3490063b0960001b610e46565b6102b37f01ed6c0ffdf1a9d8306b6a00681f0a3c801f6614fb9d1cf7dc0d15191a4c7ac860001b610e46565b6102df7f43b1abc862fe74e76c8c9398d2b5a1443ee627fc47ac93428176cd86d0b3d9a460001b610e46565b61030b7f7763d2969fb95b78c1ae5ffb828940eeac291054aa5b5d0e3c7407c691a3e25060001b610e46565b6801158e460913d00000600160009054906101000a900473ffffffffffffffffffffffffffffffffffffffff1673ffffffffffffffffffffffffffffffffffffffff166370a08231306040518263ffffffff1660e01b81526004016103709190610ee8565b602060405180830381865afa15801561038d573d6000803e3d6000fd5b505050506040513d601f19601f820116820180604052508101906103b19190611006565b10156103f2576040517f08c379a00000000000000000000000000000000000000000000000000000000081526004016103e9906110cb565b60405180910390fd5b61041e7f15d007c9021d53717663e0078621927027a8554c01097cd57a5f4e9fffeb43e960001b610e46565b61044a7f56463f5f6eef7922006db79eb6bab0bd19f801b13e926a719157c8d5e40a14b360001b610e46565b806104777f1090ab83021605af042bd32a3c3d91dda7c896bd5bd9030b987c9c35c938145f60001b610e46565b6104a37f19d5e1446b4d148e6dc1f469a7510e4af9ec1890a9c650d3aacd52d8ac74637760001b610e46565b6104cf7fa31f78ee0f747f420d03f7fd97562aa8d1b78563f093b6be2b70fde17ddedbf060001b610e46565b6104fb7f5b26766a84039dfbf5f17aecb801762059e35aec801e77aaa4c65c99f26eb94e60001b610e46565b61a8c0600260008373ffffffffffffffffffffffffffffffffffffffff1673ffffffffffffffffffffffffffffffffffffffff16815260200190815260200160002054610548919061111a565b4211610589576040517f08c379a0000000000000000000000000000000000000000000000000000000008152600401610580906111c0565b60405180910390fd5b6105b57fbe97a819d83d842e74a9f4f5bbafa64d5f1b9401e8e387bf73f11f1eed60d8a660001b610e46565b6105e17f40ce8b39eb807c00c38f1f63dae5371fafa1137da75f133f2f3e8373c70d100560001b610e46565b61060d7ff5df2527b127bc02517d99f0b10b7bc1bbc901b1fe23afb8c12b1672959152c060001b610e46565b6106397f82add9d5842da7a8df208749dbb0355a598e02279a36daa18c92b588263a4bdd60001b610e46565b6106657f4c72a1654430d4360b6a6fc463669f95c31c001b6f4d0a49fb244e6bbdc8cd3760001b610e46565b42600260008473ffffffffffffffffffffffffffffffffffffffff1673ffffffffffffffffffffffffffffffffffffffff168152602001908152602001600020819055506106d57febe807965cd66a9cc1d6a329add3ca65b7295be99d15adf945f5c0de8b7f3b0060001b610e46565b6107017ff859786642dde5e26248f108101f5740edde54e63259923ad3adc570c13f6e4a60001b610e46565b600160009054906101000a900473ffffffffffffffffffffffffffffffffffffffff1673ffffffffffffffffffffffffffffffffffffffff1663a9059cbb836801158e460913d000006040518363ffffffff1660e01b8152600401610767929190611225565b6020604051808303816000875af1158015610786573d6000803e3d6000fd5b505050506040513d601f19601f820116820180604052508101906107aa9190611286565b506107d77fcb956bce3024503ee692642ad2998ffd6130b6b541363258bbd59b9b6c2e32d860001b610e46565b6108037fa22d65b98d486ea815bdf1b243e68ec88e969464ba44cb823e58ea19167710af60001b610e46565b7ffa247eeb36d2dfb6c2ffb4f9e4cb0dbec2ee9675e3c55b944d1782cbc905e2d560405160405180910390a15050565b7f000000000000000000000000000000000000000000000000000000000000000081565b60026020528060005260406000206000915090505481565b61089b7f1e80f21843eb56a764027e3c45ba250643c02f4632dd56ab9153db3490063b0960001b610e46565b6108c77f01ed6c0ffdf1a9d8306b6a00681f0a3c801f6614fb9d1cf7dc0d15191a4c7ac860001b610e46565b6108f37f43b1abc862fe74e76c8c9398d2b5a1443ee627fc47ac93428176cd86d0b3d9a460001b610e46565b61091f7f7763d2969fb95b78c1ae5ffb828940eeac291054aa5b5d0e3c7407c691a3e25060001b610e46565b6801158e460913d00000600160009054906101000a900473ffffffffffffffffffffffffffffffffffffffff1673ffffffffffffffffffffffffffffffffffffffff166370a08231306040518263ffffffff1660e01b81526004016109849190610ee8565b602060405180830381865afa1580156109a1573d6000803e3d6000fd5b505050506040513d601f19601f820116820180604052508101906109c59190611006565b1015610a06576040517f08c379a00000000000000000000000000000000000000000000000000000000081526004016109fd906110cb565b60405180910390fd5b610a327f15d007c9021d53717663e0078621927027a8554c01097cd57a5f4e9fffeb43e960001b610e46565b610a5e7f56463f5f6eef7922006db79eb6bab0bd19f801b13e926a719157c8d5e40a14b360001b610e46565b33610a8b7f1090ab83021605af042bd32a3c3d91dda7c896bd5bd9030b987c9c35c938145f60001b610e46565b610ab77f19d5e1446b4d148e6dc1f469a7510e4af9ec1890a9c650d3aacd52d8ac74637760001b610e46565b610ae37fa31f78ee0f747f420d03f7fd97562aa8d1b78563f093b6be2b70fde17ddedbf060001b610e46565b610b0f7f5b26766a84039dfbf5f17aecb801762059e35aec801e77aaa4c65c99f26eb94e60001b610e46565b61a8c0600260008373ffffffffffffffffffffffffffffffffffffffff1673ffffffffffffffffffffffffffffffffffffffff16815260200190815260200160002054610b5c919061111a565b4211610b9d576040517f08c379a0000000000000000000000000000000000000000000000000000000008152600401610b94906111c0565b60405180910390fd5b610bc97fbe97a819d83d842e74a9f4f5bbafa64d5f1b9401e8e387bf73f11f1eed60d8a660001b610e46565b610bf57f40ce8b39eb807c00c38f1f63dae5371fafa1137da75f133f2f3e8373c70d100560001b610e46565b610c217f849714d8b4ae6e205bd277aa7c8eba98b3fb589e833c6f1719167273ec4b4ee860001b610e46565b610c4d7fb669d80f51422e419a33f067082179a40c1f16f4e01cd9a0c16f428867ad05d660001b610e46565b610c797fc2499fe4de67dd5b109140156499a4dd14a349decd738db1546673b071e08f2f60001b610e46565b42600260003373ffffffffffffffffffffffffffffffffffffffff1673ffffffffffffffffffffffffffffffffffffffff16815260200190815260200160002081905550610ce97f13f015e7b106e0439f6448ff70cbe42d9d1c5502612abaa45d6f834996fa7fbf60001b610e46565b610d157fcecaf08adddfb484ada4515134a21c97a41ab370170baefe37106b45915d778a60001b610e46565b600160009054906101000a900473ffffffffffffffffffffffffffffffffffffffff1673ffffffffffffffffffffffffffffffffffffffff1663a9059cbb336801158e460913d000006040518363ffffffff1660e01b8152600401610d7b929190611225565b6020604051808303816000875af1158015610d9a573d6000803e3d6000fd5b505050506040513d601f19601f82011682018060405250810190610dbe9190611286565b50610deb7f55a4b3c5736e50acc4553b8f40c139e50a03c6f4753b788eac89ec924f1d19fe60001b610e46565b610e177f2aacacb5690255447f099ad2befa65c415ac3fcf747b7cf0e676c51da7676ce360001b610e46565b7ffa247eeb36d2dfb6c2ffb4f9e4cb0dbec2ee9675e3c55b944d1782cbc905e2d560405160405180910390a150565b50565b600080fd5b600073ffffffffffffffffffffffffffffffffffffffff82169050919050565b6000610e7982610e4e565b9050919050565b610e8981610e6e565b8114610e9457600080fd5b50565b600081359050610ea681610e80565b92915050565b600060208284031215610ec257610ec1610e49565b5b6000610ed084828501610e97565b91505092915050565b610ee281610e6e565b82525050565b6000602082019050610efd6000830184610ed9565b92915050565b6000819050919050565b610f1681610f03565b82525050565b6000602082019050610f316000830184610f0d565b92915050565b600082825260208201905092915050565b7f4f6e6c79207468652072656c617920616464726573732063616e20616363657360008201527f7320746869732066756e6374696f6e2e00000000000000000000000000000000602082015250565b6000610fa4603083610f37565b9150610faf82610f48565b604082019050919050565b60006020820190508181036000830152610fd381610f97565b9050919050565b610fe381610f03565b8114610fee57600080fd5b50565b60008151905061100081610fda565b92915050565b60006020828403121561101c5761101b610e49565b5b600061102a84828501610ff1565b91505092915050565b7f46617563657420646f6573206e6f74206861766520616e79206d6f7265204c4960008201527f4e4b2028686173206c657373207468616e203230204c494e4b2063757272656e60208201527f746c79292e000000000000000000000000000000000000000000000000000000604082015250565b60006110b5604583610f37565b91506110c082611033565b606082019050919050565b600060208201905081810360008301526110e4816110a8565b9050919050565b7f4e487b7100000000000000000000000000000000000000000000000000000000600052601160045260246000fd5b600061112582610f03565b915061113083610f03565b9250828201905080821115611148576111476110eb565b5b92915050565b7f43757272656e742075736572206d757374207761697420313220686f7572732060008201527f666f722066617563657420636f6f6c646f776e2e000000000000000000000000602082015250565b60006111aa603483610f37565b91506111b58261114e565b604082019050919050565b600060208201905081810360008301526111d98161119d565b9050919050565b6000819050919050565b6000819050919050565b600061120f61120a611205846111e0565b6111ea565b610f03565b9050919050565b61121f816111f4565b82525050565b600060408201905061123a6000830185610ed9565b6112476020830184611216565b9392505050565b60008115159050919050565b6112638161124e565b811461126e57600080fd5b50565b6000815190506112808161125a565b92915050565b60006020828403121561129c5761129b610e49565b5b60006112aa84828501611271565b9150509291505056fea2646970667358221220f82892e6ad2d454ddebdba709cde95da06e38782202c30cbcbae55e962b79d1064736f6c63430008100033",
  "linkReferences": {},
  "deployedLinkReferences": {}
}