{
  "contracts/MockFaucet.sol": {
    "MockFaucetLINK": {
      "abi": [
        {
          "inputs": [],
          "stateMutability": "nonpayable",
          "type": "constructor"
        },
        {
          "anonymous": false,
          "inputs": [],
          "name": "faucetWithdraw",
          "type": "event"
        },
        {
          "inputs": [],
          "name": "relayAddress",
          "outputs": [
            {
              "internalType": "address",
              "name": "",
              "type": "address"
            }
          ],
          "stateMutability": "view",
          "type": "function"
        },
        {
          "inputs": [
            {
              "internalType": "address",
              "name": "",
              "type": "address"
            }
          ],
          "name": "userPreviousWithdrawTime",
          "outputs": [
            {
              "internalType": "uint256",
              "name": "",
              "type": "uint256"
            }
          ],
          "stateMutability": "view",
          "type": "function"
        },
        {
          "inputs": [],
          "name": "withdrawDirect",
          "outputs": [],
          "stateMutability": "nonpayable",
          "type": "function"
        },
        {
          "inputs": [
            {
              "internalType": "address",
              "name": "relayCaller",
              "type": "address"
            }
          ],
          "name": "withdrawRelay",
          "outputs": [],
          "stateMutability": "nonpayable",
          "type": "function"
        }
      ],
      "evm": {
        "bytecode": {
          "linkReferences": {},
          "object": "60a060405273bfb26279a9d28cec1f781808da89efbbfe2c42686000806101000a81548173ffffffffffffffffffffffffffffffffffffffff021916908373ffffffffffffffffffffffffffffffffffffffff16021790555060008054906101000a900473ffffffffffffffffffffffffffffffffffffffff16600160006101000a81548173ffffffffffffffffffffffffffffffffffffffff021916908373ffffffffffffffffffffffffffffffffffffffff1602179055503480156100c557600080fd5b506100f87f3b1d1527ead661cad4c9fd2e76aff2b624410a8f3a5bec9371e92228f24a58cc60001b61019560201b60201c565b61012a7fcfe1970650083f8bfcaf4cf53f0fdee4c348802e05b09b21550b800a06c4276560001b61019560201b60201c565b61015c7fa192e52e23d7403730bf5eb013487e634cd045206fb52b7971aad82ce84a064360001b61019560201b60201c565b3373ffffffffffffffffffffffffffffffffffffffff1660808173ffffffffffffffffffffffffffffffffffffffff1681525050610198565b50565b6080516112e96101ba60003960008181610177015261083501526112e96000f3fe608060405234801561001057600080fd5b506004361061004c5760003560e01c80637cc201d2146100515780638a6481841461006d578063b4c3f1171461008b578063e0533ecb146100bb575b600080fd5b61006b60048036038101906100669190610eac565b6100c5565b005b610075610833565b6040516100829190610ee8565b60405180910390f35b6100a560048036038101906100a09190610eac565b610857565b6040516100b29190610f1c565b60405180910390f35b6100c361086f565b005b6100f17f45d98730324df3ecabc57fde0e6e7c96672a866c27afb928c685fc5bd8dc92c260001b610e46565b61011d7f39a1c89e5ebd4e3b0159026d371f595d45e4b7c13970af9e0e8213d2601a50ca60001b610e46565b6101497f8b05c860c365cdc7c73e7d50be4ea003cea9799058f5952ee196ff5ab016054860001b610e46565b6101757fa8c8fb03c07df9c6431ea7f9ea357f72b148b5f9b805b99818742e38b467176460001b610e46565b7f000000000000000000000000000000000000000000000000000000000000000073ffffffffffffffffffffffffffffffffffffffff163373ffffffffffffffffffffffffffffffffffffffff1614610203576040517f08c379a00000000000000000000000000000000000000000000000000000000081526004016101fa90610fba565b60405180910390fd5b61022f7f703a1b316bde5af95d5fbcc9a64e7088f910b581e77b29e302145cb61450c01b60001b610e46565b61025b7fb6fa6e84c6104547aa579361791d0f7ec9b6a7e2a14583b321803b8e78cc1c8860001b610e46565b6102877f1e80f21843eb56a764027e3c45ba250643c02f4632dd56ab9153db3490063b0960001b610e46565b6102b37f01ed6c0ffdf1a9d8306b6a00681f0a3c801f6614fb9d1cf7dc0d15191a4c7ac860001b610e46565b6102df7f43b1abc862fe74e76c8c9398d2b5a1443ee627fc47ac93428176cd86d0b3d9a460001b610e46565b61030b7f7763d2969fb95b78c1ae5ffb828940eeac291054aa5b5d0e3c7407c691a3e25060001b610e46565b6801158e460913d00000600160009054906101000a900473ffffffffffffffffffffffffffffffffffffffff1673ffffffffffffffffffffffffffffffffffffffff166370a08231306040518263ffffffff1660e01b81526004016103709190610ee8565b602060405180830381865afa15801561038d573d6000803e3d6000fd5b505050506040513d601f19601f820116820180604052508101906103b19190611006565b10156103f2576040517f08c379a00000000000000000000000000000000000000000000000000000000081526004016103e9906110cb565b60405180910390fd5b61041e7f15d007c9021d53717663e0078621927027a8554c01097cd57a5f4e9fffeb43e960001b610e46565b61044a7f56463f5f6eef7922006db79eb6bab0bd19f801b13e926a719157c8d5e40a14b360001b610e46565b806104777f1090ab83021605af042bd32a3c3d91dda7c896bd5bd9030b987c9c35c938145f60001b610e46565b6104a37f19d5e1446b4d148e6dc1f469a7510e4af9ec1890a9c650d3aacd52d8ac74637760001b610e46565b6104cf7fa31f78ee0f747f420d03f7fd97562aa8d1b78563f093b6be2b70fde17ddedbf060001b610e46565b6104fb7f5b26766a84039dfbf5f17aecb801762059e35aec801e77aaa4c65c99f26eb94e60001b610e46565b61a8c0600260008373ffffffffffffffffffffffffffffffffffffffff1673ffffffffffffffffffffffffffffffffffffffff16815260200190815260200160002054610548919061111a565b4211610589576040517f08c379a0000000000000000000000000000000000000000000000000000000008152600401610580906111c0565b60405180910390fd5b6105b57fbe97a819d83d842e74a9f4f5bbafa64d5f1b9401e8e387bf73f11f1eed60d8a660001b610e46565b6105e17f40ce8b39eb807c00c38f1f63dae5371fafa1137da75f133f2f3e8373c70d100560001b610e46565b61060d7ff5df2527b127bc02517d99f0b10b7bc1bbc901b1fe23afb8c12b1672959152c060001b610e46565b6106397f82add9d5842da7a8df208749dbb0355a598e02279a36daa18c92b588263a4bdd60001b610e46565b6106657f4c72a1654430d4360b6a6fc463669f95c31c001b6f4d0a49fb244e6bbdc8cd3760001b610e46565b42600260008473ffffffffffffffffffffffffffffffffffffffff1673ffffffffffffffffffffffffffffffffffffffff168152602001908152602001600020819055506106d57febe807965cd66a9cc1d6a329add3ca65b7295be99d15adf945f5c0de8b7f3b0060001b610e46565b6107017ff859786642dde5e26248f108101f5740edde54e63259923ad3adc570c13f6e4a60001b610e46565b600160009054906101000a900473ffffffffffffffffffffffffffffffffffffffff1673ffffffffffffffffffffffffffffffffffffffff1663a9059cbb836801158e460913d000006040518363ffffffff1660e01b8152600401610767929190611225565b6020604051808303816000875af1158015610786573d6000803e3d6000fd5b505050506040513d601f19601f820116820180604052508101906107aa9190611286565b506107d77fcb956bce3024503ee692642ad2998ffd6130b6b541363258bbd59b9b6c2e32d860001b610e46565b6108037fa22d65b98d486ea815bdf1b243e68ec88e969464ba44cb823e58ea19167710af60001b610e46565b7ffa247eeb36d2dfb6c2ffb4f9e4cb0dbec2ee9675e3c55b944d1782cbc905e2d560405160405180910390a15050565b7f000000000000000000000000000000000000000000000000000000000000000081565b60026020528060005260406000206000915090505481565b61089b7f1e80f21843eb56a764027e3c45ba250643c02f4632dd56ab9153db3490063b0960001b610e46565b6108c77f01ed6c0ffdf1a9d8306b6a00681f0a3c801f6614fb9d1cf7dc0d15191a4c7ac860001b610e46565b6108f37f43b1abc862fe74e76c8c9398d2b5a1443ee627fc47ac93428176cd86d0b3d9a460001b610e46565b61091f7f7763d2969fb95b78c1ae5ffb828940eeac291054aa5b5d0e3c7407c691a3e25060001b610e46565b6801158e460913d00000600160009054906101000a900473ffffffffffffffffffffffffffffffffffffffff1673ffffffffffffffffffffffffffffffffffffffff166370a08231306040518263ffffffff1660e01b81526004016109849190610ee8565b602060405180830381865afa1580156109a1573d6000803e3d6000fd5b505050506040513d601f19601f820116820180604052508101906109c59190611006565b1015610a06576040517f08c379a00000000000000000000000000000000000000000000000000000000081526004016109fd906110cb565b60405180910390fd5b610a327f15d007c9021d53717663e0078621927027a8554c01097cd57a5f4e9fffeb43e960001b610e46565b610a5e7f56463f5f6eef7922006db79eb6bab0bd19f801b13e926a719157c8d5e40a14b360001b610e46565b33610a8b7f1090ab83021605af042bd32a3c3d91dda7c896bd5bd9030b987c9c35c938145f60001b610e46565b610ab77f19d5e1446b4d148e6dc1f469a7510e4af9ec1890a9c650d3aacd52d8ac74637760001b610e46565b610ae37fa31f78ee0f747f420d03f7fd97562aa8d1b78563f093b6be2b70fde17ddedbf060001b610e46565b610b0f7f5b26766a84039dfbf5f17aecb801762059e35aec801e77aaa4c65c99f26eb94e60001b610e46565b61a8c0600260008373ffffffffffffffffffffffffffffffffffffffff1673ffffffffffffffffffffffffffffffffffffffff16815260200190815260200160002054610b5c919061111a565b4211610b9d576040517f08c379a0000000000000000000000000000000000000000000000000000000008152600401610b94906111c0565b60405180910390fd5b610bc97fbe97a819d83d842e74a9f4f5bbafa64d5f1b9401e8e387bf73f11f1eed60d8a660001b610e46565b610bf57f40ce8b39eb807c00c38f1f63dae5371fafa1137da75f133f2f3e8373c70d100560001b610e46565b610c217f849714d8b4ae6e205bd277aa7c8eba98b3fb589e833c6f1719167273ec4b4ee860001b610e46565b610c4d7fb669d80f51422e419a33f067082179a40c1f16f4e01cd9a0c16f428867ad05d660001b610e46565b610c797fc2499fe4de67dd5b109140156499a4dd14a349decd738db1546673b071e08f2f60001b610e46565b42600260003373ffffffffffffffffffffffffffffffffffffffff1673ffffffffffffffffffffffffffffffffffffffff16815260200190815260200160002081905550610ce97f13f015e7b106e0439f6448ff70cbe42d9d1c5502612abaa45d6f834996fa7fbf60001b610e46565b610d157fcecaf08adddfb484ada4515134a21c97a41ab370170baefe37106b45915d778a60001b610e46565b600160009054906101000a900473ffffffffffffffffffffffffffffffffffffffff1673ffffffffffffffffffffffffffffffffffffffff1663a9059cbb336801158e460913d000006040518363ffffffff1660e01b8152600401610d7b929190611225565b6020604051808303816000875af1158015610d9a573d6000803e3d6000fd5b505050506040513d601f19601f82011682018060405250810190610dbe9190611286565b50610deb7f55a4b3c5736e50acc4553b8f40c139e50a03c6f4753b788eac89ec924f1d19fe60001b610e46565b610e177f2aacacb5690255447f099ad2befa65c415ac3fcf747b7cf0e676c51da7676ce360001b610e46565b7ffa247eeb36d2dfb6c2ffb4f9e4cb0dbec2ee9675e3c55b944d1782cbc905e2d560405160405180910390a150565b50565b600080fd5b600073ffffffffffffffffffffffffffffffffffffffff82169050919050565b6000610e7982610e4e565b9050919050565b610e8981610e6e565b8114610e9457600080fd5b50565b600081359050610ea681610e80565b92915050565b600060208284031215610ec257610ec1610e49565b5b6000610ed084828501610e97565b91505092915050565b610ee281610e6e565b82525050565b6000602082019050610efd6000830184610ed9565b92915050565b6000819050919050565b610f1681610f03565b82525050565b6000602082019050610f316000830184610f0d565b92915050565b600082825260208201905092915050565b7f4f6e6c79207468652072656c617920616464726573732063616e20616363657360008201527f7320746869732066756e6374696f6e2e00000000000000000000000000000000602082015250565b6000610fa4603083610f37565b9150610faf82610f48565b604082019050919050565b60006020820190508181036000830152610fd381610f97565b9050919050565b610fe381610f03565b8114610fee57600080fd5b50565b60008151905061100081610fda565b92915050565b60006020828403121561101c5761101b610e49565b5b600061102a84828501610ff1565b91505092915050565b7f46617563657420646f6573206e6f74206861766520616e79206d6f7265204c4960008201527f4e4b2028686173206c657373207468616e203230204c494e4b2063757272656e60208201527f746c79292e000000000000000000000000000000000000000000000000000000604082015250565b60006110b5604583610f37565b91506110c082611033565b606082019050919050565b600060208201905081810360008301526110e4816110a8565b9050919050565b7f4e487b7100000000000000000000000000000000000000000000000000000000600052601160045260246000fd5b600061112582610f03565b915061113083610f03565b9250828201905080821115611148576111476110eb565b5b92915050565b7f43757272656e742075736572206d757374207761697420313220686f7572732060008201527f666f722066617563657420636f6f6c646f776e2e000000000000000000000000602082015250565b60006111aa603483610f37565b91506111b58261114e565b604082019050919050565b600060208201905081810360008301526111d98161119d565b9050919050565b6000819050919050565b6000819050919050565b600061120f61120a611205846111e0565b6111ea565b610f03565b9050919050565b61121f816111f4565b82525050565b600060408201905061123a6000830185610ed9565b6112476020830184611216565b9392505050565b60008115159050919050565b6112638161124e565b811461126e57600080fd5b50565b6000815190506112808161125a565b92915050565b60006020828403121561129c5761129b610e49565b5b60006112aa84828501611271565b9150509291505056fea2646970667358221220f82892e6ad2d454ddebdba709cde95da06e38782202c30cbcbae55e962b79d1064736f6c63430008100033",
          "opcodes": "PUSH1 0xA0 PUSH1 0x40 MSTORE PUSH20 0xBFB26279A9D28CEC1F781808DA89EFBBFE2C4268 PUSH1 0x0 DUP1 PUSH2 0x100 EXP DUP2 SLOAD DUP2 PUSH20 0xFFFFFFFFFFFFFFFFFFFFFFFFFFFFFFFFFFFFFFFF MUL NOT AND SWAP1 DUP4 PUSH20 0xFFFFFFFFFFFFFFFFFFFFFFFFFFFFFFFFFFFFFFFF AND MUL OR SWAP1 SSTORE POP PUSH1 0x0 DUP1 SLOAD SWAP1 PUSH2 0x100 EXP SWAP1 DIV PUSH20 0xFFFFFFFFFFFFFFFFFFFFFFFFFFFFFFFFFFFFFFFF AND PUSH1 0x1 PUSH1 0x0 PUSH2 0x100 EXP DUP2 SLOAD DUP2 PUSH20 0xFFFFFFFFFFFFFFFFFFFFFFFFFFFFFFFFFFFFFFFF MUL NOT AND SWAP1 DUP4 PUSH20 0xFFFFFFFFFFFFFFFFFFFFFFFFFFFFFFFFFFFFFFFF AND MUL OR SWAP1 SSTORE POP CALLVALUE DUP1 ISZERO PUSH2 0xC5 JUMPI PUSH1 0x0 DUP1 REVERT JUMPDEST POP PUSH2 0xF8 PUSH32 0x3B1D1527EAD661CAD4C9FD2E76AFF2B624410A8F3A5BEC9371E92228F24A58CC PUSH1 0x0 SHL PUSH2 0x195 PUSH1 0x20 SHL PUSH1 0x20 SHR JUMP JUMPDEST PUSH2 0x12A PUSH32 0xCFE1970650083F8BFCAF4CF53F0FDEE4C348802E05B09B21550B800A06C42765 PUSH1 0x0 SHL PUSH2 0x195 PUSH1 0x20 SHL PUSH1 0x20 SHR JUMP JUMPDEST PUSH2 0x15C PUSH32 0xA192E52E23D7403730BF5EB013487E634CD045206FB52B7971AAD82CE84A0643 PUSH1 0x0 SHL PUSH2 0x195 PUSH1 0x20 SHL PUSH1 0x20 SHR JUMP JUMPDEST CALLER PUSH20 0xFFFFFFFFFFFFFFFFFFFFFFFFFFFFFFFFFFFFFFFF AND PUSH1 0x80 DUP2 PUSH20 0xFFFFFFFFFFFFFFFFFFFFFFFFFFFFFFFFFFFFFFFF AND DUP2 MSTORE POP POP PUSH2 0x198 JUMP JUMPDEST POP JUMP JUMPDEST PUSH1 0x80 MLOAD PUSH2 0x12E9 PUSH2 0x1BA PUSH1 0x0 CODECOPY PUSH1 0x0 DUP2 DUP2 PUSH2 0x177 ADD MSTORE PUSH2 0x835 ADD MSTORE PUSH2 0x12E9 PUSH1 0x0 RETURN INVALID PUSH1 0x80 PUSH1 0x40 MSTORE CALLVALUE DUP1 ISZERO PUSH2 0x10 JUMPI PUSH1 0x0 DUP1 REVERT JUMPDEST POP PUSH1 0x4 CALLDATASIZE LT PUSH2 0x4C JUMPI PUSH1 0x0 CALLDATALOAD PUSH1 0xE0 SHR DUP1 PUSH4 0x7CC201D2 EQ PUSH2 0x51 JUMPI DUP1 PUSH4 0x8A648184 EQ PUSH2 0x6D JUMPI DUP1 PUSH4 0xB4C3F117 EQ PUSH2 0x8B JUMPI DUP1 PUSH4 0xE0533ECB EQ PUSH2 0xBB JUMPI JUMPDEST PUSH1 0x0 DUP1 REVERT JUMPDEST PUSH2 0x6B PUSH1 0x4 DUP1 CALLDATASIZE SUB DUP2 ADD SWAP1 PUSH2 0x66 SWAP2 SWAP1 PUSH2 0xEAC JUMP JUMPDEST PUSH2 0xC5 JUMP JUMPDEST STOP JUMPDEST PUSH2 0x75 PUSH2 0x833 JUMP JUMPDEST PUSH1 0x40 MLOAD PUSH2 0x82 SWAP2 SWAP1 PUSH2 0xEE8 JUMP JUMPDEST PUSH1 0x40 MLOAD DUP1 SWAP2 SUB SWAP1 RETURN JUMPDEST PUSH2 0xA5 PUSH1 0x4 DUP1 CALLDATASIZE SUB DUP2 ADD SWAP1 PUSH2 0xA0 SWAP2 SWAP1 PUSH2 0xEAC JUMP JUMPDEST PUSH2 0x857 JUMP JUMPDEST PUSH1 0x40 MLOAD PUSH2 0xB2 SWAP2 SWAP1 PUSH2 0xF1C JUMP JUMPDEST PUSH1 0x40 MLOAD DUP1 SWAP2 SUB SWAP1 RETURN JUMPDEST PUSH2 0xC3 PUSH2 0x86F JUMP JUMPDEST STOP JUMPDEST PUSH2 0xF1 PUSH32 0x45D98730324DF3ECABC57FDE0E6E7C96672A866C27AFB928C685FC5BD8DC92C2 PUSH1 0x0 SHL PUSH2 0xE46 JUMP JUMPDEST PUSH2 0x11D PUSH32 0x39A1C89E5EBD4E3B0159026D371F595D45E4B7C13970AF9E0E8213D2601A50CA PUSH1 0x0 SHL PUSH2 0xE46 JUMP JUMPDEST PUSH2 0x149 PUSH32 0x8B05C860C365CDC7C73E7D50BE4EA003CEA9799058F5952EE196FF5AB0160548 PUSH1 0x0 SHL PUSH2 0xE46 JUMP JUMPDEST PUSH2 0x175 PUSH32 0xA8C8FB03C07DF9C6431EA7F9EA357F72B148B5F9B805B99818742E38B4671764 PUSH1 0x0 SHL PUSH2 0xE46 JUMP JUMPDEST PUSH32 0x0 PUSH20 0xFFFFFFFFFFFFFFFFFFFFFFFFFFFFFFFFFFFFFFFF AND CALLER PUSH20 0xFFFFFFFFFFFFFFFFFFFFFFFFFFFFFFFFFFFFFFFF AND EQ PUSH2 0x203 JUMPI PUSH1 0x40 MLOAD PUSH32 0x8C379A000000000000000000000000000000000000000000000000000000000 DUP2 MSTORE PUSH1 0x4 ADD PUSH2 0x1FA SWAP1 PUSH2 0xFBA JUMP JUMPDEST PUSH1 0x40 MLOAD DUP1 SWAP2 SUB SWAP1 REVERT JUMPDEST PUSH2 0x22F PUSH32 0x703A1B316BDE5AF95D5FBCC9A64E7088F910B581E77B29E302145CB61450C01B PUSH1 0x0 SHL PUSH2 0xE46 JUMP JUMPDEST PUSH2 0x25B PUSH32 0xB6FA6E84C6104547AA579361791D0F7EC9B6A7E2A14583B321803B8E78CC1C88 PUSH1 0x0 SHL PUSH2 0xE46 JUMP JUMPDEST PUSH2 0x287 PUSH32 0x1E80F21843EB56A764027E3C45BA250643C02F4632DD56AB9153DB3490063B09 PUSH1 0x0 SHL PUSH2 0xE46 JUMP JUMPDEST PUSH2 0x2B3 PUSH32 0x1ED6C0FFDF1A9D8306B6A00681F0A3C801F6614FB9D1CF7DC0D15191A4C7AC8 PUSH1 0x0 SHL PUSH2 0xE46 JUMP JUMPDEST PUSH2 0x2DF PUSH32 0x43B1ABC862FE74E76C8C9398D2B5A1443EE627FC47AC93428176CD86D0B3D9A4 PUSH1 0x0 SHL PUSH2 0xE46 JUMP JUMPDEST PUSH2 0x30B PUSH32 0x7763D2969FB95B78C1AE5FFB828940EEAC291054AA5B5D0E3C7407C691A3E250 PUSH1 0x0 SHL PUSH2 0xE46 JUMP JUMPDEST PUSH9 0x1158E460913D00000 PUSH1 0x1 PUSH1 0x0 SWAP1 SLOAD SWAP1 PUSH2 0x100 EXP SWAP1 DIV PUSH20 0xFFFFFFFFFFFFFFFFFFFFFFFFFFFFFFFFFFFFFFFF AND PUSH20 0xFFFFFFFFFFFFFFFFFFFFFFFFFFFFFFFFFFFFFFFF AND PUSH4 0x70A08231 ADDRESS PUSH1 0x40 MLOAD DUP3 PUSH4 0xFFFFFFFF AND PUSH1 0xE0 SHL DUP2 MSTORE PUSH1 0x4 ADD PUSH2 0x370 SWAP2 SWAP1 PUSH2 0xEE8 JUMP JUMPDEST PUSH1 0x20 PUSH1 0x40 MLOAD DUP1 DUP4 SUB DUP2 DUP7 GAS STATICCALL ISZERO DUP1 ISZERO PUSH2 0x38D JUMPI RETURNDATASIZE PUSH1 0x0 DUP1 RETURNDATACOPY RETURNDATASIZE PUSH1 0x0 REVERT JUMPDEST POP POP POP POP PUSH1 0x40 MLOAD RETURNDATASIZE PUSH1 0x1F NOT PUSH1 0x1F DUP3 ADD AND DUP3 ADD DUP1 PUSH1 0x40 MSTORE POP DUP2 ADD SWAP1 PUSH2 0x3B1 SWAP2 SWAP1 PUSH2 0x1006 JUMP JUMPDEST LT ISZERO PUSH2 0x3F2 JUMPI PUSH1 0x40 MLOAD PUSH32 0x8C379A000000000000000000000000000000000000000000000000000000000 DUP2 MSTORE PUSH1 0x4 ADD PUSH2 0x3E9 SWAP1 PUSH2 0x10CB JUMP JUMPDEST PUSH1 0x40 MLOAD DUP1 SWAP2 SUB SWAP1 REVERT JUMPDEST PUSH2 0x41E PUSH32 0x15D007C9021D53717663E0078621927027A8554C01097CD57A5F4E9FFFEB43E9 PUSH1 0x0 SHL PUSH2 0xE46 JUMP JUMPDEST PUSH2 0x44A PUSH32 0x56463F5F6EEF7922006DB79EB6BAB0BD19F801B13E926A719157C8D5E40A14B3 PUSH1 0x0 SHL PUSH2 0xE46 JUMP JUMPDEST DUP1 PUSH2 0x477 PUSH32 0x1090AB83021605AF042BD32A3C3D91DDA7C896BD5BD9030B987C9C35C938145F PUSH1 0x0 SHL PUSH2 0xE46 JUMP JUMPDEST PUSH2 0x4A3 PUSH32 0x19D5E1446B4D148E6DC1F469A7510E4AF9EC1890A9C650D3AACD52D8AC746377 PUSH1 0x0 SHL PUSH2 0xE46 JUMP JUMPDEST PUSH2 0x4CF PUSH32 0xA31F78EE0F747F420D03F7FD97562AA8D1B78563F093B6BE2B70FDE17DDEDBF0 PUSH1 0x0 SHL PUSH2 0xE46 JUMP JUMPDEST PUSH2 0x4FB PUSH32 0x5B26766A84039DFBF5F17AECB801762059E35AEC801E77AAA4C65C99F26EB94E PUSH1 0x0 SHL PUSH2 0xE46 JUMP JUMPDEST PUSH2 0xA8C0 PUSH1 0x2 PUSH1 0x0 DUP4 PUSH20 0xFFFFFFFFFFFFFFFFFFFFFFFFFFFFFFFFFFFFFFFF AND PUSH20 0xFFFFFFFFFFFFFFFFFFFFFFFFFFFFFFFFFFFFFFFF AND DUP2 MSTORE PUSH1 0x20 ADD SWAP1 DUP2 MSTORE PUSH1 0x20 ADD PUSH1 0x0 KECCAK256 SLOAD PUSH2 0x548 SWAP2 SWAP1 PUSH2 0x111A JUMP JUMPDEST TIMESTAMP GT PUSH2 0x589 JUMPI PUSH1 0x40 MLOAD PUSH32 0x8C379A000000000000000000000000000000000000000000000000000000000 DUP2 MSTORE PUSH1 0x4 ADD PUSH2 0x580 SWAP1 PUSH2 0x11C0 JUMP JUMPDEST PUSH1 0x40 MLOAD DUP1 SWAP2 SUB SWAP1 REVERT JUMPDEST PUSH2 0x5B5 PUSH32 0xBE97A819D83D842E74A9F4F5BBAFA64D5F1B9401E8E387BF73F11F1EED60D8A6 PUSH1 0x0 SHL PUSH2 0xE46 JUMP JUMPDEST PUSH2 0x5E1 PUSH32 0x40CE8B39EB807C00C38F1F63DAE5371FAFA1137DA75F133F2F3E8373C70D1005 PUSH1 0x0 SHL PUSH2 0xE46 JUMP JUMPDEST PUSH2 0x60D PUSH32 0xF5DF2527B127BC02517D99F0B10B7BC1BBC901B1FE23AFB8C12B1672959152C0 PUSH1 0x0 SHL PUSH2 0xE46 JUMP JUMPDEST PUSH2 0x639 PUSH32 0x82ADD9D5842DA7A8DF208749DBB0355A598E02279A36DAA18C92B588263A4BDD PUSH1 0x0 SHL PUSH2 0xE46 JUMP JUMPDEST PUSH2 0x665 PUSH32 0x4C72A1654430D4360B6A6FC463669F95C31C001B6F4D0A49FB244E6BBDC8CD37 PUSH1 0x0 SHL PUSH2 0xE46 JUMP JUMPDEST TIMESTAMP PUSH1 0x2 PUSH1 0x0 DUP5 PUSH20 0xFFFFFFFFFFFFFFFFFFFFFFFFFFFFFFFFFFFFFFFF AND PUSH20 0xFFFFFFFFFFFFFFFFFFFFFFFFFFFFFFFFFFFFFFFF AND DUP2 MSTORE PUSH1 0x20 ADD SWAP1 DUP2 MSTORE PUSH1 0x20 ADD PUSH1 0x0 KECCAK256 DUP2 SWAP1 SSTORE POP PUSH2 0x6D5 PUSH32 0xEBE807965CD66A9CC1D6A329ADD3CA65B7295BE99D15ADF945F5C0DE8B7F3B00 PUSH1 0x0 SHL PUSH2 0xE46 JUMP JUMPDEST PUSH2 0x701 PUSH32 0xF859786642DDE5E26248F108101F5740EDDE54E63259923AD3ADC570C13F6E4A PUSH1 0x0 SHL PUSH2 0xE46 JUMP JUMPDEST PUSH1 0x1 PUSH1 0x0 SWAP1 SLOAD SWAP1 PUSH2 0x100 EXP SWAP1 DIV PUSH20 0xFFFFFFFFFFFFFFFFFFFFFFFFFFFFFFFFFFFFFFFF AND PUSH20 0xFFFFFFFFFFFFFFFFFFFFFFFFFFFFFFFFFFFFFFFF AND PUSH4 0xA9059CBB DUP4 PUSH9 0x1158E460913D00000 PUSH1 0x40 MLOAD DUP4 PUSH4 0xFFFFFFFF AND PUSH1 0xE0 SHL DUP2 MSTORE PUSH1 0x4 ADD PUSH2 0x767 SWAP3 SWAP2 SWAP1 PUSH2 0x1225 JUMP JUMPDEST PUSH1 0x20 PUSH1 0x40 MLOAD DUP1 DUP4 SUB DUP2 PUSH1 0x0 DUP8 GAS CALL ISZERO DUP1 ISZERO PUSH2 0x786 JUMPI RETURNDATASIZE PUSH1 0x0 DUP1 RETURNDATACOPY RETURNDATASIZE PUSH1 0x0 REVERT JUMPDEST POP POP POP POP PUSH1 0x40 MLOAD RETURNDATASIZE PUSH1 0x1F NOT PUSH1 0x1F DUP3 ADD AND DUP3 ADD DUP1 PUSH1 0x40 MSTORE POP DUP2 ADD SWAP1 PUSH2 0x7AA SWAP2 SWAP1 PUSH2 0x1286 JUMP JUMPDEST POP PUSH2 0x7D7 PUSH32 0xCB956BCE3024503EE692642AD2998FFD6130B6B541363258BBD59B9B6C2E32D8 PUSH1 0x0 SHL PUSH2 0xE46 JUMP JUMPDEST PUSH2 0x803 PUSH32 0xA22D65B98D486EA815BDF1B243E68EC88E969464BA44CB823E58EA19167710AF PUSH1 0x0 SHL PUSH2 0xE46 JUMP JUMPDEST PUSH32 0xFA247EEB36D2DFB6C2FFB4F9E4CB0DBEC2EE9675E3C55B944D1782CBC905E2D5 PUSH1 0x40 MLOAD PUSH1 0x40 MLOAD DUP1 SWAP2 SUB SWAP1 LOG1 POP POP JUMP JUMPDEST PUSH32 0x0 DUP2 JUMP JUMPDEST PUSH1 0x2 PUSH1 0x20 MSTORE DUP1 PUSH1 0x0 MSTORE PUSH1 0x40 PUSH1 0x0 KECCAK256 PUSH1 0x0 SWAP2 POP SWAP1 POP SLOAD DUP2 JUMP JUMPDEST PUSH2 0x89B PUSH32 0x1E80F21843EB56A764027E3C45BA250643C02F4632DD56AB9153DB3490063B09 PUSH1 0x0 SHL PUSH2 0xE46 JUMP JUMPDEST PUSH2 0x8C7 PUSH32 0x1ED6C0FFDF1A9D8306B6A00681F0A3C801F6614FB9D1CF7DC0D15191A4C7AC8 PUSH1 0x0 SHL PUSH2 0xE46 JUMP JUMPDEST PUSH2 0x8F3 PUSH32 0x43B1ABC862FE74E76C8C9398D2B5A1443EE627FC47AC93428176CD86D0B3D9A4 PUSH1 0x0 SHL PUSH2 0xE46 JUMP JUMPDEST PUSH2 0x91F PUSH32 0x7763D2969FB95B78C1AE5FFB828940EEAC291054AA5B5D0E3C7407C691A3E250 PUSH1 0x0 SHL PUSH2 0xE46 JUMP JUMPDEST PUSH9 0x1158E460913D00000 PUSH1 0x1 PUSH1 0x0 SWAP1 SLOAD SWAP1 PUSH2 0x100 EXP SWAP1 DIV PUSH20 0xFFFFFFFFFFFFFFFFFFFFFFFFFFFFFFFFFFFFFFFF AND PUSH20 0xFFFFFFFFFFFFFFFFFFFFFFFFFFFFFFFFFFFFFFFF AND PUSH4 0x70A08231 ADDRESS PUSH1 0x40 MLOAD DUP3 PUSH4 0xFFFFFFFF AND PUSH1 0xE0 SHL DUP2 MSTORE PUSH1 0x4 ADD PUSH2 0x984 SWAP2 SWAP1 PUSH2 0xEE8 JUMP JUMPDEST PUSH1 0x20 PUSH1 0x40 MLOAD DUP1 DUP4 SUB DUP2 DUP7 GAS STATICCALL ISZERO DUP1 ISZERO PUSH2 0x9A1 JUMPI RETURNDATASIZE PUSH1 0x0 DUP1 RETURNDATACOPY RETURNDATASIZE PUSH1 0x0 REVERT JUMPDEST POP POP POP POP PUSH1 0x40 MLOAD RETURNDATASIZE PUSH1 0x1F NOT PUSH1 0x1F DUP3 ADD AND DUP3 ADD DUP1 PUSH1 0x40 MSTORE POP DUP2 ADD SWAP1 PUSH2 0x9C5 SWAP2 SWAP1 PUSH2 0x1006 JUMP JUMPDEST LT ISZERO PUSH2 0xA06 JUMPI PUSH1 0x40 MLOAD PUSH32 0x8C379A000000000000000000000000000000000000000000000000000000000 DUP2 MSTORE PUSH1 0x4 ADD PUSH2 0x9FD SWAP1 PUSH2 0x10CB JUMP JUMPDEST PUSH1 0x40 MLOAD DUP1 SWAP2 SUB SWAP1 REVERT JUMPDEST PUSH2 0xA32 PUSH32 0x15D007C9021D53717663E0078621927027A8554C01097CD57A5F4E9FFFEB43E9 PUSH1 0x0 SHL PUSH2 0xE46 JUMP JUMPDEST PUSH2 0xA5E PUSH32 0x56463F5F6EEF7922006DB79EB6BAB0BD19F801B13E926A719157C8D5E40A14B3 PUSH1 0x0 SHL PUSH2 0xE46 JUMP JUMPDEST CALLER PUSH2 0xA8B PUSH32 0x1090AB83021605AF042BD32A3C3D91DDA7C896BD5BD9030B987C9C35C938145F PUSH1 0x0 SHL PUSH2 0xE46 JUMP JUMPDEST PUSH2 0xAB7 PUSH32 0x19D5E1446B4D148E6DC1F469A7510E4AF9EC1890A9C650D3AACD52D8AC746377 PUSH1 0x0 SHL PUSH2 0xE46 JUMP JUMPDEST PUSH2 0xAE3 PUSH32 0xA31F78EE0F747F420D03F7FD97562AA8D1B78563F093B6BE2B70FDE17DDEDBF0 PUSH1 0x0 SHL PUSH2 0xE46 JUMP JUMPDEST PUSH2 0xB0F PUSH32 0x5B26766A84039DFBF5F17AECB801762059E35AEC801E77AAA4C65C99F26EB94E PUSH1 0x0 SHL PUSH2 0xE46 JUMP JUMPDEST PUSH2 0xA8C0 PUSH1 0x2 PUSH1 0x0 DUP4 PUSH20 0xFFFFFFFFFFFFFFFFFFFFFFFFFFFFFFFFFFFFFFFF AND PUSH20 0xFFFFFFFFFFFFFFFFFFFFFFFFFFFFFFFFFFFFFFFF AND DUP2 MSTORE PUSH1 0x20 ADD SWAP1 DUP2 MSTORE PUSH1 0x20 ADD PUSH1 0x0 KECCAK256 SLOAD PUSH2 0xB5C SWAP2 SWAP1 PUSH2 0x111A JUMP JUMPDEST TIMESTAMP GT PUSH2 0xB9D JUMPI PUSH1 0x40 MLOAD PUSH32 0x8C379A000000000000000000000000000000000000000000000000000000000 DUP2 MSTORE PUSH1 0x4 ADD PUSH2 0xB94 SWAP1 PUSH2 0x11C0 JUMP JUMPDEST PUSH1 0x40 MLOAD DUP1 SWAP2 SUB SWAP1 REVERT JUMPDEST PUSH2 0xBC9 PUSH32 0xBE97A819D83D842E74A9F4F5BBAFA64D5F1B9401E8E387BF73F11F1EED60D8A6 PUSH1 0x0 SHL PUSH2 0xE46 JUMP JUMPDEST PUSH2 0xBF5 PUSH32 0x40CE8B39EB807C00C38F1F63DAE5371FAFA1137DA75F133F2F3E8373C70D1005 PUSH1 0x0 SHL PUSH2 0xE46 JUMP JUMPDEST PUSH2 0xC21 PUSH32 0x849714D8B4AE6E205BD277AA7C8EBA98B3FB589E833C6F1719167273EC4B4EE8 PUSH1 0x0 SHL PUSH2 0xE46 JUMP JUMPDEST PUSH2 0xC4D PUSH32 0xB669D80F51422E419A33F067082179A40C1F16F4E01CD9A0C16F428867AD05D6 PUSH1 0x0 SHL PUSH2 0xE46 JUMP JUMPDEST PUSH2 0xC79 PUSH32 0xC2499FE4DE67DD5B109140156499A4DD14A349DECD738DB1546673B071E08F2F PUSH1 0x0 SHL PUSH2 0xE46 JUMP JUMPDEST TIMESTAMP PUSH1 0x2 PUSH1 0x0 CALLER PUSH20 0xFFFFFFFFFFFFFFFFFFFFFFFFFFFFFFFFFFFFFFFF AND PUSH20 0xFFFFFFFFFFFFFFFFFFFFFFFFFFFFFFFFFFFFFFFF AND DUP2 MSTORE PUSH1 0x20 ADD SWAP1 DUP2 MSTORE PUSH1 0x20 ADD PUSH1 0x0 KECCAK256 DUP2 SWAP1 SSTORE POP PUSH2 0xCE9 PUSH32 0x13F015E7B106E0439F6448FF70CBE42D9D1C5502612ABAA45D6F834996FA7FBF PUSH1 0x0 SHL PUSH2 0xE46 JUMP JUMPDEST PUSH2 0xD15 PUSH32 0xCECAF08ADDDFB484ADA4515134A21C97A41AB370170BAEFE37106B45915D778A PUSH1 0x0 SHL PUSH2 0xE46 JUMP JUMPDEST PUSH1 0x1 PUSH1 0x0 SWAP1 SLOAD SWAP1 PUSH2 0x100 EXP SWAP1 DIV PUSH20 0xFFFFFFFFFFFFFFFFFFFFFFFFFFFFFFFFFFFFFFFF AND PUSH20 0xFFFFFFFFFFFFFFFFFFFFFFFFFFFFFFFFFFFFFFFF AND PUSH4 0xA9059CBB CALLER PUSH9 0x1158E460913D00000 PUSH1 0x40 MLOAD DUP4 PUSH4 0xFFFFFFFF AND PUSH1 0xE0 SHL DUP2 MSTORE PUSH1 0x4 ADD PUSH2 0xD7B SWAP3 SWAP2 SWAP1 PUSH2 0x1225 JUMP JUMPDEST PUSH1 0x20 PUSH1 0x40 MLOAD DUP1 DUP4 SUB DUP2 PUSH1 0x0 DUP8 GAS CALL ISZERO DUP1 ISZERO PUSH2 0xD9A JUMPI RETURNDATASIZE PUSH1 0x0 DUP1 RETURNDATACOPY RETURNDATASIZE PUSH1 0x0 REVERT JUMPDEST POP POP POP POP PUSH1 0x40 MLOAD RETURNDATASIZE PUSH1 0x1F NOT PUSH1 0x1F DUP3 ADD AND DUP3 ADD DUP1 PUSH1 0x40 MSTORE POP DUP2 ADD SWAP1 PUSH2 0xDBE SWAP2 SWAP1 PUSH2 0x1286 JUMP JUMPDEST POP PUSH2 0xDEB PUSH32 0x55A4B3C5736E50ACC4553B8F40C139E50A03C6F4753B788EAC89EC924F1D19FE PUSH1 0x0 SHL PUSH2 0xE46 JUMP JUMPDEST PUSH2 0xE17 PUSH32 0x2AACACB5690255447F099AD2BEFA65C415AC3FCF747B7CF0E676C51DA7676CE3 PUSH1 0x0 SHL PUSH2 0xE46 JUMP JUMPDEST PUSH32 0xFA247EEB36D2DFB6C2FFB4F9E4CB0DBEC2EE9675E3C55B944D1782CBC905E2D5 PUSH1 0x40 MLOAD PUSH1 0x40 MLOAD DUP1 SWAP2 SUB SWAP1 LOG1 POP JUMP JUMPDEST POP JUMP JUMPDEST PUSH1 0x0 DUP1 REVERT JUMPDEST PUSH1 0x0 PUSH20 0xFFFFFFFFFFFFFFFFFFFFFFFFFFFFFFFFFFFFFFFF DUP3 AND SWAP1 POP SWAP2 SWAP1 POP JUMP JUMPDEST PUSH1 0x0 PUSH2 0xE79 DUP3 PUSH2 0xE4E JUMP JUMPDEST SWAP1 POP SWAP2 SWAP1 POP JUMP JUMPDEST PUSH2 0xE89 DUP2 PUSH2 0xE6E JUMP JUMPDEST DUP2 EQ PUSH2 0xE94 JUMPI PUSH1 0x0 DUP1 REVERT JUMPDEST POP JUMP JUMPDEST PUSH1 0x0 DUP2 CALLDATALOAD SWAP1 POP PUSH2 0xEA6 DUP2 PUSH2 0xE80 JUMP JUMPDEST SWAP3 SWAP2 POP POP JUMP JUMPDEST PUSH1 0x0 PUSH1 0x20 DUP3 DUP5 SUB SLT ISZERO PUSH2 0xEC2 JUMPI PUSH2 0xEC1 PUSH2 0xE49 JUMP JUMPDEST JUMPDEST PUSH1 0x0 PUSH2 0xED0 DUP5 DUP3 DUP6 ADD PUSH2 0xE97 JUMP JUMPDEST SWAP2 POP POP SWAP3 SWAP2 POP POP JUMP JUMPDEST PUSH2 0xEE2 DUP2 PUSH2 0xE6E JUMP JUMPDEST DUP3 MSTORE POP POP JUMP JUMPDEST PUSH1 0x0 PUSH1 0x20 DUP3 ADD SWAP1 POP PUSH2 0xEFD PUSH1 0x0 DUP4 ADD DUP5 PUSH2 0xED9 JUMP JUMPDEST SWAP3 SWAP2 POP POP JUMP JUMPDEST PUSH1 0x0 DUP2 SWAP1 POP SWAP2 SWAP1 POP JUMP JUMPDEST PUSH2 0xF16 DUP2 PUSH2 0xF03 JUMP JUMPDEST DUP3 MSTORE POP POP JUMP JUMPDEST PUSH1 0x0 PUSH1 0x20 DUP3 ADD SWAP1 POP PUSH2 0xF31 PUSH1 0x0 DUP4 ADD DUP5 PUSH2 0xF0D JUMP JUMPDEST SWAP3 SWAP2 POP POP JUMP JUMPDEST PUSH1 0x0 DUP3 DUP3 MSTORE PUSH1 0x20 DUP3 ADD SWAP1 POP SWAP3 SWAP2 POP POP JUMP JUMPDEST PUSH32 0x4F6E6C79207468652072656C617920616464726573732063616E206163636573 PUSH1 0x0 DUP3 ADD MSTORE PUSH32 0x7320746869732066756E6374696F6E2E00000000000000000000000000000000 PUSH1 0x20 DUP3 ADD MSTORE POP JUMP JUMPDEST PUSH1 0x0 PUSH2 0xFA4 PUSH1 0x30 DUP4 PUSH2 0xF37 JUMP JUMPDEST SWAP2 POP PUSH2 0xFAF DUP3 PUSH2 0xF48 JUMP JUMPDEST PUSH1 0x40 DUP3 ADD SWAP1 POP SWAP2 SWAP1 POP JUMP JUMPDEST PUSH1 0x0 PUSH1 0x20 DUP3 ADD SWAP1 POP DUP2 DUP2 SUB PUSH1 0x0 DUP4 ADD MSTORE PUSH2 0xFD3 DUP2 PUSH2 0xF97 JUMP JUMPDEST SWAP1 POP SWAP2 SWAP1 POP JUMP JUMPDEST PUSH2 0xFE3 DUP2 PUSH2 0xF03 JUMP JUMPDEST DUP2 EQ PUSH2 0xFEE JUMPI PUSH1 0x0 DUP1 REVERT JUMPDEST POP JUMP JUMPDEST PUSH1 0x0 DUP2 MLOAD SWAP1 POP PUSH2 0x1000 DUP2 PUSH2 0xFDA JUMP JUMPDEST SWAP3 SWAP2 POP POP JUMP JUMPDEST PUSH1 0x0 PUSH1 0x20 DUP3 DUP5 SUB SLT ISZERO PUSH2 0x101C JUMPI PUSH2 0x101B PUSH2 0xE49 JUMP JUMPDEST JUMPDEST PUSH1 0x0 PUSH2 0x102A DUP5 DUP3 DUP6 ADD PUSH2 0xFF1 JUMP JUMPDEST SWAP2 POP POP SWAP3 SWAP2 POP POP JUMP JUMPDEST PUSH32 0x46617563657420646F6573206E6F74206861766520616E79206D6F7265204C49 PUSH1 0x0 DUP3 ADD MSTORE PUSH32 0x4E4B2028686173206C657373207468616E203230204C494E4B2063757272656E PUSH1 0x20 DUP3 ADD MSTORE PUSH32 0x746C79292E000000000000000000000000000000000000000000000000000000 PUSH1 0x40 DUP3 ADD MSTORE POP JUMP JUMPDEST PUSH1 0x0 PUSH2 0x10B5 PUSH1 0x45 DUP4 PUSH2 0xF37 JUMP JUMPDEST SWAP2 POP PUSH2 0x10C0 DUP3 PUSH2 0x1033 JUMP JUMPDEST PUSH1 0x60 DUP3 ADD SWAP1 POP SWAP2 SWAP1 POP JUMP JUMPDEST PUSH1 0x0 PUSH1 0x20 DUP3 ADD SWAP1 POP DUP2 DUP2 SUB PUSH1 0x0 DUP4 ADD MSTORE PUSH2 0x10E4 DUP2 PUSH2 0x10A8 JUMP JUMPDEST SWAP1 POP SWAP2 SWAP1 POP JUMP JUMPDEST PUSH32 0x4E487B7100000000000000000000000000000000000000000000000000000000 PUSH1 0x0 MSTORE PUSH1 0x11 PUSH1 0x4 MSTORE PUSH1 0x24 PUSH1 0x0 REVERT JUMPDEST PUSH1 0x0 PUSH2 0x1125 DUP3 PUSH2 0xF03 JUMP JUMPDEST SWAP2 POP PUSH2 0x1130 DUP4 PUSH2 0xF03 JUMP JUMPDEST SWAP3 POP DUP3 DUP3 ADD SWAP1 POP DUP1 DUP3 GT ISZERO PUSH2 0x1148 JUMPI PUSH2 0x1147 PUSH2 0x10EB JUMP JUMPDEST JUMPDEST SWAP3 SWAP2 POP POP JUMP JUMPDEST PUSH32 0x43757272656E742075736572206D757374207761697420313220686F75727320 PUSH1 0x0 DUP3 ADD MSTORE PUSH32 0x666F722066617563657420636F6F6C646F776E2E000000000000000000000000 PUSH1 0x20 DUP3 ADD MSTORE POP JUMP JUMPDEST PUSH1 0x0 PUSH2 0x11AA PUSH1 0x34 DUP4 PUSH2 0xF37 JUMP JUMPDEST SWAP2 POP PUSH2 0x11B5 DUP3 PUSH2 0x114E JUMP JUMPDEST PUSH1 0x40 DUP3 ADD SWAP1 POP SWAP2 SWAP1 POP JUMP JUMPDEST PUSH1 0x0 PUSH1 0x20 DUP3 ADD SWAP1 POP DUP2 DUP2 SUB PUSH1 0x0 DUP4 ADD MSTORE PUSH2 0x11D9 DUP2 PUSH2 0x119D JUMP JUMPDEST SWAP1 POP SWAP2 SWAP1 POP JUMP JUMPDEST PUSH1 0x0 DUP2 SWAP1 POP SWAP2 SWAP1 POP JUMP JUMPDEST PUSH1 0x0 DUP2 SWAP1 POP SWAP2 SWAP1 POP JUMP JUMPDEST PUSH1 0x0 PUSH2 0x120F PUSH2 0x120A PUSH2 0x1205 DUP5 PUSH2 0x11E0 JUMP JUMPDEST PUSH2 0x11EA JUMP JUMPDEST PUSH2 0xF03 JUMP JUMPDEST SWAP1 POP SWAP2 SWAP1 POP JUMP JUMPDEST PUSH2 0x121F DUP2 PUSH2 0x11F4 JUMP JUMPDEST DUP3 MSTORE POP POP JUMP JUMPDEST PUSH1 0x0 PUSH1 0x40 DUP3 ADD SWAP1 POP PUSH2 0x123A PUSH1 0x0 DUP4 ADD DUP6 PUSH2 0xED9 JUMP JUMPDEST PUSH2 0x1247 PUSH1 0x20 DUP4 ADD DUP5 PUSH2 0x1216 JUMP JUMPDEST SWAP4 SWAP3 POP POP POP JUMP JUMPDEST PUSH1 0x0 DUP2 ISZERO ISZERO SWAP1 POP SWAP2 SWAP1 POP JUMP JUMPDEST PUSH2 0x1263 DUP2 PUSH2 0x124E JUMP JUMPDEST DUP2 EQ PUSH2 0x126E JUMPI PUSH1 0x0 DUP1 REVERT JUMPDEST POP JUMP JUMPDEST PUSH1 0x0 DUP2 MLOAD SWAP1 POP PUSH2 0x1280 DUP2 PUSH2 0x125A JUMP JUMPDEST SWAP3 SWAP2 POP POP JUMP JUMPDEST PUSH1 0x0 PUSH1 0x20 DUP3 DUP5 SUB SLT ISZERO PUSH2 0x129C JUMPI PUSH2 0x129B PUSH2 0xE49 JUMP JUMPDEST JUMPDEST PUSH1 0x0 PUSH2 0x12AA DUP5 DUP3 DUP6 ADD PUSH2 0x1271 JUMP JUMPDEST SWAP2 POP POP SWAP3 SWAP2 POP POP JUMP INVALID LOG2 PUSH5 0x6970667358 0x22 SLT KECCAK256 0xF8 0x28 SWAP3 0xE6 0xAD 0x2D GASLIMIT 0x4D 0xDE 0xBD 0xBA PUSH17 0x9CDE95DA06E38782202C30CBCBAE55E962 0xB7 SWAP14 LT PUSH5 0x736F6C6343 STOP ADDMOD LT STOP CALLER "
        },
        "methodIdentifiers": {
          "relayAddress()": "8a648184",
          "userPreviousWithdrawTime(address)": "b4c3f117",
          "withdrawDirect()": "e0533ecb",
          "withdrawRelay(address)": "7cc201d2"
        }
      }
    }
  }
}