{
  "contracts/MockTwitterCompressed.sol": {
    "MockTwitterNameSpaceCompressed": {
      "abi": [
        {
          "anonymous": false,
          "inputs": [],
          "name": "tweetRequestEvent",
          "type": "event"
        },
        {
          "inputs": [],
          "name": "_addressFromTweetMatches",
          "outputs": [
            {
              "internalType": "uint256",
              "name": "",
              "type": "uint256"
            }
          ],
          "stateMutability": "view",
          "type": "function"
        },
        {
          "inputs": [
            {
              "internalType": "address",
              "name": "",
              "type": "address"
            }
          ],
          "name": "addressTwitterID",
          "outputs": [
            {
              "internalType": "uint96",
              "name": "",
              "type": "uint96"
            }
          ],
          "stateMutability": "view",
          "type": "function"
        },
        {
          "inputs": [
            {
              "internalType": "uint256",
              "name": "mockRequestReturnValue",
              "type": "uint256"
            }
          ],
          "name": "mockRequestAnswer",
          "outputs": [],
          "stateMutability": "nonpayable",
          "type": "function"
        },
        {
          "inputs": [
            {
              "internalType": "uint96",
              "name": "twitter_id_Request",
              "type": "uint96"
            }
          ],
          "name": "requestTweetAddressCompare",
          "outputs": [],
          "stateMutability": "nonpayable",
          "type": "function"
        },
        {
          "inputs": [
            {
              "internalType": "uint96",
              "name": "_twitter_id",
              "type": "uint96"
            }
          ],
          "name": "resolveToTwitterID",
          "outputs": [],
          "stateMutability": "nonpayable",
          "type": "function"
        },
        {
          "inputs": [
            {
              "internalType": "uint96",
              "name": "",
              "type": "uint96"
            }
          ],
          "name": "twitterIDaddress",
          "outputs": [
            {
              "internalType": "address",
              "name": "",
              "type": "address"
            }
          ],
          "stateMutability": "view",
          "type": "function"
        }
      ],
      "evm": {
        "bytecode": {
          "linkReferences": {},
          "object": "6080604052600160005534801561001557600080fd5b50610fd9806100256000396000f3fe608060405234801561001057600080fd5b50600436106100625760003560e01c8063431852901461006757806368466b4b14610083578063ce1907df146100b3578063cf154b1f146100cf578063dceb828e146100ff578063f5454e631461011b575b600080fd5b610081600480360381019061007c9190610cf6565b610139565b005b61009d60048036038101906100989190610d81565b6101c7565b6040516100aa9190610dd5565b60405180910390f35b6100cd60048036038101906100c89190610e1c565b6101f2565b005b6100e960048036038101906100e49190610e1c565b6109c1565b6040516100f69190610e58565b60405180910390f35b61011960048036038101906101149190610e1c565b6109f4565b005b610123610cb2565b6040516101309190610e82565b60405180910390f35b6101657f93a45fb1329f335f8cd1f6faa9019f2674b2d7315ac7fdecf1c67cfcccde981260001b610cb8565b6101917f6cabc3cfe3f82944224a672c9691f87dbf7f9e2db7987c7bab44d96d0845f7b060001b610cb8565b6101bd7fbdd2c86c6a1d8412c3c37db8042fa9e6cd3677b27dda190a3978f95cc66dab4160001b610cb8565b8060008190555050565b60016020528060005260406000206000915054906101000a90046bffffffffffffffffffffffff1681565b61021e7f3a6ac216499c4d38560082f680140f3eac36ab9c60b6ce629f0f520cedeac9af60001b610cb8565b61024a7f82ade6c125acb786820db91414db1a41954617c1d3e05422c797da9da4ef23d360001b610cb8565b6102767f1345f7f451a563aca389053f1a2b43161c6883fab766329095ec25b63d4854b260001b610cb8565b6000816bffffffffffffffffffffffff1690506102b57f6aa8c9e0f7cc333d7dc3a6573b22b0a8af1bea668b8f58407e95a6e52e7fc22e60001b610cb8565b6102e17ff6fe72e70bab8c0cf1a9c02078a7a0a20725ac3c90eb73e1fcae3561a7a756ab60001b610cb8565b60003373ffffffffffffffffffffffffffffffffffffffff1690506103287f4dc30f69f2121ea01bb9d4c31cc9bb3b7a6d4fe0b8217f9f23823baa7434369960001b610cb8565b6103547f3ad38ce77b854d40702bc76568377ce926b6e983130cc898e31ca847643b90f660001b610cb8565b600060a083901b90506103897f0608a12dc0317bba0188fc3ae6655dc9107c4c286132b9489a85e4207ec9aae360001b610cb8565b6103b57fe1bad17041bb6bff6969a711bf7c202a0d491d305e24eb1e29849277cfdc8fff60001b610cb8565b600082826103c39190610ecc565b90506103f17fe0a3f31a4e0be0899988b06981d26dca6b829eaed728de907742cf68248c469460001b610cb8565b61041d7fd280aefd088dc1dcb3f515711ad0dadea8594748264f3d28080258f7fd6c588760001b610cb8565b600060a082901c90506104527fac8f713eed828e32fa2c44db7eab0665748e1fcade4d762a4fb5937b94d0997f60001b610cb8565b61047e7f26410c690450cb4b11dabd353ee001a6276c627bc9af04749e8327c1df46118d60001b610cb8565b600073ffffffffffffffffffffffffffffffffffffffff831690506104c57f71b8aa24c7417c124b81b92a8ac3fa4fb19dde755fafd258302b0f2a5067487c60001b610cb8565b6104f17fab6a6032c2723e4d80681a558eb82749ac0f62d92ec346738bb33a4b962cd49460001b610cb8565b600160005403610907576105277f233525d727b86e8b85cbd626424a8205b418c92a1f4c9943e2ad4666e78f99ed60001b610cb8565b6105537f0125a5c5a61bf406a9a76c155712bdf680323964cf50454dcc5cfe3cc5b6a8a260001b610cb8565b61057f7fab246f6576bd0d84f9145cfc56bf91e5b42651ca1012534a7f04e3a8f3db34a360001b610cb8565b600073ffffffffffffffffffffffffffffffffffffffff1660026000846bffffffffffffffffffffffff166bffffffffffffffffffffffff16815260200190815260200160002060009054906101000a900473ffffffffffffffffffffffffffffffffffffffff1673ffffffffffffffffffffffffffffffffffffffff16146107495761062e7f734d8721b9f5f0aa3be152b56b9243f5a38c444a15a07f606383bb2f1900365360001b610cb8565b61065a7f2bf5dc63a6663c2861db6cd6d4165f85988ed059f648c4266edb1184c031d43d60001b610cb8565b6106867feb6e019ba58883a332c0db17c7a6510aefaa4526c2bacdb16507316f981fe28f60001b610cb8565b60006001600060026000866bffffffffffffffffffffffff166bffffffffffffffffffffffff16815260200190815260200160002060009054906101000a900473ffffffffffffffffffffffffffffffffffffffff1673ffffffffffffffffffffffffffffffffffffffff1673ffffffffffffffffffffffffffffffffffffffff16815260200190815260200160002060006101000a8154816bffffffffffffffffffffffff02191690836bffffffffffffffffffffffff160217905550610776565b6107757f5631c2e14080ea2820a978a522db18e5a8f57e2e3bfb4fb4ae1b9563a01558a260001b610cb8565b5b6107a27f054ad900cb902cef33ce3c4ddf8fd902ea6f485127206d3c52c11350d1cc2d7760001b610cb8565b6107ce7ff7e7642dca8c368597fe6dfec33457030b3a62e7896c27218e0571e235afe6ca60001b610cb8565b81600160008373ffffffffffffffffffffffffffffffffffffffff1673ffffffffffffffffffffffffffffffffffffffff16815260200190815260200160002060006101000a8154816bffffffffffffffffffffffff02191690836bffffffffffffffffffffffff1602179055506108687fd0956761e3e7897d9c6bba9e0201696e1e0292b7206ab9606f3e530a4249ce2e60001b610cb8565b6108947ff264f7290886680f57b920705f2a68522e45d59decbbcbc055eed7114aafaa1360001b610cb8565b8060026000846bffffffffffffffffffffffff166bffffffffffffffffffffffff16815260200190815260200160002060006101000a81548173ffffffffffffffffffffffffffffffffffffffff021916908373ffffffffffffffffffffffffffffffffffffffff160217905550610934565b6109337f277eab3ac72e3373e33388da9cd07f8c50a98a76c09766b46e1b68a8ae6ef18e60001b610cb8565b5b6109607f7c5148e491de9764136611367a83511a6686f4d77fbe8bdeb3df2cf9a339b29f60001b610cb8565b61098c7f2cc991497b6da05c74b867bc5c844d68a5cd0f2b3d086442ee3dce613da750ff60001b610cb8565b7ff7a503e561205d742133bff2027c118610bb7859d287101e367709cc321f18fd60405160405180910390a150505050505050565b60026020528060005260406000206000915054906101000a900473ffffffffffffffffffffffffffffffffffffffff1681565b8033610a227fa0a821c8d409d6b3db50c63c57658c85ac497f48557dde4932940f35c5160ce760001b610cb8565b610a4e7f97380b8fa109e30aa73697c40a05f7b322277ab5167408a66115e707fa700f4f60001b610cb8565b610a7a7f69ecd9eee410275c6e68076e98c6c6e976b90fde65cf9828329454e6bbd4570760001b610cb8565b610aa67ffab5a229c87193cc0a86d547a9e1293d65b5f23d9e8f593cc10295651af20fe960001b610cb8565b8073ffffffffffffffffffffffffffffffffffffffff1660026000846bffffffffffffffffffffffff166bffffffffffffffffffffffff16815260200190815260200160002060009054906101000a900473ffffffffffffffffffffffffffffffffffffffff1673ffffffffffffffffffffffffffffffffffffffff1614610b63576040517f08c379a0000000000000000000000000000000000000000000000000000000008152600401610b5a90610f83565b60405180910390fd5b610b8f7f94ab1521d418371a585aee1931933721d24d39eceef9b75891f3f45a679406cc60001b610cb8565b610bbb7f0d7f5c8de482cf0a6a33d4abb07d2dc0ca497b52b48308c3aa9fda5da0dc759160001b610cb8565b610be77f43d513e22e16416b87383375865bb7db23a3aa7ab37b1483375e9350d497a92260001b610cb8565b610c137f068ceb09a82b126792259c40ea3046b7f8c7bcdc9086e0a8b88a5a4950558beb60001b610cb8565b610c3f7f5ab896f4d960a335d59894c3207044bbda213d7aa04b44deaae838115034fc4960001b610cb8565b82600160003373ffffffffffffffffffffffffffffffffffffffff1673ffffffffffffffffffffffffffffffffffffffff16815260200190815260200160002060006101000a8154816bffffffffffffffffffffffff02191690836bffffffffffffffffffffffff160217905550505050565b60005481565b50565b600080fd5b6000819050919050565b610cd381610cc0565b8114610cde57600080fd5b50565b600081359050610cf081610cca565b92915050565b600060208284031215610d0c57610d0b610cbb565b5b6000610d1a84828501610ce1565b91505092915050565b600073ffffffffffffffffffffffffffffffffffffffff82169050919050565b6000610d4e82610d23565b9050919050565b610d5e81610d43565b8114610d6957600080fd5b50565b600081359050610d7b81610d55565b92915050565b600060208284031215610d9757610d96610cbb565b5b6000610da584828501610d6c565b91505092915050565b60006bffffffffffffffffffffffff82169050919050565b610dcf81610dae565b82525050565b6000602082019050610dea6000830184610dc6565b92915050565b610df981610dae565b8114610e0457600080fd5b50565b600081359050610e1681610df0565b92915050565b600060208284031215610e3257610e31610cbb565b5b6000610e4084828501610e07565b91505092915050565b610e5281610d43565b82525050565b6000602082019050610e6d6000830184610e49565b92915050565b610e7c81610cc0565b82525050565b6000602082019050610e976000830184610e73565b92915050565b7f4e487b7100000000000000000000000000000000000000000000000000000000600052601160045260246000fd5b6000610ed782610cc0565b9150610ee283610cc0565b9250828201905080821115610efa57610ef9610e9d565b5b92915050565b600082825260208201905092915050565b7f596f752068617665206e6f74207665726966696564207468697320547769747460008201527f6572204944207769746820796f7572206163636f756e74207965742e00000000602082015250565b6000610f6d603c83610f00565b9150610f7882610f11565b604082019050919050565b60006020820190508181036000830152610f9c81610f60565b905091905056fea2646970667358221220d6cf0a3577e68cc5d446270af53e261b658c76daa78495af420b8842a8513f9a64736f6c63430008100033",
          "opcodes": "PUSH1 0x80 PUSH1 0x40 MSTORE PUSH1 0x1 PUSH1 0x0 SSTORE CALLVALUE DUP1 ISZERO PUSH2 0x15 JUMPI PUSH1 0x0 DUP1 REVERT JUMPDEST POP PUSH2 0xFD9 DUP1 PUSH2 0x25 PUSH1 0x0 CODECOPY PUSH1 0x0 RETURN INVALID PUSH1 0x80 PUSH1 0x40 MSTORE CALLVALUE DUP1 ISZERO PUSH2 0x10 JUMPI PUSH1 0x0 DUP1 REVERT JUMPDEST POP PUSH1 0x4 CALLDATASIZE LT PUSH2 0x62 JUMPI PUSH1 0x0 CALLDATALOAD PUSH1 0xE0 SHR DUP1 PUSH4 0x43185290 EQ PUSH2 0x67 JUMPI DUP1 PUSH4 0x68466B4B EQ PUSH2 0x83 JUMPI DUP1 PUSH4 0xCE1907DF EQ PUSH2 0xB3 JUMPI DUP1 PUSH4 0xCF154B1F EQ PUSH2 0xCF JUMPI DUP1 PUSH4 0xDCEB828E EQ PUSH2 0xFF JUMPI DUP1 PUSH4 0xF5454E63 EQ PUSH2 0x11B JUMPI JUMPDEST PUSH1 0x0 DUP1 REVERT JUMPDEST PUSH2 0x81 PUSH1 0x4 DUP1 CALLDATASIZE SUB DUP2 ADD SWAP1 PUSH2 0x7C SWAP2 SWAP1 PUSH2 0xCF6 JUMP JUMPDEST PUSH2 0x139 JUMP JUMPDEST STOP JUMPDEST PUSH2 0x9D PUSH1 0x4 DUP1 CALLDATASIZE SUB DUP2 ADD SWAP1 PUSH2 0x98 SWAP2 SWAP1 PUSH2 0xD81 JUMP JUMPDEST PUSH2 0x1C7 JUMP JUMPDEST PUSH1 0x40 MLOAD PUSH2 0xAA SWAP2 SWAP1 PUSH2 0xDD5 JUMP JUMPDEST PUSH1 0x40 MLOAD DUP1 SWAP2 SUB SWAP1 RETURN JUMPDEST PUSH2 0xCD PUSH1 0x4 DUP1 CALLDATASIZE SUB DUP2 ADD SWAP1 PUSH2 0xC8 SWAP2 SWAP1 PUSH2 0xE1C JUMP JUMPDEST PUSH2 0x1F2 JUMP JUMPDEST STOP JUMPDEST PUSH2 0xE9 PUSH1 0x4 DUP1 CALLDATASIZE SUB DUP2 ADD SWAP1 PUSH2 0xE4 SWAP2 SWAP1 PUSH2 0xE1C JUMP JUMPDEST PUSH2 0x9C1 JUMP JUMPDEST PUSH1 0x40 MLOAD PUSH2 0xF6 SWAP2 SWAP1 PUSH2 0xE58 JUMP JUMPDEST PUSH1 0x40 MLOAD DUP1 SWAP2 SUB SWAP1 RETURN JUMPDEST PUSH2 0x119 PUSH1 0x4 DUP1 CALLDATASIZE SUB DUP2 ADD SWAP1 PUSH2 0x114 SWAP2 SWAP1 PUSH2 0xE1C JUMP JUMPDEST PUSH2 0x9F4 JUMP JUMPDEST STOP JUMPDEST PUSH2 0x123 PUSH2 0xCB2 JUMP JUMPDEST PUSH1 0x40 MLOAD PUSH2 0x130 SWAP2 SWAP1 PUSH2 0xE82 JUMP JUMPDEST PUSH1 0x40 MLOAD DUP1 SWAP2 SUB SWAP1 RETURN JUMPDEST PUSH2 0x165 PUSH32 0x93A45FB1329F335F8CD1F6FAA9019F2674B2D7315AC7FDECF1C67CFCCCDE9812 PUSH1 0x0 SHL PUSH2 0xCB8 JUMP JUMPDEST PUSH2 0x191 PUSH32 0x6CABC3CFE3F82944224A672C9691F87DBF7F9E2DB7987C7BAB44D96D0845F7B0 PUSH1 0x0 SHL PUSH2 0xCB8 JUMP JUMPDEST PUSH2 0x1BD PUSH32 0xBDD2C86C6A1D8412C3C37DB8042FA9E6CD3677B27DDA190A3978F95CC66DAB41 PUSH1 0x0 SHL PUSH2 0xCB8 JUMP JUMPDEST DUP1 PUSH1 0x0 DUP2 SWAP1 SSTORE POP POP JUMP JUMPDEST PUSH1 0x1 PUSH1 0x20 MSTORE DUP1 PUSH1 0x0 MSTORE PUSH1 0x40 PUSH1 0x0 KECCAK256 PUSH1 0x0 SWAP2 POP SLOAD SWAP1 PUSH2 0x100 EXP SWAP1 DIV PUSH12 0xFFFFFFFFFFFFFFFFFFFFFFFF AND DUP2 JUMP JUMPDEST PUSH2 0x21E PUSH32 0x3A6AC216499C4D38560082F680140F3EAC36AB9C60B6CE629F0F520CEDEAC9AF PUSH1 0x0 SHL PUSH2 0xCB8 JUMP JUMPDEST PUSH2 0x24A PUSH32 0x82ADE6C125ACB786820DB91414DB1A41954617C1D3E05422C797DA9DA4EF23D3 PUSH1 0x0 SHL PUSH2 0xCB8 JUMP JUMPDEST PUSH2 0x276 PUSH32 0x1345F7F451A563ACA389053F1A2B43161C6883FAB766329095EC25B63D4854B2 PUSH1 0x0 SHL PUSH2 0xCB8 JUMP JUMPDEST PUSH1 0x0 DUP2 PUSH12 0xFFFFFFFFFFFFFFFFFFFFFFFF AND SWAP1 POP PUSH2 0x2B5 PUSH32 0x6AA8C9E0F7CC333D7DC3A6573B22B0A8AF1BEA668B8F58407E95A6E52E7FC22E PUSH1 0x0 SHL PUSH2 0xCB8 JUMP JUMPDEST PUSH2 0x2E1 PUSH32 0xF6FE72E70BAB8C0CF1A9C02078A7A0A20725AC3C90EB73E1FCAE3561A7A756AB PUSH1 0x0 SHL PUSH2 0xCB8 JUMP JUMPDEST PUSH1 0x0 CALLER PUSH20 0xFFFFFFFFFFFFFFFFFFFFFFFFFFFFFFFFFFFFFFFF AND SWAP1 POP PUSH2 0x328 PUSH32 0x4DC30F69F2121EA01BB9D4C31CC9BB3B7A6D4FE0B8217F9F23823BAA74343699 PUSH1 0x0 SHL PUSH2 0xCB8 JUMP JUMPDEST PUSH2 0x354 PUSH32 0x3AD38CE77B854D40702BC76568377CE926B6E983130CC898E31CA847643B90F6 PUSH1 0x0 SHL PUSH2 0xCB8 JUMP JUMPDEST PUSH1 0x0 PUSH1 0xA0 DUP4 SWAP1 SHL SWAP1 POP PUSH2 0x389 PUSH32 0x608A12DC0317BBA0188FC3AE6655DC9107C4C286132B9489A85E4207EC9AAE3 PUSH1 0x0 SHL PUSH2 0xCB8 JUMP JUMPDEST PUSH2 0x3B5 PUSH32 0xE1BAD17041BB6BFF6969A711BF7C202A0D491D305E24EB1E29849277CFDC8FFF PUSH1 0x0 SHL PUSH2 0xCB8 JUMP JUMPDEST PUSH1 0x0 DUP3 DUP3 PUSH2 0x3C3 SWAP2 SWAP1 PUSH2 0xECC JUMP JUMPDEST SWAP1 POP PUSH2 0x3F1 PUSH32 0xE0A3F31A4E0BE0899988B06981D26DCA6B829EAED728DE907742CF68248C4694 PUSH1 0x0 SHL PUSH2 0xCB8 JUMP JUMPDEST PUSH2 0x41D PUSH32 0xD280AEFD088DC1DCB3F515711AD0DADEA8594748264F3D28080258F7FD6C5887 PUSH1 0x0 SHL PUSH2 0xCB8 JUMP JUMPDEST PUSH1 0x0 PUSH1 0xA0 DUP3 SWAP1 SHR SWAP1 POP PUSH2 0x452 PUSH32 0xAC8F713EED828E32FA2C44DB7EAB0665748E1FCADE4D762A4FB5937B94D0997F PUSH1 0x0 SHL PUSH2 0xCB8 JUMP JUMPDEST PUSH2 0x47E PUSH32 0x26410C690450CB4B11DABD353EE001A6276C627BC9AF04749E8327C1DF46118D PUSH1 0x0 SHL PUSH2 0xCB8 JUMP JUMPDEST PUSH1 0x0 PUSH20 0xFFFFFFFFFFFFFFFFFFFFFFFFFFFFFFFFFFFFFFFF DUP4 AND SWAP1 POP PUSH2 0x4C5 PUSH32 0x71B8AA24C7417C124B81B92A8AC3FA4FB19DDE755FAFD258302B0F2A5067487C PUSH1 0x0 SHL PUSH2 0xCB8 JUMP JUMPDEST PUSH2 0x4F1 PUSH32 0xAB6A6032C2723E4D80681A558EB82749AC0F62D92EC346738BB33A4B962CD494 PUSH1 0x0 SHL PUSH2 0xCB8 JUMP JUMPDEST PUSH1 0x1 PUSH1 0x0 SLOAD SUB PUSH2 0x907 JUMPI PUSH2 0x527 PUSH32 0x233525D727B86E8B85CBD626424A8205B418C92A1F4C9943E2AD4666E78F99ED PUSH1 0x0 SHL PUSH2 0xCB8 JUMP JUMPDEST PUSH2 0x553 PUSH32 0x125A5C5A61BF406A9A76C155712BDF680323964CF50454DCC5CFE3CC5B6A8A2 PUSH1 0x0 SHL PUSH2 0xCB8 JUMP JUMPDEST PUSH2 0x57F PUSH32 0xAB246F6576BD0D84F9145CFC56BF91E5B42651CA1012534A7F04E3A8F3DB34A3 PUSH1 0x0 SHL PUSH2 0xCB8 JUMP JUMPDEST PUSH1 0x0 PUSH20 0xFFFFFFFFFFFFFFFFFFFFFFFFFFFFFFFFFFFFFFFF AND PUSH1 0x2 PUSH1 0x0 DUP5 PUSH12 0xFFFFFFFFFFFFFFFFFFFFFFFF AND PUSH12 0xFFFFFFFFFFFFFFFFFFFFFFFF AND DUP2 MSTORE PUSH1 0x20 ADD SWAP1 DUP2 MSTORE PUSH1 0x20 ADD PUSH1 0x0 KECCAK256 PUSH1 0x0 SWAP1 SLOAD SWAP1 PUSH2 0x100 EXP SWAP1 DIV PUSH20 0xFFFFFFFFFFFFFFFFFFFFFFFFFFFFFFFFFFFFFFFF AND PUSH20 0xFFFFFFFFFFFFFFFFFFFFFFFFFFFFFFFFFFFFFFFF AND EQ PUSH2 0x749 JUMPI PUSH2 0x62E PUSH32 0x734D8721B9F5F0AA3BE152B56B9243F5A38C444A15A07F606383BB2F19003653 PUSH1 0x0 SHL PUSH2 0xCB8 JUMP JUMPDEST PUSH2 0x65A PUSH32 0x2BF5DC63A6663C2861DB6CD6D4165F85988ED059F648C4266EDB1184C031D43D PUSH1 0x0 SHL PUSH2 0xCB8 JUMP JUMPDEST PUSH2 0x686 PUSH32 0xEB6E019BA58883A332C0DB17C7A6510AEFAA4526C2BACDB16507316F981FE28F PUSH1 0x0 SHL PUSH2 0xCB8 JUMP JUMPDEST PUSH1 0x0 PUSH1 0x1 PUSH1 0x0 PUSH1 0x2 PUSH1 0x0 DUP7 PUSH12 0xFFFFFFFFFFFFFFFFFFFFFFFF AND PUSH12 0xFFFFFFFFFFFFFFFFFFFFFFFF AND DUP2 MSTORE PUSH1 0x20 ADD SWAP1 DUP2 MSTORE PUSH1 0x20 ADD PUSH1 0x0 KECCAK256 PUSH1 0x0 SWAP1 SLOAD SWAP1 PUSH2 0x100 EXP SWAP1 DIV PUSH20 0xFFFFFFFFFFFFFFFFFFFFFFFFFFFFFFFFFFFFFFFF AND PUSH20 0xFFFFFFFFFFFFFFFFFFFFFFFFFFFFFFFFFFFFFFFF AND PUSH20 0xFFFFFFFFFFFFFFFFFFFFFFFFFFFFFFFFFFFFFFFF AND DUP2 MSTORE PUSH1 0x20 ADD SWAP1 DUP2 MSTORE PUSH1 0x20 ADD PUSH1 0x0 KECCAK256 PUSH1 0x0 PUSH2 0x100 EXP DUP2 SLOAD DUP2 PUSH12 0xFFFFFFFFFFFFFFFFFFFFFFFF MUL NOT AND SWAP1 DUP4 PUSH12 0xFFFFFFFFFFFFFFFFFFFFFFFF AND MUL OR SWAP1 SSTORE POP PUSH2 0x776 JUMP JUMPDEST PUSH2 0x775 PUSH32 0x5631C2E14080EA2820A978A522DB18E5A8F57E2E3BFB4FB4AE1B9563A01558A2 PUSH1 0x0 SHL PUSH2 0xCB8 JUMP JUMPDEST JUMPDEST PUSH2 0x7A2 PUSH32 0x54AD900CB902CEF33CE3C4DDF8FD902EA6F485127206D3C52C11350D1CC2D77 PUSH1 0x0 SHL PUSH2 0xCB8 JUMP JUMPDEST PUSH2 0x7CE PUSH32 0xF7E7642DCA8C368597FE6DFEC33457030B3A62E7896C27218E0571E235AFE6CA PUSH1 0x0 SHL PUSH2 0xCB8 JUMP JUMPDEST DUP2 PUSH1 0x1 PUSH1 0x0 DUP4 PUSH20 0xFFFFFFFFFFFFFFFFFFFFFFFFFFFFFFFFFFFFFFFF AND PUSH20 0xFFFFFFFFFFFFFFFFFFFFFFFFFFFFFFFFFFFFFFFF AND DUP2 MSTORE PUSH1 0x20 ADD SWAP1 DUP2 MSTORE PUSH1 0x20 ADD PUSH1 0x0 KECCAK256 PUSH1 0x0 PUSH2 0x100 EXP DUP2 SLOAD DUP2 PUSH12 0xFFFFFFFFFFFFFFFFFFFFFFFF MUL NOT AND SWAP1 DUP4 PUSH12 0xFFFFFFFFFFFFFFFFFFFFFFFF AND MUL OR SWAP1 SSTORE POP PUSH2 0x868 PUSH32 0xD0956761E3E7897D9C6BBA9E0201696E1E0292B7206AB9606F3E530A4249CE2E PUSH1 0x0 SHL PUSH2 0xCB8 JUMP JUMPDEST PUSH2 0x894 PUSH32 0xF264F7290886680F57B920705F2A68522E45D59DECBBCBC055EED7114AAFAA13 PUSH1 0x0 SHL PUSH2 0xCB8 JUMP JUMPDEST DUP1 PUSH1 0x2 PUSH1 0x0 DUP5 PUSH12 0xFFFFFFFFFFFFFFFFFFFFFFFF AND PUSH12 0xFFFFFFFFFFFFFFFFFFFFFFFF AND DUP2 MSTORE PUSH1 0x20 ADD SWAP1 DUP2 MSTORE PUSH1 0x20 ADD PUSH1 0x0 KECCAK256 PUSH1 0x0 PUSH2 0x100 EXP DUP2 SLOAD DUP2 PUSH20 0xFFFFFFFFFFFFFFFFFFFFFFFFFFFFFFFFFFFFFFFF MUL NOT AND SWAP1 DUP4 PUSH20 0xFFFFFFFFFFFFFFFFFFFFFFFFFFFFFFFFFFFFFFFF AND MUL OR SWAP1 SSTORE POP PUSH2 0x934 JUMP JUMPDEST PUSH2 0x933 PUSH32 0x277EAB3AC72E3373E33388DA9CD07F8C50A98A76C09766B46E1B68A8AE6EF18E PUSH1 0x0 SHL PUSH2 0xCB8 JUMP JUMPDEST JUMPDEST PUSH2 0x960 PUSH32 0x7C5148E491DE9764136611367A83511A6686F4D77FBE8BDEB3DF2CF9A339B29F PUSH1 0x0 SHL PUSH2 0xCB8 JUMP JUMPDEST PUSH2 0x98C PUSH32 0x2CC991497B6DA05C74B867BC5C844D68A5CD0F2B3D086442EE3DCE613DA750FF PUSH1 0x0 SHL PUSH2 0xCB8 JUMP JUMPDEST PUSH32 0xF7A503E561205D742133BFF2027C118610BB7859D287101E367709CC321F18FD PUSH1 0x40 MLOAD PUSH1 0x40 MLOAD DUP1 SWAP2 SUB SWAP1 LOG1 POP POP POP POP POP POP POP JUMP JUMPDEST PUSH1 0x2 PUSH1 0x20 MSTORE DUP1 PUSH1 0x0 MSTORE PUSH1 0x40 PUSH1 0x0 KECCAK256 PUSH1 0x0 SWAP2 POP SLOAD SWAP1 PUSH2 0x100 EXP SWAP1 DIV PUSH20 0xFFFFFFFFFFFFFFFFFFFFFFFFFFFFFFFFFFFFFFFF AND DUP2 JUMP JUMPDEST DUP1 CALLER PUSH2 0xA22 PUSH32 0xA0A821C8D409D6B3DB50C63C57658C85AC497F48557DDE4932940F35C5160CE7 PUSH1 0x0 SHL PUSH2 0xCB8 JUMP JUMPDEST PUSH2 0xA4E PUSH32 0x97380B8FA109E30AA73697C40A05F7B322277AB5167408A66115E707FA700F4F PUSH1 0x0 SHL PUSH2 0xCB8 JUMP JUMPDEST PUSH2 0xA7A PUSH32 0x69ECD9EEE410275C6E68076E98C6C6E976B90FDE65CF9828329454E6BBD45707 PUSH1 0x0 SHL PUSH2 0xCB8 JUMP JUMPDEST PUSH2 0xAA6 PUSH32 0xFAB5A229C87193CC0A86D547A9E1293D65B5F23D9E8F593CC10295651AF20FE9 PUSH1 0x0 SHL PUSH2 0xCB8 JUMP JUMPDEST DUP1 PUSH20 0xFFFFFFFFFFFFFFFFFFFFFFFFFFFFFFFFFFFFFFFF AND PUSH1 0x2 PUSH1 0x0 DUP5 PUSH12 0xFFFFFFFFFFFFFFFFFFFFFFFF AND PUSH12 0xFFFFFFFFFFFFFFFFFFFFFFFF AND DUP2 MSTORE PUSH1 0x20 ADD SWAP1 DUP2 MSTORE PUSH1 0x20 ADD PUSH1 0x0 KECCAK256 PUSH1 0x0 SWAP1 SLOAD SWAP1 PUSH2 0x100 EXP SWAP1 DIV PUSH20 0xFFFFFFFFFFFFFFFFFFFFFFFFFFFFFFFFFFFFFFFF AND PUSH20 0xFFFFFFFFFFFFFFFFFFFFFFFFFFFFFFFFFFFFFFFF AND EQ PUSH2 0xB63 JUMPI PUSH1 0x40 MLOAD PUSH32 0x8C379A000000000000000000000000000000000000000000000000000000000 DUP2 MSTORE PUSH1 0x4 ADD PUSH2 0xB5A SWAP1 PUSH2 0xF83 JUMP JUMPDEST PUSH1 0x40 MLOAD DUP1 SWAP2 SUB SWAP1 REVERT JUMPDEST PUSH2 0xB8F PUSH32 0x94AB1521D418371A585AEE1931933721D24D39ECEEF9B75891F3F45A679406CC PUSH1 0x0 SHL PUSH2 0xCB8 JUMP JUMPDEST PUSH2 0xBBB PUSH32 0xD7F5C8DE482CF0A6A33D4ABB07D2DC0CA497B52B48308C3AA9FDA5DA0DC7591 PUSH1 0x0 SHL PUSH2 0xCB8 JUMP JUMPDEST PUSH2 0xBE7 PUSH32 0x43D513E22E16416B87383375865BB7DB23A3AA7AB37B1483375E9350D497A922 PUSH1 0x0 SHL PUSH2 0xCB8 JUMP JUMPDEST PUSH2 0xC13 PUSH32 0x68CEB09A82B126792259C40EA3046B7F8C7BCDC9086E0A8B88A5A4950558BEB PUSH1 0x0 SHL PUSH2 0xCB8 JUMP JUMPDEST PUSH2 0xC3F PUSH32 0x5AB896F4D960A335D59894C3207044BBDA213D7AA04B44DEAAE838115034FC49 PUSH1 0x0 SHL PUSH2 0xCB8 JUMP JUMPDEST DUP3 PUSH1 0x1 PUSH1 0x0 CALLER PUSH20 0xFFFFFFFFFFFFFFFFFFFFFFFFFFFFFFFFFFFFFFFF AND PUSH20 0xFFFFFFFFFFFFFFFFFFFFFFFFFFFFFFFFFFFFFFFF AND DUP2 MSTORE PUSH1 0x20 ADD SWAP1 DUP2 MSTORE PUSH1 0x20 ADD PUSH1 0x0 KECCAK256 PUSH1 0x0 PUSH2 0x100 EXP DUP2 SLOAD DUP2 PUSH12 0xFFFFFFFFFFFFFFFFFFFFFFFF MUL NOT AND SWAP1 DUP4 PUSH12 0xFFFFFFFFFFFFFFFFFFFFFFFF AND MUL OR SWAP1 SSTORE POP POP POP POP JUMP JUMPDEST PUSH1 0x0 SLOAD DUP2 JUMP JUMPDEST POP JUMP JUMPDEST PUSH1 0x0 DUP1 REVERT JUMPDEST PUSH1 0x0 DUP2 SWAP1 POP SWAP2 SWAP1 POP JUMP JUMPDEST PUSH2 0xCD3 DUP2 PUSH2 0xCC0 JUMP JUMPDEST DUP2 EQ PUSH2 0xCDE JUMPI PUSH1 0x0 DUP1 REVERT JUMPDEST POP JUMP JUMPDEST PUSH1 0x0 DUP2 CALLDATALOAD SWAP1 POP PUSH2 0xCF0 DUP2 PUSH2 0xCCA JUMP JUMPDEST SWAP3 SWAP2 POP POP JUMP JUMPDEST PUSH1 0x0 PUSH1 0x20 DUP3 DUP5 SUB SLT ISZERO PUSH2 0xD0C JUMPI PUSH2 0xD0B PUSH2 0xCBB JUMP JUMPDEST JUMPDEST PUSH1 0x0 PUSH2 0xD1A DUP5 DUP3 DUP6 ADD PUSH2 0xCE1 JUMP JUMPDEST SWAP2 POP POP SWAP3 SWAP2 POP POP JUMP JUMPDEST PUSH1 0x0 PUSH20 0xFFFFFFFFFFFFFFFFFFFFFFFFFFFFFFFFFFFFFFFF DUP3 AND SWAP1 POP SWAP2 SWAP1 POP JUMP JUMPDEST PUSH1 0x0 PUSH2 0xD4E DUP3 PUSH2 0xD23 JUMP JUMPDEST SWAP1 POP SWAP2 SWAP1 POP JUMP JUMPDEST PUSH2 0xD5E DUP2 PUSH2 0xD43 JUMP JUMPDEST DUP2 EQ PUSH2 0xD69 JUMPI PUSH1 0x0 DUP1 REVERT JUMPDEST POP JUMP JUMPDEST PUSH1 0x0 DUP2 CALLDATALOAD SWAP1 POP PUSH2 0xD7B DUP2 PUSH2 0xD55 JUMP JUMPDEST SWAP3 SWAP2 POP POP JUMP JUMPDEST PUSH1 0x0 PUSH1 0x20 DUP3 DUP5 SUB SLT ISZERO PUSH2 0xD97 JUMPI PUSH2 0xD96 PUSH2 0xCBB JUMP JUMPDEST JUMPDEST PUSH1 0x0 PUSH2 0xDA5 DUP5 DUP3 DUP6 ADD PUSH2 0xD6C JUMP JUMPDEST SWAP2 POP POP SWAP3 SWAP2 POP POP JUMP JUMPDEST PUSH1 0x0 PUSH12 0xFFFFFFFFFFFFFFFFFFFFFFFF DUP3 AND SWAP1 POP SWAP2 SWAP1 POP JUMP JUMPDEST PUSH2 0xDCF DUP2 PUSH2 0xDAE JUMP JUMPDEST DUP3 MSTORE POP POP JUMP JUMPDEST PUSH1 0x0 PUSH1 0x20 DUP3 ADD SWAP1 POP PUSH2 0xDEA PUSH1 0x0 DUP4 ADD DUP5 PUSH2 0xDC6 JUMP JUMPDEST SWAP3 SWAP2 POP POP JUMP JUMPDEST PUSH2 0xDF9 DUP2 PUSH2 0xDAE JUMP JUMPDEST DUP2 EQ PUSH2 0xE04 JUMPI PUSH1 0x0 DUP1 REVERT JUMPDEST POP JUMP JUMPDEST PUSH1 0x0 DUP2 CALLDATALOAD SWAP1 POP PUSH2 0xE16 DUP2 PUSH2 0xDF0 JUMP JUMPDEST SWAP3 SWAP2 POP POP JUMP JUMPDEST PUSH1 0x0 PUSH1 0x20 DUP3 DUP5 SUB SLT ISZERO PUSH2 0xE32 JUMPI PUSH2 0xE31 PUSH2 0xCBB JUMP JUMPDEST JUMPDEST PUSH1 0x0 PUSH2 0xE40 DUP5 DUP3 DUP6 ADD PUSH2 0xE07 JUMP JUMPDEST SWAP2 POP POP SWAP3 SWAP2 POP POP JUMP JUMPDEST PUSH2 0xE52 DUP2 PUSH2 0xD43 JUMP JUMPDEST DUP3 MSTORE POP POP JUMP JUMPDEST PUSH1 0x0 PUSH1 0x20 DUP3 ADD SWAP1 POP PUSH2 0xE6D PUSH1 0x0 DUP4 ADD DUP5 PUSH2 0xE49 JUMP JUMPDEST SWAP3 SWAP2 POP POP JUMP JUMPDEST PUSH2 0xE7C DUP2 PUSH2 0xCC0 JUMP JUMPDEST DUP3 MSTORE POP POP JUMP JUMPDEST PUSH1 0x0 PUSH1 0x20 DUP3 ADD SWAP1 POP PUSH2 0xE97 PUSH1 0x0 DUP4 ADD DUP5 PUSH2 0xE73 JUMP JUMPDEST SWAP3 SWAP2 POP POP JUMP JUMPDEST PUSH32 0x4E487B7100000000000000000000000000000000000000000000000000000000 PUSH1 0x0 MSTORE PUSH1 0x11 PUSH1 0x4 MSTORE PUSH1 0x24 PUSH1 0x0 REVERT JUMPDEST PUSH1 0x0 PUSH2 0xED7 DUP3 PUSH2 0xCC0 JUMP JUMPDEST SWAP2 POP PUSH2 0xEE2 DUP4 PUSH2 0xCC0 JUMP JUMPDEST SWAP3 POP DUP3 DUP3 ADD SWAP1 POP DUP1 DUP3 GT ISZERO PUSH2 0xEFA JUMPI PUSH2 0xEF9 PUSH2 0xE9D JUMP JUMPDEST JUMPDEST SWAP3 SWAP2 POP POP JUMP JUMPDEST PUSH1 0x0 DUP3 DUP3 MSTORE PUSH1 0x20 DUP3 ADD SWAP1 POP SWAP3 SWAP2 POP POP JUMP JUMPDEST PUSH32 0x596F752068617665206E6F742076657269666965642074686973205477697474 PUSH1 0x0 DUP3 ADD MSTORE PUSH32 0x6572204944207769746820796F7572206163636F756E74207965742E00000000 PUSH1 0x20 DUP3 ADD MSTORE POP JUMP JUMPDEST PUSH1 0x0 PUSH2 0xF6D PUSH1 0x3C DUP4 PUSH2 0xF00 JUMP JUMPDEST SWAP2 POP PUSH2 0xF78 DUP3 PUSH2 0xF11 JUMP JUMPDEST PUSH1 0x40 DUP3 ADD SWAP1 POP SWAP2 SWAP1 POP JUMP JUMPDEST PUSH1 0x0 PUSH1 0x20 DUP3 ADD SWAP1 POP DUP2 DUP2 SUB PUSH1 0x0 DUP4 ADD MSTORE PUSH2 0xF9C DUP2 PUSH2 0xF60 JUMP JUMPDEST SWAP1 POP SWAP2 SWAP1 POP JUMP INVALID LOG2 PUSH5 0x6970667358 0x22 SLT KECCAK256 0xD6 0xCF EXP CALLDATALOAD PUSH24 0xE68CC5D446270AF53E261B658C76DAA78495AF420B8842A8 MLOAD EXTCODEHASH SWAP11 PUSH5 0x736F6C6343 STOP ADDMOD LT STOP CALLER "
        },
        "methodIdentifiers": {
          "_addressFromTweetMatches()": "f5454e63",
          "addressTwitterID(address)": "68466b4b",
          "mockRequestAnswer(uint256)": "43185290",
          "requestTweetAddressCompare(uint96)": "ce1907df",
          "resolveToTwitterID(uint96)": "dceb828e",
          "twitterIDaddress(uint96)": "cf154b1f"
        }
      }
    }
  }
}