{
  "contracts/MockTwitterCompressed.sol": {
    "MockTwitterNameSpace": {
      "abi": [
        {
          "anonymous": false,
          "inputs": [],
          "name": "tweetRequestEvent",
          "type": "event"
        },
        {
          "inputs": [
            {
              "internalType": "address",
              "name": "",
              "type": "address"
            }
          ],
          "name": "addressTwitterID",
          "outputs": [
            {
              "internalType": "uint96",
              "name": "",
              "type": "uint96"
            }
          ],
          "stateMutability": "view",
          "type": "function"
        },
        {
          "inputs": [],
          "name": "isTwitterAddressMatching",
          "outputs": [
            {
              "internalType": "uint256",
              "name": "",
              "type": "uint256"
            }
          ],
          "stateMutability": "view",
          "type": "function"
        },
        {
          "inputs": [
            {
              "internalType": "uint256",
              "name": "setTwitterAddressMatching",
              "type": "uint256"
            }
          ],
          "name": "mockFulfillResponse",
          "outputs": [],
          "stateMutability": "nonpayable",
          "type": "function"
        },
        {
          "inputs": [
            {
              "internalType": "uint96",
              "name": "twitter_id_Request",
              "type": "uint96"
            }
          ],
          "name": "requestTweetAddressCompare",
          "outputs": [],
          "stateMutability": "nonpayable",
          "type": "function"
        },
        {
          "inputs": [
            {
              "internalType": "uint96",
              "name": "_twitter_id",
              "type": "uint96"
            }
          ],
          "name": "resolveToTwitterID",
          "outputs": [],
          "stateMutability": "nonpayable",
          "type": "function"
        },
        {
          "inputs": [
            {
              "internalType": "uint96",
              "name": "",
              "type": "uint96"
            }
          ],
          "name": "twitterIDaddress",
          "outputs": [
            {
              "internalType": "address",
              "name": "",
              "type": "address"
            }
          ],
          "stateMutability": "view",
          "type": "function"
        }
      ],
      "evm": {
        "bytecode": {
          "linkReferences": {},
          "object": "608060405234801561001057600080fd5b50611205806100206000396000f3fe608060405234801561001057600080fd5b50600436106100625760003560e01c80633cdc16a61461006757806368466b4b1461008357806388e76d2b146100b3578063ce1907df146100d1578063cf154b1f146100ed578063dceb828e1461011d575b600080fd5b610081600480360381019061007c9190610f22565b610139565b005b61009d60048036038101906100989190610fad565b6101c7565b6040516100aa9190611001565b60405180910390f35b6100bb6101f2565b6040516100c8919061102b565b60405180910390f35b6100eb60048036038101906100e69190611072565b6101f8565b005b61010760048036038101906101029190611072565b610bf3565b60405161011491906110ae565b60405180910390f35b61013760048036038101906101329190611072565b610c26565b005b6101657faae52bb9169717546a6538f46a3179d2e6bd19d1b82353f280008631b368ee5b60001b610ee4565b6101917fd82543afb9d4ef34d9b41ee6dd1ec1237407487462bf303bc36f3b6b2e783e0160001b610ee4565b6101bd7f255516f40dcde95c82fbc053034b73e188f414dc36b2803aa3d03050ad30820660001b610ee4565b8060008190555050565b60016020528060005260406000206000915054906101000a90046bffffffffffffffffffffffff1681565b60005481565b6102247fe2e363746180a58f77c226fe07d87ab79e0713e06e9a1cdbbe47a61b808e74ef60001b610ee4565b6102507ff676292ca2f9b8cd8977ef263f0985541d1d1492cbc7e24b1c8c62f468037ffe60001b610ee4565b61027c7fa4cc25b104844a4ba071968fd8dbecb69fa08d4c10f301fe3f9a0b9f991b508f60001b610ee4565b60006102aa7f925e88cb84572e8f6e8756c3c7653740ad0a0306d9f038503182f9654cac7b3060001b610ee4565b6102d67f7541d9e98e2cc4a7a72e459e3d1010f13aae7c2e91282a714a2d11bf169849ab60001b610ee4565b60006103047f09d25349326cbc178f9b34be5aa6806c23470bdf3066070d56482392548f03de60001b610ee4565b6103307f8f5a451f54981361b38a0ae7a7d293565f59907bed9f66ccb33baa8465667d9660001b610ee4565b600061035e7f1c66e4188c6f47fc87184a91eba0a49cf646d9b59c45524bcba4f81fd77fc6db60001b610ee4565b61038a7fe06db1e1833ee3c74ee1b04c59e9dafed462ac67614feaff77b0179a66f77dc760001b610ee4565b60006103b87fc8248bdcc46fcddd4a8af59d6ea34521e2b60d6021472db697fc4f5ea134a33a60001b610ee4565b6103e47fb5e8f3f21bff9890e0c158d1243966ad634374fe59667dad9b337c7d5dceacf660001b610ee4565b6001600054036105c15761041a7fb61ff7ab774ef8a1f6d54e20736ab95abefe19a0267700bf66a5a07003ae246c60001b610ee4565b6104467fdd10aba8dd435b53f396a27b015fa3e0ad756ba833a270b07f45ef335cdf34cf60001b610ee4565b6104727f408493118844187acdf57cca37240a9216be360ba1db00a4dd8b3f5bc468a50260001b610ee4565b3373ffffffffffffffffffffffffffffffffffffffff1692506104b77f708c4543c1033d00aa1bc4d8f38a8894e26a6db8a7449245e447f10a845b60a460001b610ee4565b6104e37fafde111fce1049d9bb29d04f2c7378ddba8e5afe9ec455d8884531ff21cfda0760001b610ee4565b846bffffffffffffffffffffffff1691506105207f47985d122d7012cd38d701081daca604bb72702d752b826203594dae2c587ad860001b610ee4565b61054c7f8b66628bdbdeb6e8d283e49a36a22c8ee8cad9bcddb5faa4d1649d880fe60a6a60001b610ee4565b60a082901b905061057f7fcf08de83f6f349e746c6c9112d0a44aa2574022ce6d5befcbeaca4a5aeaf956960001b610ee4565b6105ab7f31630d0cbff2c17604be4313b58d314ad2ad3ae309c3130aa863f894356763b660001b610ee4565b82816105b791906110f8565b60001b93506105ee565b6105ed7faa160c50d166945ac8414904c37c80fab96ae5189a2013ce841984c56218a3f860001b610ee4565b5b61061a7f479d9ec0bb393bef638ac2903a7a4f44bb4b0edb2e6b984f7b0b9ac1d6bf0ab760001b610ee4565b6106467ffa5e67fd97c4837772e4ecfc98ac73f15b67295a9790ac437e62a3b2a063c1ed60001b610ee4565b6000801b8414610b3b5761067c7f3198287a03a83ee0cfab8a45e785ab9a32b61d4b8312a6b644ec7d639d009bae60001b610ee4565b6106a87fbfd05e6d31883a3f00e737bb9d4cebcd7b307b91ec0d9b7f2e98956ea5cdb85660001b610ee4565b6106d47fe8292cc7288196963d58d4f4b7290bf37b5b01da5435df9c4088795ffa2789ae60001b610ee4565b600060a085901c60001c905061070c7f4d91f410e46413ff62f8fef4c761a5fd7015df2127756562c15d11923341042c60001b610ee4565b6107387f213a756a72b793a85602f1640cd52f336eccb2903cdf5a5bbf7641e3967d739c60001b610ee4565b600073ffffffffffffffffffffffffffffffffffffffff60001b861660001c90506107857f0d66f7df11db3a0e425685cec23c1f0d30b19e4e3f80ac4cbaea1a55406a2ea460001b610ee4565b6107b17fa8206b3578e015de8d1cff74139a9af03194783aaeb538656d6ff257796dcf8160001b610ee4565b600073ffffffffffffffffffffffffffffffffffffffff1660026000846bffffffffffffffffffffffff166bffffffffffffffffffffffff16815260200190815260200160002060009054906101000a900473ffffffffffffffffffffffffffffffffffffffff1673ffffffffffffffffffffffffffffffffffffffff161461097b576108607f557e62934d3cc7c5564eb8ce973304f17efafac903131af902cbfccac23e35b460001b610ee4565b61088c7fbddd5ce4cd5c1538ecec39fe5ea4a7a06f4572e5a39577e1c454981cc5c546c360001b610ee4565b6108b87ff4a5abe14c4ccbdbed00b90dc7d2736f2c40c29eae0cbcca582871e46fb8a72d60001b610ee4565b60006001600060026000866bffffffffffffffffffffffff166bffffffffffffffffffffffff16815260200190815260200160002060009054906101000a900473ffffffffffffffffffffffffffffffffffffffff1673ffffffffffffffffffffffffffffffffffffffff1673ffffffffffffffffffffffffffffffffffffffff16815260200190815260200160002060006101000a8154816bffffffffffffffffffffffff02191690836bffffffffffffffffffffffff1602179055506109a8565b6109a77f12db110a8aece756dc7445fa2255527fa82a7d39e392e622414977d1af1be89960001b610ee4565b5b6109d47ff02702f176d212d9041b18a4b2c9ad6c5510e6b51e93e5494811ed97ca653db260001b610ee4565b610a007f9a8d7aca3d497225675553971cc1edac40f15e73110dbe24b12b4ae2161423ed60001b610ee4565b81600160008373ffffffffffffffffffffffffffffffffffffffff1673ffffffffffffffffffffffffffffffffffffffff16815260200190815260200160002060006101000a8154816bffffffffffffffffffffffff02191690836bffffffffffffffffffffffff160217905550610a9a7fe073c0a51d4487a07eff8a3d08d78b0a3e7af0b809323172f353051b0442d58f60001b610ee4565b610ac67f9e47071780cfda485c72cb0ab04de878b8e8556d838bece365ad2d19e74c05d760001b610ee4565b8060026000846bffffffffffffffffffffffff166bffffffffffffffffffffffff16815260200190815260200160002060006101000a81548173ffffffffffffffffffffffffffffffffffffffff021916908373ffffffffffffffffffffffffffffffffffffffff1602179055505050610b68565b610b677f5cd8300e65139a446faef1b3b5c9edb79ac86216f7c474b68ab59c3f14ed765060001b610ee4565b5b610b947f9df9517f22ae433b898bc032ff553e54faa09839330c564127cde13693befb0c60001b610ee4565b610bc07f6418ab3ec01d823d3a589032a35240c831fd7f481c725dd70990e51d363bdae260001b610ee4565b7ff7a503e561205d742133bff2027c118610bb7859d287101e367709cc321f18fd60405160405180910390a15050505050565b60026020528060005260406000206000915054906101000a900473ffffffffffffffffffffffffffffffffffffffff1681565b8033610c547feee757aa1a62ae9fddfcbbd6a52c1e340de71789a8bc75950411d24368d65c3960001b610ee4565b610c807f2682538d9c53006cee17182602a91f00a5106d8bb7e87bfa83865f3790ea819760001b610ee4565b610cac7f53b8412e1d28f204731848368791c6ed8cd8697fed7898191807337c3fddd1cd60001b610ee4565b610cd87f4be5adf450f18893f1e804e9ab0d281d7259d8175fb8ae7a96856ecc7119640c60001b610ee4565b8073ffffffffffffffffffffffffffffffffffffffff1660026000846bffffffffffffffffffffffff166bffffffffffffffffffffffff16815260200190815260200160002060009054906101000a900473ffffffffffffffffffffffffffffffffffffffff1673ffffffffffffffffffffffffffffffffffffffff1614610d95576040517f08c379a0000000000000000000000000000000000000000000000000000000008152600401610d8c906111af565b60405180910390fd5b610dc17f12f9014e6ba47e26e8c72fba9ba21f789e6eb550fee6b9e0a2e11bb8f20a1d0b60001b610ee4565b610ded7f419eb345e97a661ae1d6f35d6ecc295bdd711cfeeb232a7ea37550364c45ccdd60001b610ee4565b610e197f928984f7ce389a36a282cc62c827b6ee92bdfa160b8bc1e5759ad95ddaeda07960001b610ee4565b610e457f41ef4ea5b7e31af281efa2cd53e640fb4c54bb0ac134006996e31a3f8a40311d60001b610ee4565b610e717f142c4d77b54e48d006ab02e0da30fcd686e67ae4375f0ca3ce1c89dc2abfb92d60001b610ee4565b82600160003373ffffffffffffffffffffffffffffffffffffffff1673ffffffffffffffffffffffffffffffffffffffff16815260200190815260200160002060006101000a8154816bffffffffffffffffffffffff02191690836bffffffffffffffffffffffff160217905550505050565b50565b600080fd5b6000819050919050565b610eff81610eec565b8114610f0a57600080fd5b50565b600081359050610f1c81610ef6565b92915050565b600060208284031215610f3857610f37610ee7565b5b6000610f4684828501610f0d565b91505092915050565b600073ffffffffffffffffffffffffffffffffffffffff82169050919050565b6000610f7a82610f4f565b9050919050565b610f8a81610f6f565b8114610f9557600080fd5b50565b600081359050610fa781610f81565b92915050565b600060208284031215610fc357610fc2610ee7565b5b6000610fd184828501610f98565b91505092915050565b60006bffffffffffffffffffffffff82169050919050565b610ffb81610fda565b82525050565b60006020820190506110166000830184610ff2565b92915050565b61102581610eec565b82525050565b6000602082019050611040600083018461101c565b92915050565b61104f81610fda565b811461105a57600080fd5b50565b60008135905061106c81611046565b92915050565b60006020828403121561108857611087610ee7565b5b60006110968482850161105d565b91505092915050565b6110a881610f6f565b82525050565b60006020820190506110c3600083018461109f565b92915050565b7f4e487b7100000000000000000000000000000000000000000000000000000000600052601160045260246000fd5b600061110382610eec565b915061110e83610eec565b9250828201905080821115611126576111256110c9565b5b92915050565b600082825260208201905092915050565b7f596f752068617665206e6f74207665726966696564207468697320547769747460008201527f6572204944207769746820796f7572206163636f756e74207965742e00000000602082015250565b6000611199603c8361112c565b91506111a48261113d565b604082019050919050565b600060208201905081810360008301526111c88161118c565b905091905056fea264697066735822122002133bb4c08334c7eae1b574dd343799e5d7818391086f56c5f2f2f5d833f7a264736f6c63430008100033",
          "opcodes": "PUSH1 0x80 PUSH1 0x40 MSTORE CALLVALUE DUP1 ISZERO PUSH2 0x10 JUMPI PUSH1 0x0 DUP1 REVERT JUMPDEST POP PUSH2 0x1205 DUP1 PUSH2 0x20 PUSH1 0x0 CODECOPY PUSH1 0x0 RETURN INVALID PUSH1 0x80 PUSH1 0x40 MSTORE CALLVALUE DUP1 ISZERO PUSH2 0x10 JUMPI PUSH1 0x0 DUP1 REVERT JUMPDEST POP PUSH1 0x4 CALLDATASIZE LT PUSH2 0x62 JUMPI PUSH1 0x0 CALLDATALOAD PUSH1 0xE0 SHR DUP1 PUSH4 0x3CDC16A6 EQ PUSH2 0x67 JUMPI DUP1 PUSH4 0x68466B4B EQ PUSH2 0x83 JUMPI DUP1 PUSH4 0x88E76D2B EQ PUSH2 0xB3 JUMPI DUP1 PUSH4 0xCE1907DF EQ PUSH2 0xD1 JUMPI DUP1 PUSH4 0xCF154B1F EQ PUSH2 0xED JUMPI DUP1 PUSH4 0xDCEB828E EQ PUSH2 0x11D JUMPI JUMPDEST PUSH1 0x0 DUP1 REVERT JUMPDEST PUSH2 0x81 PUSH1 0x4 DUP1 CALLDATASIZE SUB DUP2 ADD SWAP1 PUSH2 0x7C SWAP2 SWAP1 PUSH2 0xF22 JUMP JUMPDEST PUSH2 0x139 JUMP JUMPDEST STOP JUMPDEST PUSH2 0x9D PUSH1 0x4 DUP1 CALLDATASIZE SUB DUP2 ADD SWAP1 PUSH2 0x98 SWAP2 SWAP1 PUSH2 0xFAD JUMP JUMPDEST PUSH2 0x1C7 JUMP JUMPDEST PUSH1 0x40 MLOAD PUSH2 0xAA SWAP2 SWAP1 PUSH2 0x1001 JUMP JUMPDEST PUSH1 0x40 MLOAD DUP1 SWAP2 SUB SWAP1 RETURN JUMPDEST PUSH2 0xBB PUSH2 0x1F2 JUMP JUMPDEST PUSH1 0x40 MLOAD PUSH2 0xC8 SWAP2 SWAP1 PUSH2 0x102B JUMP JUMPDEST PUSH1 0x40 MLOAD DUP1 SWAP2 SUB SWAP1 RETURN JUMPDEST PUSH2 0xEB PUSH1 0x4 DUP1 CALLDATASIZE SUB DUP2 ADD SWAP1 PUSH2 0xE6 SWAP2 SWAP1 PUSH2 0x1072 JUMP JUMPDEST PUSH2 0x1F8 JUMP JUMPDEST STOP JUMPDEST PUSH2 0x107 PUSH1 0x4 DUP1 CALLDATASIZE SUB DUP2 ADD SWAP1 PUSH2 0x102 SWAP2 SWAP1 PUSH2 0x1072 JUMP JUMPDEST PUSH2 0xBF3 JUMP JUMPDEST PUSH1 0x40 MLOAD PUSH2 0x114 SWAP2 SWAP1 PUSH2 0x10AE JUMP JUMPDEST PUSH1 0x40 MLOAD DUP1 SWAP2 SUB SWAP1 RETURN JUMPDEST PUSH2 0x137 PUSH1 0x4 DUP1 CALLDATASIZE SUB DUP2 ADD SWAP1 PUSH2 0x132 SWAP2 SWAP1 PUSH2 0x1072 JUMP JUMPDEST PUSH2 0xC26 JUMP JUMPDEST STOP JUMPDEST PUSH2 0x165 PUSH32 0xAAE52BB9169717546A6538F46A3179D2E6BD19D1B82353F280008631B368EE5B PUSH1 0x0 SHL PUSH2 0xEE4 JUMP JUMPDEST PUSH2 0x191 PUSH32 0xD82543AFB9D4EF34D9B41EE6DD1EC1237407487462BF303BC36F3B6B2E783E01 PUSH1 0x0 SHL PUSH2 0xEE4 JUMP JUMPDEST PUSH2 0x1BD PUSH32 0x255516F40DCDE95C82FBC053034B73E188F414DC36B2803AA3D03050AD308206 PUSH1 0x0 SHL PUSH2 0xEE4 JUMP JUMPDEST DUP1 PUSH1 0x0 DUP2 SWAP1 SSTORE POP POP JUMP JUMPDEST PUSH1 0x1 PUSH1 0x20 MSTORE DUP1 PUSH1 0x0 MSTORE PUSH1 0x40 PUSH1 0x0 KECCAK256 PUSH1 0x0 SWAP2 POP SLOAD SWAP1 PUSH2 0x100 EXP SWAP1 DIV PUSH12 0xFFFFFFFFFFFFFFFFFFFFFFFF AND DUP2 JUMP JUMPDEST PUSH1 0x0 SLOAD DUP2 JUMP JUMPDEST PUSH2 0x224 PUSH32 0xE2E363746180A58F77C226FE07D87AB79E0713E06E9A1CDBBE47A61B808E74EF PUSH1 0x0 SHL PUSH2 0xEE4 JUMP JUMPDEST PUSH2 0x250 PUSH32 0xF676292CA2F9B8CD8977EF263F0985541D1D1492CBC7E24B1C8C62F468037FFE PUSH1 0x0 SHL PUSH2 0xEE4 JUMP JUMPDEST PUSH2 0x27C PUSH32 0xA4CC25B104844A4BA071968FD8DBECB69FA08D4C10F301FE3F9A0B9F991B508F PUSH1 0x0 SHL PUSH2 0xEE4 JUMP JUMPDEST PUSH1 0x0 PUSH2 0x2AA PUSH32 0x925E88CB84572E8F6E8756C3C7653740AD0A0306D9F038503182F9654CAC7B30 PUSH1 0x0 SHL PUSH2 0xEE4 JUMP JUMPDEST PUSH2 0x2D6 PUSH32 0x7541D9E98E2CC4A7A72E459E3D1010F13AAE7C2E91282A714A2D11BF169849AB PUSH1 0x0 SHL PUSH2 0xEE4 JUMP JUMPDEST PUSH1 0x0 PUSH2 0x304 PUSH32 0x9D25349326CBC178F9B34BE5AA6806C23470BDF3066070D56482392548F03DE PUSH1 0x0 SHL PUSH2 0xEE4 JUMP JUMPDEST PUSH2 0x330 PUSH32 0x8F5A451F54981361B38A0AE7A7D293565F59907BED9F66CCB33BAA8465667D96 PUSH1 0x0 SHL PUSH2 0xEE4 JUMP JUMPDEST PUSH1 0x0 PUSH2 0x35E PUSH32 0x1C66E4188C6F47FC87184A91EBA0A49CF646D9B59C45524BCBA4F81FD77FC6DB PUSH1 0x0 SHL PUSH2 0xEE4 JUMP JUMPDEST PUSH2 0x38A PUSH32 0xE06DB1E1833EE3C74EE1B04C59E9DAFED462AC67614FEAFF77B0179A66F77DC7 PUSH1 0x0 SHL PUSH2 0xEE4 JUMP JUMPDEST PUSH1 0x0 PUSH2 0x3B8 PUSH32 0xC8248BDCC46FCDDD4A8AF59D6EA34521E2B60D6021472DB697FC4F5EA134A33A PUSH1 0x0 SHL PUSH2 0xEE4 JUMP JUMPDEST PUSH2 0x3E4 PUSH32 0xB5E8F3F21BFF9890E0C158D1243966AD634374FE59667DAD9B337C7D5DCEACF6 PUSH1 0x0 SHL PUSH2 0xEE4 JUMP JUMPDEST PUSH1 0x1 PUSH1 0x0 SLOAD SUB PUSH2 0x5C1 JUMPI PUSH2 0x41A PUSH32 0xB61FF7AB774EF8A1F6D54E20736AB95ABEFE19A0267700BF66A5A07003AE246C PUSH1 0x0 SHL PUSH2 0xEE4 JUMP JUMPDEST PUSH2 0x446 PUSH32 0xDD10ABA8DD435B53F396A27B015FA3E0AD756BA833A270B07F45EF335CDF34CF PUSH1 0x0 SHL PUSH2 0xEE4 JUMP JUMPDEST PUSH2 0x472 PUSH32 0x408493118844187ACDF57CCA37240A9216BE360BA1DB00A4DD8B3F5BC468A502 PUSH1 0x0 SHL PUSH2 0xEE4 JUMP JUMPDEST CALLER PUSH20 0xFFFFFFFFFFFFFFFFFFFFFFFFFFFFFFFFFFFFFFFF AND SWAP3 POP PUSH2 0x4B7 PUSH32 0x708C4543C1033D00AA1BC4D8F38A8894E26A6DB8A7449245E447F10A845B60A4 PUSH1 0x0 SHL PUSH2 0xEE4 JUMP JUMPDEST PUSH2 0x4E3 PUSH32 0xAFDE111FCE1049D9BB29D04F2C7378DDBA8E5AFE9EC455D8884531FF21CFDA07 PUSH1 0x0 SHL PUSH2 0xEE4 JUMP JUMPDEST DUP5 PUSH12 0xFFFFFFFFFFFFFFFFFFFFFFFF AND SWAP2 POP PUSH2 0x520 PUSH32 0x47985D122D7012CD38D701081DACA604BB72702D752B826203594DAE2C587AD8 PUSH1 0x0 SHL PUSH2 0xEE4 JUMP JUMPDEST PUSH2 0x54C PUSH32 0x8B66628BDBDEB6E8D283E49A36A22C8EE8CAD9BCDDB5FAA4D1649D880FE60A6A PUSH1 0x0 SHL PUSH2 0xEE4 JUMP JUMPDEST PUSH1 0xA0 DUP3 SWAP1 SHL SWAP1 POP PUSH2 0x57F PUSH32 0xCF08DE83F6F349E746C6C9112D0A44AA2574022CE6D5BEFCBEACA4A5AEAF9569 PUSH1 0x0 SHL PUSH2 0xEE4 JUMP JUMPDEST PUSH2 0x5AB PUSH32 0x31630D0CBFF2C17604BE4313B58D314AD2AD3AE309C3130AA863F894356763B6 PUSH1 0x0 SHL PUSH2 0xEE4 JUMP JUMPDEST DUP3 DUP2 PUSH2 0x5B7 SWAP2 SWAP1 PUSH2 0x10F8 JUMP JUMPDEST PUSH1 0x0 SHL SWAP4 POP PUSH2 0x5EE JUMP JUMPDEST PUSH2 0x5ED PUSH32 0xAA160C50D166945AC8414904C37C80FAB96AE5189A2013CE841984C56218A3F8 PUSH1 0x0 SHL PUSH2 0xEE4 JUMP JUMPDEST JUMPDEST PUSH2 0x61A PUSH32 0x479D9EC0BB393BEF638AC2903A7A4F44BB4B0EDB2E6B984F7B0B9AC1D6BF0AB7 PUSH1 0x0 SHL PUSH2 0xEE4 JUMP JUMPDEST PUSH2 0x646 PUSH32 0xFA5E67FD97C4837772E4ECFC98AC73F15B67295A9790AC437E62A3B2A063C1ED PUSH1 0x0 SHL PUSH2 0xEE4 JUMP JUMPDEST PUSH1 0x0 DUP1 SHL DUP5 EQ PUSH2 0xB3B JUMPI PUSH2 0x67C PUSH32 0x3198287A03A83EE0CFAB8A45E785AB9A32B61D4B8312A6B644EC7D639D009BAE PUSH1 0x0 SHL PUSH2 0xEE4 JUMP JUMPDEST PUSH2 0x6A8 PUSH32 0xBFD05E6D31883A3F00E737BB9D4CEBCD7B307B91EC0D9B7F2E98956EA5CDB856 PUSH1 0x0 SHL PUSH2 0xEE4 JUMP JUMPDEST PUSH2 0x6D4 PUSH32 0xE8292CC7288196963D58D4F4B7290BF37B5B01DA5435DF9C4088795FFA2789AE PUSH1 0x0 SHL PUSH2 0xEE4 JUMP JUMPDEST PUSH1 0x0 PUSH1 0xA0 DUP6 SWAP1 SHR PUSH1 0x0 SHR SWAP1 POP PUSH2 0x70C PUSH32 0x4D91F410E46413FF62F8FEF4C761A5FD7015DF2127756562C15D11923341042C PUSH1 0x0 SHL PUSH2 0xEE4 JUMP JUMPDEST PUSH2 0x738 PUSH32 0x213A756A72B793A85602F1640CD52F336ECCB2903CDF5A5BBF7641E3967D739C PUSH1 0x0 SHL PUSH2 0xEE4 JUMP JUMPDEST PUSH1 0x0 PUSH20 0xFFFFFFFFFFFFFFFFFFFFFFFFFFFFFFFFFFFFFFFF PUSH1 0x0 SHL DUP7 AND PUSH1 0x0 SHR SWAP1 POP PUSH2 0x785 PUSH32 0xD66F7DF11DB3A0E425685CEC23C1F0D30B19E4E3F80AC4CBAEA1A55406A2EA4 PUSH1 0x0 SHL PUSH2 0xEE4 JUMP JUMPDEST PUSH2 0x7B1 PUSH32 0xA8206B3578E015DE8D1CFF74139A9AF03194783AAEB538656D6FF257796DCF81 PUSH1 0x0 SHL PUSH2 0xEE4 JUMP JUMPDEST PUSH1 0x0 PUSH20 0xFFFFFFFFFFFFFFFFFFFFFFFFFFFFFFFFFFFFFFFF AND PUSH1 0x2 PUSH1 0x0 DUP5 PUSH12 0xFFFFFFFFFFFFFFFFFFFFFFFF AND PUSH12 0xFFFFFFFFFFFFFFFFFFFFFFFF AND DUP2 MSTORE PUSH1 0x20 ADD SWAP1 DUP2 MSTORE PUSH1 0x20 ADD PUSH1 0x0 KECCAK256 PUSH1 0x0 SWAP1 SLOAD SWAP1 PUSH2 0x100 EXP SWAP1 DIV PUSH20 0xFFFFFFFFFFFFFFFFFFFFFFFFFFFFFFFFFFFFFFFF AND PUSH20 0xFFFFFFFFFFFFFFFFFFFFFFFFFFFFFFFFFFFFFFFF AND EQ PUSH2 0x97B JUMPI PUSH2 0x860 PUSH32 0x557E62934D3CC7C5564EB8CE973304F17EFAFAC903131AF902CBFCCAC23E35B4 PUSH1 0x0 SHL PUSH2 0xEE4 JUMP JUMPDEST PUSH2 0x88C PUSH32 0xBDDD5CE4CD5C1538ECEC39FE5EA4A7A06F4572E5A39577E1C454981CC5C546C3 PUSH1 0x0 SHL PUSH2 0xEE4 JUMP JUMPDEST PUSH2 0x8B8 PUSH32 0xF4A5ABE14C4CCBDBED00B90DC7D2736F2C40C29EAE0CBCCA582871E46FB8A72D PUSH1 0x0 SHL PUSH2 0xEE4 JUMP JUMPDEST PUSH1 0x0 PUSH1 0x1 PUSH1 0x0 PUSH1 0x2 PUSH1 0x0 DUP7 PUSH12 0xFFFFFFFFFFFFFFFFFFFFFFFF AND PUSH12 0xFFFFFFFFFFFFFFFFFFFFFFFF AND DUP2 MSTORE PUSH1 0x20 ADD SWAP1 DUP2 MSTORE PUSH1 0x20 ADD PUSH1 0x0 KECCAK256 PUSH1 0x0 SWAP1 SLOAD SWAP1 PUSH2 0x100 EXP SWAP1 DIV PUSH20 0xFFFFFFFFFFFFFFFFFFFFFFFFFFFFFFFFFFFFFFFF AND PUSH20 0xFFFFFFFFFFFFFFFFFFFFFFFFFFFFFFFFFFFFFFFF AND PUSH20 0xFFFFFFFFFFFFFFFFFFFFFFFFFFFFFFFFFFFFFFFF AND DUP2 MSTORE PUSH1 0x20 ADD SWAP1 DUP2 MSTORE PUSH1 0x20 ADD PUSH1 0x0 KECCAK256 PUSH1 0x0 PUSH2 0x100 EXP DUP2 SLOAD DUP2 PUSH12 0xFFFFFFFFFFFFFFFFFFFFFFFF MUL NOT AND SWAP1 DUP4 PUSH12 0xFFFFFFFFFFFFFFFFFFFFFFFF AND MUL OR SWAP1 SSTORE POP PUSH2 0x9A8 JUMP JUMPDEST PUSH2 0x9A7 PUSH32 0x12DB110A8AECE756DC7445FA2255527FA82A7D39E392E622414977D1AF1BE899 PUSH1 0x0 SHL PUSH2 0xEE4 JUMP JUMPDEST JUMPDEST PUSH2 0x9D4 PUSH32 0xF02702F176D212D9041B18A4B2C9AD6C5510E6B51E93E5494811ED97CA653DB2 PUSH1 0x0 SHL PUSH2 0xEE4 JUMP JUMPDEST PUSH2 0xA00 PUSH32 0x9A8D7ACA3D497225675553971CC1EDAC40F15E73110DBE24B12B4AE2161423ED PUSH1 0x0 SHL PUSH2 0xEE4 JUMP JUMPDEST DUP2 PUSH1 0x1 PUSH1 0x0 DUP4 PUSH20 0xFFFFFFFFFFFFFFFFFFFFFFFFFFFFFFFFFFFFFFFF AND PUSH20 0xFFFFFFFFFFFFFFFFFFFFFFFFFFFFFFFFFFFFFFFF AND DUP2 MSTORE PUSH1 0x20 ADD SWAP1 DUP2 MSTORE PUSH1 0x20 ADD PUSH1 0x0 KECCAK256 PUSH1 0x0 PUSH2 0x100 EXP DUP2 SLOAD DUP2 PUSH12 0xFFFFFFFFFFFFFFFFFFFFFFFF MUL NOT AND SWAP1 DUP4 PUSH12 0xFFFFFFFFFFFFFFFFFFFFFFFF AND MUL OR SWAP1 SSTORE POP PUSH2 0xA9A PUSH32 0xE073C0A51D4487A07EFF8A3D08D78B0A3E7AF0B809323172F353051B0442D58F PUSH1 0x0 SHL PUSH2 0xEE4 JUMP JUMPDEST PUSH2 0xAC6 PUSH32 0x9E47071780CFDA485C72CB0AB04DE878B8E8556D838BECE365AD2D19E74C05D7 PUSH1 0x0 SHL PUSH2 0xEE4 JUMP JUMPDEST DUP1 PUSH1 0x2 PUSH1 0x0 DUP5 PUSH12 0xFFFFFFFFFFFFFFFFFFFFFFFF AND PUSH12 0xFFFFFFFFFFFFFFFFFFFFFFFF AND DUP2 MSTORE PUSH1 0x20 ADD SWAP1 DUP2 MSTORE PUSH1 0x20 ADD PUSH1 0x0 KECCAK256 PUSH1 0x0 PUSH2 0x100 EXP DUP2 SLOAD DUP2 PUSH20 0xFFFFFFFFFFFFFFFFFFFFFFFFFFFFFFFFFFFFFFFF MUL NOT AND SWAP1 DUP4 PUSH20 0xFFFFFFFFFFFFFFFFFFFFFFFFFFFFFFFFFFFFFFFF AND MUL OR SWAP1 SSTORE POP POP POP PUSH2 0xB68 JUMP JUMPDEST PUSH2 0xB67 PUSH32 0x5CD8300E65139A446FAEF1B3B5C9EDB79AC86216F7C474B68AB59C3F14ED7650 PUSH1 0x0 SHL PUSH2 0xEE4 JUMP JUMPDEST JUMPDEST PUSH2 0xB94 PUSH32 0x9DF9517F22AE433B898BC032FF553E54FAA09839330C564127CDE13693BEFB0C PUSH1 0x0 SHL PUSH2 0xEE4 JUMP JUMPDEST PUSH2 0xBC0 PUSH32 0x6418AB3EC01D823D3A589032A35240C831FD7F481C725DD70990E51D363BDAE2 PUSH1 0x0 SHL PUSH2 0xEE4 JUMP JUMPDEST PUSH32 0xF7A503E561205D742133BFF2027C118610BB7859D287101E367709CC321F18FD PUSH1 0x40 MLOAD PUSH1 0x40 MLOAD DUP1 SWAP2 SUB SWAP1 LOG1 POP POP POP POP POP JUMP JUMPDEST PUSH1 0x2 PUSH1 0x20 MSTORE DUP1 PUSH1 0x0 MSTORE PUSH1 0x40 PUSH1 0x0 KECCAK256 PUSH1 0x0 SWAP2 POP SLOAD SWAP1 PUSH2 0x100 EXP SWAP1 DIV PUSH20 0xFFFFFFFFFFFFFFFFFFFFFFFFFFFFFFFFFFFFFFFF AND DUP2 JUMP JUMPDEST DUP1 CALLER PUSH2 0xC54 PUSH32 0xEEE757AA1A62AE9FDDFCBBD6A52C1E340DE71789A8BC75950411D24368D65C39 PUSH1 0x0 SHL PUSH2 0xEE4 JUMP JUMPDEST PUSH2 0xC80 PUSH32 0x2682538D9C53006CEE17182602A91F00A5106D8BB7E87BFA83865F3790EA8197 PUSH1 0x0 SHL PUSH2 0xEE4 JUMP JUMPDEST PUSH2 0xCAC PUSH32 0x53B8412E1D28F204731848368791C6ED8CD8697FED7898191807337C3FDDD1CD PUSH1 0x0 SHL PUSH2 0xEE4 JUMP JUMPDEST PUSH2 0xCD8 PUSH32 0x4BE5ADF450F18893F1E804E9AB0D281D7259D8175FB8AE7A96856ECC7119640C PUSH1 0x0 SHL PUSH2 0xEE4 JUMP JUMPDEST DUP1 PUSH20 0xFFFFFFFFFFFFFFFFFFFFFFFFFFFFFFFFFFFFFFFF AND PUSH1 0x2 PUSH1 0x0 DUP5 PUSH12 0xFFFFFFFFFFFFFFFFFFFFFFFF AND PUSH12 0xFFFFFFFFFFFFFFFFFFFFFFFF AND DUP2 MSTORE PUSH1 0x20 ADD SWAP1 DUP2 MSTORE PUSH1 0x20 ADD PUSH1 0x0 KECCAK256 PUSH1 0x0 SWAP1 SLOAD SWAP1 PUSH2 0x100 EXP SWAP1 DIV PUSH20 0xFFFFFFFFFFFFFFFFFFFFFFFFFFFFFFFFFFFFFFFF AND PUSH20 0xFFFFFFFFFFFFFFFFFFFFFFFFFFFFFFFFFFFFFFFF AND EQ PUSH2 0xD95 JUMPI PUSH1 0x40 MLOAD PUSH32 0x8C379A000000000000000000000000000000000000000000000000000000000 DUP2 MSTORE PUSH1 0x4 ADD PUSH2 0xD8C SWAP1 PUSH2 0x11AF JUMP JUMPDEST PUSH1 0x40 MLOAD DUP1 SWAP2 SUB SWAP1 REVERT JUMPDEST PUSH2 0xDC1 PUSH32 0x12F9014E6BA47E26E8C72FBA9BA21F789E6EB550FEE6B9E0A2E11BB8F20A1D0B PUSH1 0x0 SHL PUSH2 0xEE4 JUMP JUMPDEST PUSH2 0xDED PUSH32 0x419EB345E97A661AE1D6F35D6ECC295BDD711CFEEB232A7EA37550364C45CCDD PUSH1 0x0 SHL PUSH2 0xEE4 JUMP JUMPDEST PUSH2 0xE19 PUSH32 0x928984F7CE389A36A282CC62C827B6EE92BDFA160B8BC1E5759AD95DDAEDA079 PUSH1 0x0 SHL PUSH2 0xEE4 JUMP JUMPDEST PUSH2 0xE45 PUSH32 0x41EF4EA5B7E31AF281EFA2CD53E640FB4C54BB0AC134006996E31A3F8A40311D PUSH1 0x0 SHL PUSH2 0xEE4 JUMP JUMPDEST PUSH2 0xE71 PUSH32 0x142C4D77B54E48D006AB02E0DA30FCD686E67AE4375F0CA3CE1C89DC2ABFB92D PUSH1 0x0 SHL PUSH2 0xEE4 JUMP JUMPDEST DUP3 PUSH1 0x1 PUSH1 0x0 CALLER PUSH20 0xFFFFFFFFFFFFFFFFFFFFFFFFFFFFFFFFFFFFFFFF AND PUSH20 0xFFFFFFFFFFFFFFFFFFFFFFFFFFFFFFFFFFFFFFFF AND DUP2 MSTORE PUSH1 0x20 ADD SWAP1 DUP2 MSTORE PUSH1 0x20 ADD PUSH1 0x0 KECCAK256 PUSH1 0x0 PUSH2 0x100 EXP DUP2 SLOAD DUP2 PUSH12 0xFFFFFFFFFFFFFFFFFFFFFFFF MUL NOT AND SWAP1 DUP4 PUSH12 0xFFFFFFFFFFFFFFFFFFFFFFFF AND MUL OR SWAP1 SSTORE POP POP POP POP JUMP JUMPDEST POP JUMP JUMPDEST PUSH1 0x0 DUP1 REVERT JUMPDEST PUSH1 0x0 DUP2 SWAP1 POP SWAP2 SWAP1 POP JUMP JUMPDEST PUSH2 0xEFF DUP2 PUSH2 0xEEC JUMP JUMPDEST DUP2 EQ PUSH2 0xF0A JUMPI PUSH1 0x0 DUP1 REVERT JUMPDEST POP JUMP JUMPDEST PUSH1 0x0 DUP2 CALLDATALOAD SWAP1 POP PUSH2 0xF1C DUP2 PUSH2 0xEF6 JUMP JUMPDEST SWAP3 SWAP2 POP POP JUMP JUMPDEST PUSH1 0x0 PUSH1 0x20 DUP3 DUP5 SUB SLT ISZERO PUSH2 0xF38 JUMPI PUSH2 0xF37 PUSH2 0xEE7 JUMP JUMPDEST JUMPDEST PUSH1 0x0 PUSH2 0xF46 DUP5 DUP3 DUP6 ADD PUSH2 0xF0D JUMP JUMPDEST SWAP2 POP POP SWAP3 SWAP2 POP POP JUMP JUMPDEST PUSH1 0x0 PUSH20 0xFFFFFFFFFFFFFFFFFFFFFFFFFFFFFFFFFFFFFFFF DUP3 AND SWAP1 POP SWAP2 SWAP1 POP JUMP JUMPDEST PUSH1 0x0 PUSH2 0xF7A DUP3 PUSH2 0xF4F JUMP JUMPDEST SWAP1 POP SWAP2 SWAP1 POP JUMP JUMPDEST PUSH2 0xF8A DUP2 PUSH2 0xF6F JUMP JUMPDEST DUP2 EQ PUSH2 0xF95 JUMPI PUSH1 0x0 DUP1 REVERT JUMPDEST POP JUMP JUMPDEST PUSH1 0x0 DUP2 CALLDATALOAD SWAP1 POP PUSH2 0xFA7 DUP2 PUSH2 0xF81 JUMP JUMPDEST SWAP3 SWAP2 POP POP JUMP JUMPDEST PUSH1 0x0 PUSH1 0x20 DUP3 DUP5 SUB SLT ISZERO PUSH2 0xFC3 JUMPI PUSH2 0xFC2 PUSH2 0xEE7 JUMP JUMPDEST JUMPDEST PUSH1 0x0 PUSH2 0xFD1 DUP5 DUP3 DUP6 ADD PUSH2 0xF98 JUMP JUMPDEST SWAP2 POP POP SWAP3 SWAP2 POP POP JUMP JUMPDEST PUSH1 0x0 PUSH12 0xFFFFFFFFFFFFFFFFFFFFFFFF DUP3 AND SWAP1 POP SWAP2 SWAP1 POP JUMP JUMPDEST PUSH2 0xFFB DUP2 PUSH2 0xFDA JUMP JUMPDEST DUP3 MSTORE POP POP JUMP JUMPDEST PUSH1 0x0 PUSH1 0x20 DUP3 ADD SWAP1 POP PUSH2 0x1016 PUSH1 0x0 DUP4 ADD DUP5 PUSH2 0xFF2 JUMP JUMPDEST SWAP3 SWAP2 POP POP JUMP JUMPDEST PUSH2 0x1025 DUP2 PUSH2 0xEEC JUMP JUMPDEST DUP3 MSTORE POP POP JUMP JUMPDEST PUSH1 0x0 PUSH1 0x20 DUP3 ADD SWAP1 POP PUSH2 0x1040 PUSH1 0x0 DUP4 ADD DUP5 PUSH2 0x101C JUMP JUMPDEST SWAP3 SWAP2 POP POP JUMP JUMPDEST PUSH2 0x104F DUP2 PUSH2 0xFDA JUMP JUMPDEST DUP2 EQ PUSH2 0x105A JUMPI PUSH1 0x0 DUP1 REVERT JUMPDEST POP JUMP JUMPDEST PUSH1 0x0 DUP2 CALLDATALOAD SWAP1 POP PUSH2 0x106C DUP2 PUSH2 0x1046 JUMP JUMPDEST SWAP3 SWAP2 POP POP JUMP JUMPDEST PUSH1 0x0 PUSH1 0x20 DUP3 DUP5 SUB SLT ISZERO PUSH2 0x1088 JUMPI PUSH2 0x1087 PUSH2 0xEE7 JUMP JUMPDEST JUMPDEST PUSH1 0x0 PUSH2 0x1096 DUP5 DUP3 DUP6 ADD PUSH2 0x105D JUMP JUMPDEST SWAP2 POP POP SWAP3 SWAP2 POP POP JUMP JUMPDEST PUSH2 0x10A8 DUP2 PUSH2 0xF6F JUMP JUMPDEST DUP3 MSTORE POP POP JUMP JUMPDEST PUSH1 0x0 PUSH1 0x20 DUP3 ADD SWAP1 POP PUSH2 0x10C3 PUSH1 0x0 DUP4 ADD DUP5 PUSH2 0x109F JUMP JUMPDEST SWAP3 SWAP2 POP POP JUMP JUMPDEST PUSH32 0x4E487B7100000000000000000000000000000000000000000000000000000000 PUSH1 0x0 MSTORE PUSH1 0x11 PUSH1 0x4 MSTORE PUSH1 0x24 PUSH1 0x0 REVERT JUMPDEST PUSH1 0x0 PUSH2 0x1103 DUP3 PUSH2 0xEEC JUMP JUMPDEST SWAP2 POP PUSH2 0x110E DUP4 PUSH2 0xEEC JUMP JUMPDEST SWAP3 POP DUP3 DUP3 ADD SWAP1 POP DUP1 DUP3 GT ISZERO PUSH2 0x1126 JUMPI PUSH2 0x1125 PUSH2 0x10C9 JUMP JUMPDEST JUMPDEST SWAP3 SWAP2 POP POP JUMP JUMPDEST PUSH1 0x0 DUP3 DUP3 MSTORE PUSH1 0x20 DUP3 ADD SWAP1 POP SWAP3 SWAP2 POP POP JUMP JUMPDEST PUSH32 0x596F752068617665206E6F742076657269666965642074686973205477697474 PUSH1 0x0 DUP3 ADD MSTORE PUSH32 0x6572204944207769746820796F7572206163636F756E74207965742E00000000 PUSH1 0x20 DUP3 ADD MSTORE POP JUMP JUMPDEST PUSH1 0x0 PUSH2 0x1199 PUSH1 0x3C DUP4 PUSH2 0x112C JUMP JUMPDEST SWAP2 POP PUSH2 0x11A4 DUP3 PUSH2 0x113D JUMP JUMPDEST PUSH1 0x40 DUP3 ADD SWAP1 POP SWAP2 SWAP1 POP JUMP JUMPDEST PUSH1 0x0 PUSH1 0x20 DUP3 ADD SWAP1 POP DUP2 DUP2 SUB PUSH1 0x0 DUP4 ADD MSTORE PUSH2 0x11C8 DUP2 PUSH2 0x118C JUMP JUMPDEST SWAP1 POP SWAP2 SWAP1 POP JUMP INVALID LOG2 PUSH5 0x6970667358 0x22 SLT KECCAK256 MUL SGT EXTCODESIZE 0xB4 0xC0 DUP4 CALLVALUE 0xC7 0xEA 0xE1 0xB5 PUSH21 0xDD343799E5D7818391086F56C5F2F2F5D833F7A264 PUSH20 0x6F6C634300081000330000000000000000000000 "
        },
        "methodIdentifiers": {
          "addressTwitterID(address)": "68466b4b",
          "isTwitterAddressMatching()": "88e76d2b",
          "mockFulfillResponse(uint256)": "3cdc16a6",
          "requestTweetAddressCompare(uint96)": "ce1907df",
          "resolveToTwitterID(uint96)": "dceb828e",
          "twitterIDaddress(uint96)": "cf154b1f"
        }
      }
    }
  }
}