{
  "contracts/MockFaucet.sol": {
    "mockFaucetLINK": {
      "abi": [
        {
          "inputs": [
            {
              "internalType": "address",
              "name": "_token",
              "type": "address"
            }
          ],
          "stateMutability": "nonpayable",
          "type": "constructor"
        },
        {
          "anonymous": false,
          "inputs": [],
          "name": "faucetWithdraw",
          "type": "event"
        },
        {
          "inputs": [],
          "name": "relayAddress",
          "outputs": [
            {
              "internalType": "address",
              "name": "",
              "type": "address"
            }
          ],
          "stateMutability": "view",
          "type": "function"
        },
        {
          "inputs": [
            {
              "internalType": "address",
              "name": "",
              "type": "address"
            }
          ],
          "name": "userPreviousWithdrawTime",
          "outputs": [
            {
              "internalType": "uint256",
              "name": "",
              "type": "uint256"
            }
          ],
          "stateMutability": "view",
          "type": "function"
        },
        {
          "inputs": [],
          "name": "withdrawDirect",
          "outputs": [],
          "stateMutability": "nonpayable",
          "type": "function"
        },
        {
          "inputs": [
            {
              "internalType": "address",
              "name": "relayCaller",
              "type": "address"
            }
          ],
          "name": "withdrawRelay",
          "outputs": [],
          "stateMutability": "nonpayable",
          "type": "function"
        }
      ],
      "evm": {
        "bytecode": {
          "linkReferences": {},
          "object": "60a06040523480156200001157600080fd5b506040516200155738038062001557833981810160405281019062000037919062000223565b6200006b7fd17d81f0bfe38ef598c5b5326686b3b841bb8fb64a9ef291aef1633d555d1c1d60001b620001b660201b60201c565b6200009f7f09b4cc3fe9e01108b92bbe7cfc4d59c5de0accd1c659474ee733dd7005e3636d60001b620001b660201b60201c565b620000d37f5cfd35715a56e5073f91fee7a1ddbdd786c98cc90b6b0dafa74d65dc3ba5e3f060001b620001b660201b60201c565b3373ffffffffffffffffffffffffffffffffffffffff1660808173ffffffffffffffffffffffffffffffffffffffff16815250506200013b7fcfcd532b76d6d992505e921f1720d38a016a323952e4a5214ef34fbb3933f33360001b620001b660201b60201c565b6200016f7f1354b2a03885f407a17ad563e60adab1d79eaca89a9669a724527f14044b88ee60001b620001b660201b60201c565b806000806101000a81548173ffffffffffffffffffffffffffffffffffffffff021916908373ffffffffffffffffffffffffffffffffffffffff1602179055505062000255565b50565b600080fd5b600073ffffffffffffffffffffffffffffffffffffffff82169050919050565b6000620001eb82620001be565b9050919050565b620001fd81620001de565b81146200020957600080fd5b50565b6000815190506200021d81620001f2565b92915050565b6000602082840312156200023c576200023b620001b9565b5b60006200024c848285016200020c565b91505092915050565b6080516112df6200027860003960008181610177015261083001526112df6000f3fe608060405234801561001057600080fd5b506004361061004c5760003560e01c80637cc201d2146100515780638a6481841461006d578063b4c3f1171461008b578063e0533ecb146100bb575b600080fd5b61006b60048036038101906100669190610ea2565b6100c5565b005b61007561082e565b6040516100829190610ede565b60405180910390f35b6100a560048036038101906100a09190610ea2565b610852565b6040516100b29190610f12565b60405180910390f35b6100c361086a565b005b6100f17f09834eeb7d9a875992a97e4461fd17ebb34839dc8568839cd7ba3e484372af2560001b610e3c565b61011d7f1bc4a90ad555e49d4c7301c59757a70833a525851be49a991586d1fe2d84dab860001b610e3c565b6101497f9cf1c65ca4da2a94c6e5c356ef6c6fcd2f059c19eb42f2dd581c7605bdeac70c60001b610e3c565b6101757fb790f339a0d8f06db97c2c8f1e7f4cc3eb78208bdb9a1e98953fb8fd5cdcea1460001b610e3c565b7f000000000000000000000000000000000000000000000000000000000000000073ffffffffffffffffffffffffffffffffffffffff163373ffffffffffffffffffffffffffffffffffffffff1614610203576040517f08c379a00000000000000000000000000000000000000000000000000000000081526004016101fa90610fb0565b60405180910390fd5b61022f7ff16b1183cb642f6b1eb2140cba9df14cdc7f311995b9b744979d93addaba265e60001b610e3c565b61025b7f57918b59776cb7bdcd583d588c6e056c4b9ef41b8cfcba73d7412ddae1c7f0e360001b610e3c565b6102877f25a6ba64ebccf68f4eab481d2c7a6fe5e412218586eba08e6793c5fe87ac748960001b610e3c565b6102b37fa0bbfedd8bc1b13be068259df7df5bcaba4dbcc98f3be22220ca34214bab9c7360001b610e3c565b6102df7f30c158bf52d35c6c40ff50d425d3550f9554a353555c5dac77a3b1cdabdbbbb660001b610e3c565b61030b7f2513955287913bb10d025d4b26f7b19ed9de5634b0dbc412ed71a6274a893ee760001b610e3c565b6801158e460913d0000060008054906101000a900473ffffffffffffffffffffffffffffffffffffffff1673ffffffffffffffffffffffffffffffffffffffff166370a08231306040518263ffffffff1660e01b815260040161036e9190610ede565b602060405180830381865afa15801561038b573d6000803e3d6000fd5b505050506040513d601f19601f820116820180604052508101906103af9190610ffc565b10156103f0576040517f08c379a00000000000000000000000000000000000000000000000000000000081526004016103e7906110c1565b60405180910390fd5b61041c7fa161396d893f1accbdd976de90551b313a99f9b94c309e21ac442b57e04ee0be60001b610e3c565b6104487f5e14b81eca0794dd5cb77e7aa4fcf81086f8482d332e58ce21c72acd1679b84960001b610e3c565b806104757fbb22b343107e9a21fe371dc23b13dd3b579e57d3550ed5932194e943d5acbca760001b610e3c565b6104a17f0d85c495f738159b700029628178b98b37b46f6e66d1da25422b5f1d75d9f12f60001b610e3c565b6104cd7ff0467ff5dccba3604370e67c63d0dd88574382947f5e50a4253ff8ff0d5e6bbe60001b610e3c565b6104f87e67ef551efd75d75c1476147c60379e89c330e85ebac98c1ffb00bc4d78a6a160001b610e3c565b61a8c0600160008373ffffffffffffffffffffffffffffffffffffffff1673ffffffffffffffffffffffffffffffffffffffff168152602001908152602001600020546105459190611110565b4211610586576040517f08c379a000000000000000000000000000000000000000000000000000000000815260040161057d906111b6565b60405180910390fd5b6105b27fd8747278c5ba7074695cddda7a3b2bd41ae2e8da4a83dbfbc28a64857f09059760001b610e3c565b6105de7f16e4164a2b225254119722fc2dae5516eff578a90ff5535881b6b0d24e84255f60001b610e3c565b61060a7f6671f58e3c33577f458b94f40d0c50258961c8ba91167fb0f623c8daac000ced60001b610e3c565b6106367f2af909d5e490d6188bc178653dd692e3aaad061a5e71d8bf7c6e6ebb5beefd9060001b610e3c565b6106627febcb22b55e6f639fef3dc5623fea7a2656c36db657381bd33973ef85324caca160001b610e3c565b42600160008473ffffffffffffffffffffffffffffffffffffffff1673ffffffffffffffffffffffffffffffffffffffff168152602001908152602001600020819055506106d27f599f7ddc83687fe370612561a72db7d7d4a0d57967a8a485982ae651417eee2c60001b610e3c565b6106fe7f7a4aeed02a1e105e2a2f7d7bc9eadf5dbd5b38de14fb09d8ae5a8c74682f380360001b610e3c565b60008054906101000a900473ffffffffffffffffffffffffffffffffffffffff1673ffffffffffffffffffffffffffffffffffffffff1663a9059cbb836801158e460913d000006040518363ffffffff1660e01b815260040161076292919061121b565b6020604051808303816000875af1158015610781573d6000803e3d6000fd5b505050506040513d601f19601f820116820180604052508101906107a5919061127c565b506107d27fa41c26ae6d5292ad82dcc44e2c95c68c9693479a78d511fe00df2c6742c5d48b60001b610e3c565b6107fe7fe27df01dd15ff16664188dd065081bc0d7273728448b24bf76287a46e724066660001b610e3c565b7ffa247eeb36d2dfb6c2ffb4f9e4cb0dbec2ee9675e3c55b944d1782cbc905e2d560405160405180910390a15050565b7f000000000000000000000000000000000000000000000000000000000000000081565b60016020528060005260406000206000915090505481565b6108967f25a6ba64ebccf68f4eab481d2c7a6fe5e412218586eba08e6793c5fe87ac748960001b610e3c565b6108c27fa0bbfedd8bc1b13be068259df7df5bcaba4dbcc98f3be22220ca34214bab9c7360001b610e3c565b6108ee7f30c158bf52d35c6c40ff50d425d3550f9554a353555c5dac77a3b1cdabdbbbb660001b610e3c565b61091a7f2513955287913bb10d025d4b26f7b19ed9de5634b0dbc412ed71a6274a893ee760001b610e3c565b6801158e460913d0000060008054906101000a900473ffffffffffffffffffffffffffffffffffffffff1673ffffffffffffffffffffffffffffffffffffffff166370a08231306040518263ffffffff1660e01b815260040161097d9190610ede565b602060405180830381865afa15801561099a573d6000803e3d6000fd5b505050506040513d601f19601f820116820180604052508101906109be9190610ffc565b10156109ff576040517f08c379a00000000000000000000000000000000000000000000000000000000081526004016109f6906110c1565b60405180910390fd5b610a2b7fa161396d893f1accbdd976de90551b313a99f9b94c309e21ac442b57e04ee0be60001b610e3c565b610a577f5e14b81eca0794dd5cb77e7aa4fcf81086f8482d332e58ce21c72acd1679b84960001b610e3c565b33610a847fbb22b343107e9a21fe371dc23b13dd3b579e57d3550ed5932194e943d5acbca760001b610e3c565b610ab07f0d85c495f738159b700029628178b98b37b46f6e66d1da25422b5f1d75d9f12f60001b610e3c565b610adc7ff0467ff5dccba3604370e67c63d0dd88574382947f5e50a4253ff8ff0d5e6bbe60001b610e3c565b610b077e67ef551efd75d75c1476147c60379e89c330e85ebac98c1ffb00bc4d78a6a160001b610e3c565b61a8c0600160008373ffffffffffffffffffffffffffffffffffffffff1673ffffffffffffffffffffffffffffffffffffffff16815260200190815260200160002054610b549190611110565b4211610b95576040517f08c379a0000000000000000000000000000000000000000000000000000000008152600401610b8c906111b6565b60405180910390fd5b610bc17fd8747278c5ba7074695cddda7a3b2bd41ae2e8da4a83dbfbc28a64857f09059760001b610e3c565b610bed7f16e4164a2b225254119722fc2dae5516eff578a90ff5535881b6b0d24e84255f60001b610e3c565b610c197fb5bf0ca0e31d7b25b92fdb846baea372718ce5ee5e1062f00241b219dc10c07060001b610e3c565b610c457fdf9c35654baae2fb82d2bc461f03bfce3c38f19487f5f938f135f4fb7db5688d60001b610e3c565b610c717f7847dba4f9098f4d911e519b5f3b14927868ffcdfa4021fd2c12e3530db41c2f60001b610e3c565b42600160003373ffffffffffffffffffffffffffffffffffffffff1673ffffffffffffffffffffffffffffffffffffffff16815260200190815260200160002081905550610ce17f46fb42bd47c33180912a60a6249aceafa55ad2719ab8273c545a7d572b268b2360001b610e3c565b610d0d7f8af1623a345a87ef9d48ed362daa4c31cb4fecb8950d20b1cd91e74c0ce21bf960001b610e3c565b60008054906101000a900473ffffffffffffffffffffffffffffffffffffffff1673ffffffffffffffffffffffffffffffffffffffff1663a9059cbb336801158e460913d000006040518363ffffffff1660e01b8152600401610d7192919061121b565b6020604051808303816000875af1158015610d90573d6000803e3d6000fd5b505050506040513d601f19601f82011682018060405250810190610db4919061127c565b50610de17fb05a60f7e020c7b6b2a266a5ad4ab8efa2afac542e7869358cf949071e23feab60001b610e3c565b610e0d7fef22b6586e319ef650d75ba0b3e899db5c8cc0467ed64a0381c81875e6b5b60a60001b610e3c565b7ffa247eeb36d2dfb6c2ffb4f9e4cb0dbec2ee9675e3c55b944d1782cbc905e2d560405160405180910390a150565b50565b600080fd5b600073ffffffffffffffffffffffffffffffffffffffff82169050919050565b6000610e6f82610e44565b9050919050565b610e7f81610e64565b8114610e8a57600080fd5b50565b600081359050610e9c81610e76565b92915050565b600060208284031215610eb857610eb7610e3f565b5b6000610ec684828501610e8d565b91505092915050565b610ed881610e64565b82525050565b6000602082019050610ef36000830184610ecf565b92915050565b6000819050919050565b610f0c81610ef9565b82525050565b6000602082019050610f276000830184610f03565b92915050565b600082825260208201905092915050565b7f4f6e6c79207468652072656c617920616464726573732063616e20616363657360008201527f7320746869732066756e6374696f6e2e00000000000000000000000000000000602082015250565b6000610f9a603083610f2d565b9150610fa582610f3e565b604082019050919050565b60006020820190508181036000830152610fc981610f8d565b9050919050565b610fd981610ef9565b8114610fe457600080fd5b50565b600081519050610ff681610fd0565b92915050565b60006020828403121561101257611011610e3f565b5b600061102084828501610fe7565b91505092915050565b7f46617563657420646f6573206e6f74206861766520616e79206d6f7265204c4960008201527f4e4b2028686173206c657373207468616e203230204c494e4b2063757272656e60208201527f746c79292e000000000000000000000000000000000000000000000000000000604082015250565b60006110ab604583610f2d565b91506110b682611029565b606082019050919050565b600060208201905081810360008301526110da8161109e565b9050919050565b7f4e487b7100000000000000000000000000000000000000000000000000000000600052601160045260246000fd5b600061111b82610ef9565b915061112683610ef9565b925082820190508082111561113e5761113d6110e1565b5b92915050565b7f43757272656e742075736572206d757374207761697420313220686f7572732060008201527f666f722066617563657420636f6f6c646f776e2e000000000000000000000000602082015250565b60006111a0603483610f2d565b91506111ab82611144565b604082019050919050565b600060208201905081810360008301526111cf81611193565b9050919050565b6000819050919050565b6000819050919050565b60006112056112006111fb846111d6565b6111e0565b610ef9565b9050919050565b611215816111ea565b82525050565b60006040820190506112306000830185610ecf565b61123d602083018461120c565b9392505050565b60008115159050919050565b61125981611244565b811461126457600080fd5b50565b60008151905061127681611250565b92915050565b60006020828403121561129257611291610e3f565b5b60006112a084828501611267565b9150509291505056fea2646970667358221220ee5ce64d5ee44b9cb96db4db33eba9fb981f7688858e176fe1f41216f799025164736f6c63430008100033",
          "opcodes": "PUSH1 0xA0 PUSH1 0x40 MSTORE CALLVALUE DUP1 ISZERO PUSH3 0x11 JUMPI PUSH1 0x0 DUP1 REVERT JUMPDEST POP PUSH1 0x40 MLOAD PUSH3 0x1557 CODESIZE SUB DUP1 PUSH3 0x1557 DUP4 CODECOPY DUP2 DUP2 ADD PUSH1 0x40 MSTORE DUP2 ADD SWAP1 PUSH3 0x37 SWAP2 SWAP1 PUSH3 0x223 JUMP JUMPDEST PUSH3 0x6B PUSH32 0xD17D81F0BFE38EF598C5B5326686B3B841BB8FB64A9EF291AEF1633D555D1C1D PUSH1 0x0 SHL PUSH3 0x1B6 PUSH1 0x20 SHL PUSH1 0x20 SHR JUMP JUMPDEST PUSH3 0x9F PUSH32 0x9B4CC3FE9E01108B92BBE7CFC4D59C5DE0ACCD1C659474EE733DD7005E3636D PUSH1 0x0 SHL PUSH3 0x1B6 PUSH1 0x20 SHL PUSH1 0x20 SHR JUMP JUMPDEST PUSH3 0xD3 PUSH32 0x5CFD35715A56E5073F91FEE7A1DDBDD786C98CC90B6B0DAFA74D65DC3BA5E3F0 PUSH1 0x0 SHL PUSH3 0x1B6 PUSH1 0x20 SHL PUSH1 0x20 SHR JUMP JUMPDEST CALLER PUSH20 0xFFFFFFFFFFFFFFFFFFFFFFFFFFFFFFFFFFFFFFFF AND PUSH1 0x80 DUP2 PUSH20 0xFFFFFFFFFFFFFFFFFFFFFFFFFFFFFFFFFFFFFFFF AND DUP2 MSTORE POP POP PUSH3 0x13B PUSH32 0xCFCD532B76D6D992505E921F1720D38A016A323952E4A5214EF34FBB3933F333 PUSH1 0x0 SHL PUSH3 0x1B6 PUSH1 0x20 SHL PUSH1 0x20 SHR JUMP JUMPDEST PUSH3 0x16F PUSH32 0x1354B2A03885F407A17AD563E60ADAB1D79EACA89A9669A724527F14044B88EE PUSH1 0x0 SHL PUSH3 0x1B6 PUSH1 0x20 SHL PUSH1 0x20 SHR JUMP JUMPDEST DUP1 PUSH1 0x0 DUP1 PUSH2 0x100 EXP DUP2 SLOAD DUP2 PUSH20 0xFFFFFFFFFFFFFFFFFFFFFFFFFFFFFFFFFFFFFFFF MUL NOT AND SWAP1 DUP4 PUSH20 0xFFFFFFFFFFFFFFFFFFFFFFFFFFFFFFFFFFFFFFFF AND MUL OR SWAP1 SSTORE POP POP PUSH3 0x255 JUMP JUMPDEST POP JUMP JUMPDEST PUSH1 0x0 DUP1 REVERT JUMPDEST PUSH1 0x0 PUSH20 0xFFFFFFFFFFFFFFFFFFFFFFFFFFFFFFFFFFFFFFFF DUP3 AND SWAP1 POP SWAP2 SWAP1 POP JUMP JUMPDEST PUSH1 0x0 PUSH3 0x1EB DUP3 PUSH3 0x1BE JUMP JUMPDEST SWAP1 POP SWAP2 SWAP1 POP JUMP JUMPDEST PUSH3 0x1FD DUP2 PUSH3 0x1DE JUMP JUMPDEST DUP2 EQ PUSH3 0x209 JUMPI PUSH1 0x0 DUP1 REVERT JUMPDEST POP JUMP JUMPDEST PUSH1 0x0 DUP2 MLOAD SWAP1 POP PUSH3 0x21D DUP2 PUSH3 0x1F2 JUMP JUMPDEST SWAP3 SWAP2 POP POP JUMP JUMPDEST PUSH1 0x0 PUSH1 0x20 DUP3 DUP5 SUB SLT ISZERO PUSH3 0x23C JUMPI PUSH3 0x23B PUSH3 0x1B9 JUMP JUMPDEST JUMPDEST PUSH1 0x0 PUSH3 0x24C DUP5 DUP3 DUP6 ADD PUSH3 0x20C JUMP JUMPDEST SWAP2 POP POP SWAP3 SWAP2 POP POP JUMP JUMPDEST PUSH1 0x80 MLOAD PUSH2 0x12DF PUSH3 0x278 PUSH1 0x0 CODECOPY PUSH1 0x0 DUP2 DUP2 PUSH2 0x177 ADD MSTORE PUSH2 0x830 ADD MSTORE PUSH2 0x12DF PUSH1 0x0 RETURN INVALID PUSH1 0x80 PUSH1 0x40 MSTORE CALLVALUE DUP1 ISZERO PUSH2 0x10 JUMPI PUSH1 0x0 DUP1 REVERT JUMPDEST POP PUSH1 0x4 CALLDATASIZE LT PUSH2 0x4C JUMPI PUSH1 0x0 CALLDATALOAD PUSH1 0xE0 SHR DUP1 PUSH4 0x7CC201D2 EQ PUSH2 0x51 JUMPI DUP1 PUSH4 0x8A648184 EQ PUSH2 0x6D JUMPI DUP1 PUSH4 0xB4C3F117 EQ PUSH2 0x8B JUMPI DUP1 PUSH4 0xE0533ECB EQ PUSH2 0xBB JUMPI JUMPDEST PUSH1 0x0 DUP1 REVERT JUMPDEST PUSH2 0x6B PUSH1 0x4 DUP1 CALLDATASIZE SUB DUP2 ADD SWAP1 PUSH2 0x66 SWAP2 SWAP1 PUSH2 0xEA2 JUMP JUMPDEST PUSH2 0xC5 JUMP JUMPDEST STOP JUMPDEST PUSH2 0x75 PUSH2 0x82E JUMP JUMPDEST PUSH1 0x40 MLOAD PUSH2 0x82 SWAP2 SWAP1 PUSH2 0xEDE JUMP JUMPDEST PUSH1 0x40 MLOAD DUP1 SWAP2 SUB SWAP1 RETURN JUMPDEST PUSH2 0xA5 PUSH1 0x4 DUP1 CALLDATASIZE SUB DUP2 ADD SWAP1 PUSH2 0xA0 SWAP2 SWAP1 PUSH2 0xEA2 JUMP JUMPDEST PUSH2 0x852 JUMP JUMPDEST PUSH1 0x40 MLOAD PUSH2 0xB2 SWAP2 SWAP1 PUSH2 0xF12 JUMP JUMPDEST PUSH1 0x40 MLOAD DUP1 SWAP2 SUB SWAP1 RETURN JUMPDEST PUSH2 0xC3 PUSH2 0x86A JUMP JUMPDEST STOP JUMPDEST PUSH2 0xF1 PUSH32 0x9834EEB7D9A875992A97E4461FD17EBB34839DC8568839CD7BA3E484372AF25 PUSH1 0x0 SHL PUSH2 0xE3C JUMP JUMPDEST PUSH2 0x11D PUSH32 0x1BC4A90AD555E49D4C7301C59757A70833A525851BE49A991586D1FE2D84DAB8 PUSH1 0x0 SHL PUSH2 0xE3C JUMP JUMPDEST PUSH2 0x149 PUSH32 0x9CF1C65CA4DA2A94C6E5C356EF6C6FCD2F059C19EB42F2DD581C7605BDEAC70C PUSH1 0x0 SHL PUSH2 0xE3C JUMP JUMPDEST PUSH2 0x175 PUSH32 0xB790F339A0D8F06DB97C2C8F1E7F4CC3EB78208BDB9A1E98953FB8FD5CDCEA14 PUSH1 0x0 SHL PUSH2 0xE3C JUMP JUMPDEST PUSH32 0x0 PUSH20 0xFFFFFFFFFFFFFFFFFFFFFFFFFFFFFFFFFFFFFFFF AND CALLER PUSH20 0xFFFFFFFFFFFFFFFFFFFFFFFFFFFFFFFFFFFFFFFF AND EQ PUSH2 0x203 JUMPI PUSH1 0x40 MLOAD PUSH32 0x8C379A000000000000000000000000000000000000000000000000000000000 DUP2 MSTORE PUSH1 0x4 ADD PUSH2 0x1FA SWAP1 PUSH2 0xFB0 JUMP JUMPDEST PUSH1 0x40 MLOAD DUP1 SWAP2 SUB SWAP1 REVERT JUMPDEST PUSH2 0x22F PUSH32 0xF16B1183CB642F6B1EB2140CBA9DF14CDC7F311995B9B744979D93ADDABA265E PUSH1 0x0 SHL PUSH2 0xE3C JUMP JUMPDEST PUSH2 0x25B PUSH32 0x57918B59776CB7BDCD583D588C6E056C4B9EF41B8CFCBA73D7412DDAE1C7F0E3 PUSH1 0x0 SHL PUSH2 0xE3C JUMP JUMPDEST PUSH2 0x287 PUSH32 0x25A6BA64EBCCF68F4EAB481D2C7A6FE5E412218586EBA08E6793C5FE87AC7489 PUSH1 0x0 SHL PUSH2 0xE3C JUMP JUMPDEST PUSH2 0x2B3 PUSH32 0xA0BBFEDD8BC1B13BE068259DF7DF5BCABA4DBCC98F3BE22220CA34214BAB9C73 PUSH1 0x0 SHL PUSH2 0xE3C JUMP JUMPDEST PUSH2 0x2DF PUSH32 0x30C158BF52D35C6C40FF50D425D3550F9554A353555C5DAC77A3B1CDABDBBBB6 PUSH1 0x0 SHL PUSH2 0xE3C JUMP JUMPDEST PUSH2 0x30B PUSH32 0x2513955287913BB10D025D4B26F7B19ED9DE5634B0DBC412ED71A6274A893EE7 PUSH1 0x0 SHL PUSH2 0xE3C JUMP JUMPDEST PUSH9 0x1158E460913D00000 PUSH1 0x0 DUP1 SLOAD SWAP1 PUSH2 0x100 EXP SWAP1 DIV PUSH20 0xFFFFFFFFFFFFFFFFFFFFFFFFFFFFFFFFFFFFFFFF AND PUSH20 0xFFFFFFFFFFFFFFFFFFFFFFFFFFFFFFFFFFFFFFFF AND PUSH4 0x70A08231 ADDRESS PUSH1 0x40 MLOAD DUP3 PUSH4 0xFFFFFFFF AND PUSH1 0xE0 SHL DUP2 MSTORE PUSH1 0x4 ADD PUSH2 0x36E SWAP2 SWAP1 PUSH2 0xEDE JUMP JUMPDEST PUSH1 0x20 PUSH1 0x40 MLOAD DUP1 DUP4 SUB DUP2 DUP7 GAS STATICCALL ISZERO DUP1 ISZERO PUSH2 0x38B JUMPI RETURNDATASIZE PUSH1 0x0 DUP1 RETURNDATACOPY RETURNDATASIZE PUSH1 0x0 REVERT JUMPDEST POP POP POP POP PUSH1 0x40 MLOAD RETURNDATASIZE PUSH1 0x1F NOT PUSH1 0x1F DUP3 ADD AND DUP3 ADD DUP1 PUSH1 0x40 MSTORE POP DUP2 ADD SWAP1 PUSH2 0x3AF SWAP2 SWAP1 PUSH2 0xFFC JUMP JUMPDEST LT ISZERO PUSH2 0x3F0 JUMPI PUSH1 0x40 MLOAD PUSH32 0x8C379A000000000000000000000000000000000000000000000000000000000 DUP2 MSTORE PUSH1 0x4 ADD PUSH2 0x3E7 SWAP1 PUSH2 0x10C1 JUMP JUMPDEST PUSH1 0x40 MLOAD DUP1 SWAP2 SUB SWAP1 REVERT JUMPDEST PUSH2 0x41C PUSH32 0xA161396D893F1ACCBDD976DE90551B313A99F9B94C309E21AC442B57E04EE0BE PUSH1 0x0 SHL PUSH2 0xE3C JUMP JUMPDEST PUSH2 0x448 PUSH32 0x5E14B81ECA0794DD5CB77E7AA4FCF81086F8482D332E58CE21C72ACD1679B849 PUSH1 0x0 SHL PUSH2 0xE3C JUMP JUMPDEST DUP1 PUSH2 0x475 PUSH32 0xBB22B343107E9A21FE371DC23B13DD3B579E57D3550ED5932194E943D5ACBCA7 PUSH1 0x0 SHL PUSH2 0xE3C JUMP JUMPDEST PUSH2 0x4A1 PUSH32 0xD85C495F738159B700029628178B98B37B46F6E66D1DA25422B5F1D75D9F12F PUSH1 0x0 SHL PUSH2 0xE3C JUMP JUMPDEST PUSH2 0x4CD PUSH32 0xF0467FF5DCCBA3604370E67C63D0DD88574382947F5E50A4253FF8FF0D5E6BBE PUSH1 0x0 SHL PUSH2 0xE3C JUMP JUMPDEST PUSH2 0x4F8 PUSH31 0x67EF551EFD75D75C1476147C60379E89C330E85EBAC98C1FFB00BC4D78A6A1 PUSH1 0x0 SHL PUSH2 0xE3C JUMP JUMPDEST PUSH2 0xA8C0 PUSH1 0x1 PUSH1 0x0 DUP4 PUSH20 0xFFFFFFFFFFFFFFFFFFFFFFFFFFFFFFFFFFFFFFFF AND PUSH20 0xFFFFFFFFFFFFFFFFFFFFFFFFFFFFFFFFFFFFFFFF AND DUP2 MSTORE PUSH1 0x20 ADD SWAP1 DUP2 MSTORE PUSH1 0x20 ADD PUSH1 0x0 KECCAK256 SLOAD PUSH2 0x545 SWAP2 SWAP1 PUSH2 0x1110 JUMP JUMPDEST TIMESTAMP GT PUSH2 0x586 JUMPI PUSH1 0x40 MLOAD PUSH32 0x8C379A000000000000000000000000000000000000000000000000000000000 DUP2 MSTORE PUSH1 0x4 ADD PUSH2 0x57D SWAP1 PUSH2 0x11B6 JUMP JUMPDEST PUSH1 0x40 MLOAD DUP1 SWAP2 SUB SWAP1 REVERT JUMPDEST PUSH2 0x5B2 PUSH32 0xD8747278C5BA7074695CDDDA7A3B2BD41AE2E8DA4A83DBFBC28A64857F090597 PUSH1 0x0 SHL PUSH2 0xE3C JUMP JUMPDEST PUSH2 0x5DE PUSH32 0x16E4164A2B225254119722FC2DAE5516EFF578A90FF5535881B6B0D24E84255F PUSH1 0x0 SHL PUSH2 0xE3C JUMP JUMPDEST PUSH2 0x60A PUSH32 0x6671F58E3C33577F458B94F40D0C50258961C8BA91167FB0F623C8DAAC000CED PUSH1 0x0 SHL PUSH2 0xE3C JUMP JUMPDEST PUSH2 0x636 PUSH32 0x2AF909D5E490D6188BC178653DD692E3AAAD061A5E71D8BF7C6E6EBB5BEEFD90 PUSH1 0x0 SHL PUSH2 0xE3C JUMP JUMPDEST PUSH2 0x662 PUSH32 0xEBCB22B55E6F639FEF3DC5623FEA7A2656C36DB657381BD33973EF85324CACA1 PUSH1 0x0 SHL PUSH2 0xE3C JUMP JUMPDEST TIMESTAMP PUSH1 0x1 PUSH1 0x0 DUP5 PUSH20 0xFFFFFFFFFFFFFFFFFFFFFFFFFFFFFFFFFFFFFFFF AND PUSH20 0xFFFFFFFFFFFFFFFFFFFFFFFFFFFFFFFFFFFFFFFF AND DUP2 MSTORE PUSH1 0x20 ADD SWAP1 DUP2 MSTORE PUSH1 0x20 ADD PUSH1 0x0 KECCAK256 DUP2 SWAP1 SSTORE POP PUSH2 0x6D2 PUSH32 0x599F7DDC83687FE370612561A72DB7D7D4A0D57967A8A485982AE651417EEE2C PUSH1 0x0 SHL PUSH2 0xE3C JUMP JUMPDEST PUSH2 0x6FE PUSH32 0x7A4AEED02A1E105E2A2F7D7BC9EADF5DBD5B38DE14FB09D8AE5A8C74682F3803 PUSH1 0x0 SHL PUSH2 0xE3C JUMP JUMPDEST PUSH1 0x0 DUP1 SLOAD SWAP1 PUSH2 0x100 EXP SWAP1 DIV PUSH20 0xFFFFFFFFFFFFFFFFFFFFFFFFFFFFFFFFFFFFFFFF AND PUSH20 0xFFFFFFFFFFFFFFFFFFFFFFFFFFFFFFFFFFFFFFFF AND PUSH4 0xA9059CBB DUP4 PUSH9 0x1158E460913D00000 PUSH1 0x40 MLOAD DUP4 PUSH4 0xFFFFFFFF AND PUSH1 0xE0 SHL DUP2 MSTORE PUSH1 0x4 ADD PUSH2 0x762 SWAP3 SWAP2 SWAP1 PUSH2 0x121B JUMP JUMPDEST PUSH1 0x20 PUSH1 0x40 MLOAD DUP1 DUP4 SUB DUP2 PUSH1 0x0 DUP8 GAS CALL ISZERO DUP1 ISZERO PUSH2 0x781 JUMPI RETURNDATASIZE PUSH1 0x0 DUP1 RETURNDATACOPY RETURNDATASIZE PUSH1 0x0 REVERT JUMPDEST POP POP POP POP PUSH1 0x40 MLOAD RETURNDATASIZE PUSH1 0x1F NOT PUSH1 0x1F DUP3 ADD AND DUP3 ADD DUP1 PUSH1 0x40 MSTORE POP DUP2 ADD SWAP1 PUSH2 0x7A5 SWAP2 SWAP1 PUSH2 0x127C JUMP JUMPDEST POP PUSH2 0x7D2 PUSH32 0xA41C26AE6D5292AD82DCC44E2C95C68C9693479A78D511FE00DF2C6742C5D48B PUSH1 0x0 SHL PUSH2 0xE3C JUMP JUMPDEST PUSH2 0x7FE PUSH32 0xE27DF01DD15FF16664188DD065081BC0D7273728448B24BF76287A46E7240666 PUSH1 0x0 SHL PUSH2 0xE3C JUMP JUMPDEST PUSH32 0xFA247EEB36D2DFB6C2FFB4F9E4CB0DBEC2EE9675E3C55B944D1782CBC905E2D5 PUSH1 0x40 MLOAD PUSH1 0x40 MLOAD DUP1 SWAP2 SUB SWAP1 LOG1 POP POP JUMP JUMPDEST PUSH32 0x0 DUP2 JUMP JUMPDEST PUSH1 0x1 PUSH1 0x20 MSTORE DUP1 PUSH1 0x0 MSTORE PUSH1 0x40 PUSH1 0x0 KECCAK256 PUSH1 0x0 SWAP2 POP SWAP1 POP SLOAD DUP2 JUMP JUMPDEST PUSH2 0x896 PUSH32 0x25A6BA64EBCCF68F4EAB481D2C7A6FE5E412218586EBA08E6793C5FE87AC7489 PUSH1 0x0 SHL PUSH2 0xE3C JUMP JUMPDEST PUSH2 0x8C2 PUSH32 0xA0BBFEDD8BC1B13BE068259DF7DF5BCABA4DBCC98F3BE22220CA34214BAB9C73 PUSH1 0x0 SHL PUSH2 0xE3C JUMP JUMPDEST PUSH2 0x8EE PUSH32 0x30C158BF52D35C6C40FF50D425D3550F9554A353555C5DAC77A3B1CDABDBBBB6 PUSH1 0x0 SHL PUSH2 0xE3C JUMP JUMPDEST PUSH2 0x91A PUSH32 0x2513955287913BB10D025D4B26F7B19ED9DE5634B0DBC412ED71A6274A893EE7 PUSH1 0x0 SHL PUSH2 0xE3C JUMP JUMPDEST PUSH9 0x1158E460913D00000 PUSH1 0x0 DUP1 SLOAD SWAP1 PUSH2 0x100 EXP SWAP1 DIV PUSH20 0xFFFFFFFFFFFFFFFFFFFFFFFFFFFFFFFFFFFFFFFF AND PUSH20 0xFFFFFFFFFFFFFFFFFFFFFFFFFFFFFFFFFFFFFFFF AND PUSH4 0x70A08231 ADDRESS PUSH1 0x40 MLOAD DUP3 PUSH4 0xFFFFFFFF AND PUSH1 0xE0 SHL DUP2 MSTORE PUSH1 0x4 ADD PUSH2 0x97D SWAP2 SWAP1 PUSH2 0xEDE JUMP JUMPDEST PUSH1 0x20 PUSH1 0x40 MLOAD DUP1 DUP4 SUB DUP2 DUP7 GAS STATICCALL ISZERO DUP1 ISZERO PUSH2 0x99A JUMPI RETURNDATASIZE PUSH1 0x0 DUP1 RETURNDATACOPY RETURNDATASIZE PUSH1 0x0 REVERT JUMPDEST POP POP POP POP PUSH1 0x40 MLOAD RETURNDATASIZE PUSH1 0x1F NOT PUSH1 0x1F DUP3 ADD AND DUP3 ADD DUP1 PUSH1 0x40 MSTORE POP DUP2 ADD SWAP1 PUSH2 0x9BE SWAP2 SWAP1 PUSH2 0xFFC JUMP JUMPDEST LT ISZERO PUSH2 0x9FF JUMPI PUSH1 0x40 MLOAD PUSH32 0x8C379A000000000000000000000000000000000000000000000000000000000 DUP2 MSTORE PUSH1 0x4 ADD PUSH2 0x9F6 SWAP1 PUSH2 0x10C1 JUMP JUMPDEST PUSH1 0x40 MLOAD DUP1 SWAP2 SUB SWAP1 REVERT JUMPDEST PUSH2 0xA2B PUSH32 0xA161396D893F1ACCBDD976DE90551B313A99F9B94C309E21AC442B57E04EE0BE PUSH1 0x0 SHL PUSH2 0xE3C JUMP JUMPDEST PUSH2 0xA57 PUSH32 0x5E14B81ECA0794DD5CB77E7AA4FCF81086F8482D332E58CE21C72ACD1679B849 PUSH1 0x0 SHL PUSH2 0xE3C JUMP JUMPDEST CALLER PUSH2 0xA84 PUSH32 0xBB22B343107E9A21FE371DC23B13DD3B579E57D3550ED5932194E943D5ACBCA7 PUSH1 0x0 SHL PUSH2 0xE3C JUMP JUMPDEST PUSH2 0xAB0 PUSH32 0xD85C495F738159B700029628178B98B37B46F6E66D1DA25422B5F1D75D9F12F PUSH1 0x0 SHL PUSH2 0xE3C JUMP JUMPDEST PUSH2 0xADC PUSH32 0xF0467FF5DCCBA3604370E67C63D0DD88574382947F5E50A4253FF8FF0D5E6BBE PUSH1 0x0 SHL PUSH2 0xE3C JUMP JUMPDEST PUSH2 0xB07 PUSH31 0x67EF551EFD75D75C1476147C60379E89C330E85EBAC98C1FFB00BC4D78A6A1 PUSH1 0x0 SHL PUSH2 0xE3C JUMP JUMPDEST PUSH2 0xA8C0 PUSH1 0x1 PUSH1 0x0 DUP4 PUSH20 0xFFFFFFFFFFFFFFFFFFFFFFFFFFFFFFFFFFFFFFFF AND PUSH20 0xFFFFFFFFFFFFFFFFFFFFFFFFFFFFFFFFFFFFFFFF AND DUP2 MSTORE PUSH1 0x20 ADD SWAP1 DUP2 MSTORE PUSH1 0x20 ADD PUSH1 0x0 KECCAK256 SLOAD PUSH2 0xB54 SWAP2 SWAP1 PUSH2 0x1110 JUMP JUMPDEST TIMESTAMP GT PUSH2 0xB95 JUMPI PUSH1 0x40 MLOAD PUSH32 0x8C379A000000000000000000000000000000000000000000000000000000000 DUP2 MSTORE PUSH1 0x4 ADD PUSH2 0xB8C SWAP1 PUSH2 0x11B6 JUMP JUMPDEST PUSH1 0x40 MLOAD DUP1 SWAP2 SUB SWAP1 REVERT JUMPDEST PUSH2 0xBC1 PUSH32 0xD8747278C5BA7074695CDDDA7A3B2BD41AE2E8DA4A83DBFBC28A64857F090597 PUSH1 0x0 SHL PUSH2 0xE3C JUMP JUMPDEST PUSH2 0xBED PUSH32 0x16E4164A2B225254119722FC2DAE5516EFF578A90FF5535881B6B0D24E84255F PUSH1 0x0 SHL PUSH2 0xE3C JUMP JUMPDEST PUSH2 0xC19 PUSH32 0xB5BF0CA0E31D7B25B92FDB846BAEA372718CE5EE5E1062F00241B219DC10C070 PUSH1 0x0 SHL PUSH2 0xE3C JUMP JUMPDEST PUSH2 0xC45 PUSH32 0xDF9C35654BAAE2FB82D2BC461F03BFCE3C38F19487F5F938F135F4FB7DB5688D PUSH1 0x0 SHL PUSH2 0xE3C JUMP JUMPDEST PUSH2 0xC71 PUSH32 0x7847DBA4F9098F4D911E519B5F3B14927868FFCDFA4021FD2C12E3530DB41C2F PUSH1 0x0 SHL PUSH2 0xE3C JUMP JUMPDEST TIMESTAMP PUSH1 0x1 PUSH1 0x0 CALLER PUSH20 0xFFFFFFFFFFFFFFFFFFFFFFFFFFFFFFFFFFFFFFFF AND PUSH20 0xFFFFFFFFFFFFFFFFFFFFFFFFFFFFFFFFFFFFFFFF AND DUP2 MSTORE PUSH1 0x20 ADD SWAP1 DUP2 MSTORE PUSH1 0x20 ADD PUSH1 0x0 KECCAK256 DUP2 SWAP1 SSTORE POP PUSH2 0xCE1 PUSH32 0x46FB42BD47C33180912A60A6249ACEAFA55AD2719AB8273C545A7D572B268B23 PUSH1 0x0 SHL PUSH2 0xE3C JUMP JUMPDEST PUSH2 0xD0D PUSH32 0x8AF1623A345A87EF9D48ED362DAA4C31CB4FECB8950D20B1CD91E74C0CE21BF9 PUSH1 0x0 SHL PUSH2 0xE3C JUMP JUMPDEST PUSH1 0x0 DUP1 SLOAD SWAP1 PUSH2 0x100 EXP SWAP1 DIV PUSH20 0xFFFFFFFFFFFFFFFFFFFFFFFFFFFFFFFFFFFFFFFF AND PUSH20 0xFFFFFFFFFFFFFFFFFFFFFFFFFFFFFFFFFFFFFFFF AND PUSH4 0xA9059CBB CALLER PUSH9 0x1158E460913D00000 PUSH1 0x40 MLOAD DUP4 PUSH4 0xFFFFFFFF AND PUSH1 0xE0 SHL DUP2 MSTORE PUSH1 0x4 ADD PUSH2 0xD71 SWAP3 SWAP2 SWAP1 PUSH2 0x121B JUMP JUMPDEST PUSH1 0x20 PUSH1 0x40 MLOAD DUP1 DUP4 SUB DUP2 PUSH1 0x0 DUP8 GAS CALL ISZERO DUP1 ISZERO PUSH2 0xD90 JUMPI RETURNDATASIZE PUSH1 0x0 DUP1 RETURNDATACOPY RETURNDATASIZE PUSH1 0x0 REVERT JUMPDEST POP POP POP POP PUSH1 0x40 MLOAD RETURNDATASIZE PUSH1 0x1F NOT PUSH1 0x1F DUP3 ADD AND DUP3 ADD DUP1 PUSH1 0x40 MSTORE POP DUP2 ADD SWAP1 PUSH2 0xDB4 SWAP2 SWAP1 PUSH2 0x127C JUMP JUMPDEST POP PUSH2 0xDE1 PUSH32 0xB05A60F7E020C7B6B2A266A5AD4AB8EFA2AFAC542E7869358CF949071E23FEAB PUSH1 0x0 SHL PUSH2 0xE3C JUMP JUMPDEST PUSH2 0xE0D PUSH32 0xEF22B6586E319EF650D75BA0B3E899DB5C8CC0467ED64A0381C81875E6B5B60A PUSH1 0x0 SHL PUSH2 0xE3C JUMP JUMPDEST PUSH32 0xFA247EEB36D2DFB6C2FFB4F9E4CB0DBEC2EE9675E3C55B944D1782CBC905E2D5 PUSH1 0x40 MLOAD PUSH1 0x40 MLOAD DUP1 SWAP2 SUB SWAP1 LOG1 POP JUMP JUMPDEST POP JUMP JUMPDEST PUSH1 0x0 DUP1 REVERT JUMPDEST PUSH1 0x0 PUSH20 0xFFFFFFFFFFFFFFFFFFFFFFFFFFFFFFFFFFFFFFFF DUP3 AND SWAP1 POP SWAP2 SWAP1 POP JUMP JUMPDEST PUSH1 0x0 PUSH2 0xE6F DUP3 PUSH2 0xE44 JUMP JUMPDEST SWAP1 POP SWAP2 SWAP1 POP JUMP JUMPDEST PUSH2 0xE7F DUP2 PUSH2 0xE64 JUMP JUMPDEST DUP2 EQ PUSH2 0xE8A JUMPI PUSH1 0x0 DUP1 REVERT JUMPDEST POP JUMP JUMPDEST PUSH1 0x0 DUP2 CALLDATALOAD SWAP1 POP PUSH2 0xE9C DUP2 PUSH2 0xE76 JUMP JUMPDEST SWAP3 SWAP2 POP POP JUMP JUMPDEST PUSH1 0x0 PUSH1 0x20 DUP3 DUP5 SUB SLT ISZERO PUSH2 0xEB8 JUMPI PUSH2 0xEB7 PUSH2 0xE3F JUMP JUMPDEST JUMPDEST PUSH1 0x0 PUSH2 0xEC6 DUP5 DUP3 DUP6 ADD PUSH2 0xE8D JUMP JUMPDEST SWAP2 POP POP SWAP3 SWAP2 POP POP JUMP JUMPDEST PUSH2 0xED8 DUP2 PUSH2 0xE64 JUMP JUMPDEST DUP3 MSTORE POP POP JUMP JUMPDEST PUSH1 0x0 PUSH1 0x20 DUP3 ADD SWAP1 POP PUSH2 0xEF3 PUSH1 0x0 DUP4 ADD DUP5 PUSH2 0xECF JUMP JUMPDEST SWAP3 SWAP2 POP POP JUMP JUMPDEST PUSH1 0x0 DUP2 SWAP1 POP SWAP2 SWAP1 POP JUMP JUMPDEST PUSH2 0xF0C DUP2 PUSH2 0xEF9 JUMP JUMPDEST DUP3 MSTORE POP POP JUMP JUMPDEST PUSH1 0x0 PUSH1 0x20 DUP3 ADD SWAP1 POP PUSH2 0xF27 PUSH1 0x0 DUP4 ADD DUP5 PUSH2 0xF03 JUMP JUMPDEST SWAP3 SWAP2 POP POP JUMP JUMPDEST PUSH1 0x0 DUP3 DUP3 MSTORE PUSH1 0x20 DUP3 ADD SWAP1 POP SWAP3 SWAP2 POP POP JUMP JUMPDEST PUSH32 0x4F6E6C79207468652072656C617920616464726573732063616E206163636573 PUSH1 0x0 DUP3 ADD MSTORE PUSH32 0x7320746869732066756E6374696F6E2E00000000000000000000000000000000 PUSH1 0x20 DUP3 ADD MSTORE POP JUMP JUMPDEST PUSH1 0x0 PUSH2 0xF9A PUSH1 0x30 DUP4 PUSH2 0xF2D JUMP JUMPDEST SWAP2 POP PUSH2 0xFA5 DUP3 PUSH2 0xF3E JUMP JUMPDEST PUSH1 0x40 DUP3 ADD SWAP1 POP SWAP2 SWAP1 POP JUMP JUMPDEST PUSH1 0x0 PUSH1 0x20 DUP3 ADD SWAP1 POP DUP2 DUP2 SUB PUSH1 0x0 DUP4 ADD MSTORE PUSH2 0xFC9 DUP2 PUSH2 0xF8D JUMP JUMPDEST SWAP1 POP SWAP2 SWAP1 POP JUMP JUMPDEST PUSH2 0xFD9 DUP2 PUSH2 0xEF9 JUMP JUMPDEST DUP2 EQ PUSH2 0xFE4 JUMPI PUSH1 0x0 DUP1 REVERT JUMPDEST POP JUMP JUMPDEST PUSH1 0x0 DUP2 MLOAD SWAP1 POP PUSH2 0xFF6 DUP2 PUSH2 0xFD0 JUMP JUMPDEST SWAP3 SWAP2 POP POP JUMP JUMPDEST PUSH1 0x0 PUSH1 0x20 DUP3 DUP5 SUB SLT ISZERO PUSH2 0x1012 JUMPI PUSH2 0x1011 PUSH2 0xE3F JUMP JUMPDEST JUMPDEST PUSH1 0x0 PUSH2 0x1020 DUP5 DUP3 DUP6 ADD PUSH2 0xFE7 JUMP JUMPDEST SWAP2 POP POP SWAP3 SWAP2 POP POP JUMP JUMPDEST PUSH32 0x46617563657420646F6573206E6F74206861766520616E79206D6F7265204C49 PUSH1 0x0 DUP3 ADD MSTORE PUSH32 0x4E4B2028686173206C657373207468616E203230204C494E4B2063757272656E PUSH1 0x20 DUP3 ADD MSTORE PUSH32 0x746C79292E000000000000000000000000000000000000000000000000000000 PUSH1 0x40 DUP3 ADD MSTORE POP JUMP JUMPDEST PUSH1 0x0 PUSH2 0x10AB PUSH1 0x45 DUP4 PUSH2 0xF2D JUMP JUMPDEST SWAP2 POP PUSH2 0x10B6 DUP3 PUSH2 0x1029 JUMP JUMPDEST PUSH1 0x60 DUP3 ADD SWAP1 POP SWAP2 SWAP1 POP JUMP JUMPDEST PUSH1 0x0 PUSH1 0x20 DUP3 ADD SWAP1 POP DUP2 DUP2 SUB PUSH1 0x0 DUP4 ADD MSTORE PUSH2 0x10DA DUP2 PUSH2 0x109E JUMP JUMPDEST SWAP1 POP SWAP2 SWAP1 POP JUMP JUMPDEST PUSH32 0x4E487B7100000000000000000000000000000000000000000000000000000000 PUSH1 0x0 MSTORE PUSH1 0x11 PUSH1 0x4 MSTORE PUSH1 0x24 PUSH1 0x0 REVERT JUMPDEST PUSH1 0x0 PUSH2 0x111B DUP3 PUSH2 0xEF9 JUMP JUMPDEST SWAP2 POP PUSH2 0x1126 DUP4 PUSH2 0xEF9 JUMP JUMPDEST SWAP3 POP DUP3 DUP3 ADD SWAP1 POP DUP1 DUP3 GT ISZERO PUSH2 0x113E JUMPI PUSH2 0x113D PUSH2 0x10E1 JUMP JUMPDEST JUMPDEST SWAP3 SWAP2 POP POP JUMP JUMPDEST PUSH32 0x43757272656E742075736572206D757374207761697420313220686F75727320 PUSH1 0x0 DUP3 ADD MSTORE PUSH32 0x666F722066617563657420636F6F6C646F776E2E000000000000000000000000 PUSH1 0x20 DUP3 ADD MSTORE POP JUMP JUMPDEST PUSH1 0x0 PUSH2 0x11A0 PUSH1 0x34 DUP4 PUSH2 0xF2D JUMP JUMPDEST SWAP2 POP PUSH2 0x11AB DUP3 PUSH2 0x1144 JUMP JUMPDEST PUSH1 0x40 DUP3 ADD SWAP1 POP SWAP2 SWAP1 POP JUMP JUMPDEST PUSH1 0x0 PUSH1 0x20 DUP3 ADD SWAP1 POP DUP2 DUP2 SUB PUSH1 0x0 DUP4 ADD MSTORE PUSH2 0x11CF DUP2 PUSH2 0x1193 JUMP JUMPDEST SWAP1 POP SWAP2 SWAP1 POP JUMP JUMPDEST PUSH1 0x0 DUP2 SWAP1 POP SWAP2 SWAP1 POP JUMP JUMPDEST PUSH1 0x0 DUP2 SWAP1 POP SWAP2 SWAP1 POP JUMP JUMPDEST PUSH1 0x0 PUSH2 0x1205 PUSH2 0x1200 PUSH2 0x11FB DUP5 PUSH2 0x11D6 JUMP JUMPDEST PUSH2 0x11E0 JUMP JUMPDEST PUSH2 0xEF9 JUMP JUMPDEST SWAP1 POP SWAP2 SWAP1 POP JUMP JUMPDEST PUSH2 0x1215 DUP2 PUSH2 0x11EA JUMP JUMPDEST DUP3 MSTORE POP POP JUMP JUMPDEST PUSH1 0x0 PUSH1 0x40 DUP3 ADD SWAP1 POP PUSH2 0x1230 PUSH1 0x0 DUP4 ADD DUP6 PUSH2 0xECF JUMP JUMPDEST PUSH2 0x123D PUSH1 0x20 DUP4 ADD DUP5 PUSH2 0x120C JUMP JUMPDEST SWAP4 SWAP3 POP POP POP JUMP JUMPDEST PUSH1 0x0 DUP2 ISZERO ISZERO SWAP1 POP SWAP2 SWAP1 POP JUMP JUMPDEST PUSH2 0x1259 DUP2 PUSH2 0x1244 JUMP JUMPDEST DUP2 EQ PUSH2 0x1264 JUMPI PUSH1 0x0 DUP1 REVERT JUMPDEST POP JUMP JUMPDEST PUSH1 0x0 DUP2 MLOAD SWAP1 POP PUSH2 0x1276 DUP2 PUSH2 0x1250 JUMP JUMPDEST SWAP3 SWAP2 POP POP JUMP JUMPDEST PUSH1 0x0 PUSH1 0x20 DUP3 DUP5 SUB SLT ISZERO PUSH2 0x1292 JUMPI PUSH2 0x1291 PUSH2 0xE3F JUMP JUMPDEST JUMPDEST PUSH1 0x0 PUSH2 0x12A0 DUP5 DUP3 DUP6 ADD PUSH2 0x1267 JUMP JUMPDEST SWAP2 POP POP SWAP3 SWAP2 POP POP JUMP INVALID LOG2 PUSH5 0x6970667358 0x22 SLT KECCAK256 0xEE 0x5C 0xE6 0x4D 0x5E 0xE4 0x4B SWAP13 0xB9 PUSH14 0xB4DB33EBA9FB981F7688858E176F 0xE1 DELEGATECALL SLT AND 0xF7 SWAP10 MUL MLOAD PUSH5 0x736F6C6343 STOP ADDMOD LT STOP CALLER "
        },
        "methodIdentifiers": {
          "relayAddress()": "8a648184",
          "userPreviousWithdrawTime(address)": "b4c3f117",
          "withdrawDirect()": "e0533ecb",
          "withdrawRelay(address)": "7cc201d2"
        }
      }
    }
  }
}