{
  "contracts/MockTwitter.sol": {
    "MockTwitterNameSpace": {
      "abi": [
        {
          "anonymous": false,
          "inputs": [],
          "name": "tweetRequestEvent",
          "type": "event"
        },
        {
          "inputs": [
            {
              "internalType": "address",
              "name": "",
              "type": "address"
            }
          ],
          "name": "addressTwitterID",
          "outputs": [
            {
              "internalType": "uint96",
              "name": "",
              "type": "uint96"
            }
          ],
          "stateMutability": "view",
          "type": "function"
        },
        {
          "inputs": [],
          "name": "isTwitterAddressMatching",
          "outputs": [
            {
              "internalType": "uint256",
              "name": "",
              "type": "uint256"
            }
          ],
          "stateMutability": "view",
          "type": "function"
        },
        {
          "inputs": [
            {
              "internalType": "uint256",
              "name": "setTwitterAddressMatching",
              "type": "uint256"
            }
          ],
          "name": "mockRequestAnswer",
          "outputs": [],
          "stateMutability": "nonpayable",
          "type": "function"
        },
        {
          "inputs": [
            {
              "internalType": "uint96",
              "name": "twitter_id_Request",
              "type": "uint96"
            }
          ],
          "name": "requestTweetAddressCompare",
          "outputs": [],
          "stateMutability": "nonpayable",
          "type": "function"
        },
        {
          "inputs": [
            {
              "internalType": "uint96",
              "name": "_twitter_id",
              "type": "uint96"
            }
          ],
          "name": "resolveToTwitterID",
          "outputs": [],
          "stateMutability": "nonpayable",
          "type": "function"
        },
        {
          "inputs": [
            {
              "internalType": "uint96",
              "name": "",
              "type": "uint96"
            }
          ],
          "name": "twitterIDaddress",
          "outputs": [
            {
              "internalType": "address",
              "name": "",
              "type": "address"
            }
          ],
          "stateMutability": "view",
          "type": "function"
        }
      ],
      "evm": {
        "bytecode": {
          "linkReferences": {},
          "object": "608060405234801561001057600080fd5b50611205806100206000396000f3fe608060405234801561001057600080fd5b50600436106100625760003560e01c8063431852901461006757806368466b4b1461008357806388e76d2b146100b3578063ce1907df146100d1578063cf154b1f146100ed578063dceb828e1461011d575b600080fd5b610081600480360381019061007c9190610f22565b610139565b005b61009d60048036038101906100989190610fad565b6101c7565b6040516100aa9190611001565b60405180910390f35b6100bb6101f2565b6040516100c8919061102b565b60405180910390f35b6100eb60048036038101906100e69190611072565b6101f8565b005b61010760048036038101906101029190611072565b610bf3565b60405161011491906110ae565b60405180910390f35b61013760048036038101906101329190611072565b610c26565b005b6101657ffd0d80799200199d1ff24f40ca9d0cbea27ed58485735748300a554b8d57c56a60001b610ee4565b6101917fe4dd3655bb4a0adcbfe5e0aca5ea4f31771062c421bca6437c2f1d44d38f9bc960001b610ee4565b6101bd7f01db9641420b68390a7a9eab12dd12384563beb24f98598e8249bc75bef79da360001b610ee4565b8060008190555050565b60016020528060005260406000206000915054906101000a90046bffffffffffffffffffffffff1681565b60005481565b6102247fbc1ea620e77e446a3e785dd13df32917109f03dd7b4785fbf1edb8816f75fabb60001b610ee4565b6102507ffaa423e3b391a45683ef0d78720c64a089e85e1a6b1cdf6a76d22879928a5b6c60001b610ee4565b61027c7fe5b9fb960516ad9632b370ba4f4a04b5b4f24b2e646f9a1bd71caf1fe2cfc41860001b610ee4565b60006102aa7f2154aada2490892a0ea643a0daa49e5dd249498b0293cfa558d4e0a6b88de4da60001b610ee4565b6102d67ff77d2f165cdaf6f0f21f93e3bd38338919c5ad0c4981793f456b92d8ee8f748f60001b610ee4565b60006103047f3014db41113c2da64eed49f07a9a8e4f302700ed4a29fe0f267998e10b17aac860001b610ee4565b6103307fd9af9eb2d0702dd3040dd2f5e8a91ca3e373f69e37c9068ec04c3f832f5adb5460001b610ee4565b600061035e7fd61a25ac8599b46438e999fbc9cb380be0d59972d266e83d97db01b35989d47360001b610ee4565b61038a7f6762eb174232bce7e2550ae0c11c2af67faaf12ed469ece2d0025f459afbe78e60001b610ee4565b60006103b87f7078f99ea49af2a4de10f0ddb9a733608df72e645990e1f40efbf28eb6cc3d4b60001b610ee4565b6103e47f30fc678d3b588f454d7047e2c75938d9c6d3fbf7ebe5bb39adf34809bc46134760001b610ee4565b6001600054036105c15761041a7f529693268e136cb5e7b999e1da228779f61147158c38b4cdc5e1ca5c7dd09d9060001b610ee4565b6104467f446479344d36cd97d48a1413d6063b7136cebecd92509dc0cb37642fc11a300560001b610ee4565b6104727fc06e5a45f051fce79e9f3ebbba6356ca7b458fd0bb77af4ff45c5633171dd22d60001b610ee4565b3373ffffffffffffffffffffffffffffffffffffffff1692506104b77fb6e4e9c76d3c47f32f64b92f47866d84eee29a400c257d260e595bb457e55d0360001b610ee4565b6104e37f9a59d3fb5da853ede02fb29f56a014a856ad2603ba3fd9dbe95b4f9cd533658960001b610ee4565b846bffffffffffffffffffffffff1691506105207f456d701371a8a265e90a732bc069e881643edaa839b723830888ab40e8dce06e60001b610ee4565b61054c7f0235afc5b3c388c4a4d8d3e5a6c985e87615da1d0e318f55d8780537e7b1c36360001b610ee4565b60a082901b905061057f7f0ddf5d6adbd555b43b6d2f07204d2a9889234ec182a2ebecffb68fe60ef3961c60001b610ee4565b6105ab7f73fba0d310c25feedba5401755f752d43ab2b8fc091044be4b42c77466c240e760001b610ee4565b82816105b791906110f8565b60001b93506105ee565b6105ed7fac1a6174376ce7cd8f6e0cbeb2b795d34715bd019df637d15254fb007a6de53860001b610ee4565b5b61061a7f7faf4920137387a99982778c95a42e65e40575c644bfde554535091c6c94f3f760001b610ee4565b6106467f634007afcf524ceca38fc4352813c251985759e50bf9e163fa973cbd26a726db60001b610ee4565b6000801b8414610b3b5761067c7fe1873bda5c648428a6693206e4e1b2cc6d2667f304da1a0495711a74dda0d4fe60001b610ee4565b6106a87f30edefad882325936de49872420e2e08f60c7c936b9926a3f66dacea606347b360001b610ee4565b6106d47f79578a70ded54f64131ed013079550fb053468125b80dd974506eba37848e91660001b610ee4565b600060a085901c60001c905061070c7f891b396f1539d8edb2450f69e306b2e9c62f99c6d87e438f389e655f1f6790e560001b610ee4565b6107387fef6bee6b2d7e3e9879d06ee3b803fa0d0444d13dd214c9fca34cd1883c6eeaac60001b610ee4565b600073ffffffffffffffffffffffffffffffffffffffff60001b861660001c90506107857fd156aaf3507db8ae07cb8cc4ce7b68bace745b127c6772264f513f27211d909460001b610ee4565b6107b17f0aaa0354362ed91adf131651daef02a341cea4508804eebac275549ce77a518760001b610ee4565b600073ffffffffffffffffffffffffffffffffffffffff1660026000846bffffffffffffffffffffffff166bffffffffffffffffffffffff16815260200190815260200160002060009054906101000a900473ffffffffffffffffffffffffffffffffffffffff1673ffffffffffffffffffffffffffffffffffffffff161461097b576108607fe8b8a7940d7d1b1a14bb0a13b22516af756aa121ab18274d913bb5b61c594c9a60001b610ee4565b61088c7f720ba68e2b8e390492a3956c7bd4a3c55cfb0b3215c7855b7b5540a05b0b9a4360001b610ee4565b6108b87f1cabb19f9c80d2ccd0b0d78df0584d4f8a55eaf6cc393e5c7e948a55efd3a13260001b610ee4565b60006001600060026000866bffffffffffffffffffffffff166bffffffffffffffffffffffff16815260200190815260200160002060009054906101000a900473ffffffffffffffffffffffffffffffffffffffff1673ffffffffffffffffffffffffffffffffffffffff1673ffffffffffffffffffffffffffffffffffffffff16815260200190815260200160002060006101000a8154816bffffffffffffffffffffffff02191690836bffffffffffffffffffffffff1602179055506109a8565b6109a77fc9fa4b5caaa12a547256a725f7be11bb26ccc5c65577341e8570bb1c679ac64660001b610ee4565b5b6109d47f4984118a441466a98084d9bb489d37c2dcfdb5d15357092b84c1fde1896631cc60001b610ee4565b610a007ffc1e49af5dc18ba93d6d0fc472d12c047c3905c1ad7890aad098ba39ace48a3460001b610ee4565b81600160008373ffffffffffffffffffffffffffffffffffffffff1673ffffffffffffffffffffffffffffffffffffffff16815260200190815260200160002060006101000a8154816bffffffffffffffffffffffff02191690836bffffffffffffffffffffffff160217905550610a9a7fa79088d7477e62d7d0ce7d57ae9c36b7748d4e1573fca5462c40f35a06fdb0f260001b610ee4565b610ac67f525b719bc550507d42867fadaddca71793447304d84fd3daf57773953cf1893160001b610ee4565b8060026000846bffffffffffffffffffffffff166bffffffffffffffffffffffff16815260200190815260200160002060006101000a81548173ffffffffffffffffffffffffffffffffffffffff021916908373ffffffffffffffffffffffffffffffffffffffff1602179055505050610b68565b610b677fdf456f20e069084952385cf5d0a42c7cdb023207207e5b79a39cf5fdd6e7705160001b610ee4565b5b610b947f41a71202f486434118c86c8df33645e8192f5cc109eff6fd38bedfa3c4f27c0360001b610ee4565b610bc07f99179d54869da4b60540ce3a04109e34aa452d6854fe7dc9322e2e349db92aae60001b610ee4565b7ff7a503e561205d742133bff2027c118610bb7859d287101e367709cc321f18fd60405160405180910390a15050505050565b60026020528060005260406000206000915054906101000a900473ffffffffffffffffffffffffffffffffffffffff1681565b8033610c547f4e44366a848bae4d4fb318bb1ef7d501634311669541c0a063874e4959762adf60001b610ee4565b610c807fd5cc5036c92b07fdf152114e9c7e55e27c4c54eb368cedc5ff2873fac5a03e0a60001b610ee4565b610cac7f7274a2e8a8bd0ab2e2d0b0304fec2a1843755cf94a63d175f8ee05986dd08fd660001b610ee4565b610cd87f4f35836455e7fd5a271a89574a8fbae7e1e616bea37445bdb1e3e5c156aba8cc60001b610ee4565b8073ffffffffffffffffffffffffffffffffffffffff1660026000846bffffffffffffffffffffffff166bffffffffffffffffffffffff16815260200190815260200160002060009054906101000a900473ffffffffffffffffffffffffffffffffffffffff1673ffffffffffffffffffffffffffffffffffffffff1614610d95576040517f08c379a0000000000000000000000000000000000000000000000000000000008152600401610d8c906111af565b60405180910390fd5b610dc17f411cee068e54000d0520a96b62f60143edd77661345b29d9774bd079a84aef2460001b610ee4565b610ded7f012f8d157c60b2157ee1aeca537a267626403a6b3387775e4c26b24ccbc934e960001b610ee4565b610e197f5fff4d896564a19385d62f3b7543c3ad3ba6635ee213a9ecd270ed798c48f7b360001b610ee4565b610e457ff76c78bd70942f6a0fb80a6c6db11ca452440c957bda45aa7e04d4be4b65c68960001b610ee4565b610e717fef95798f8a500587f8e1951ae6d5fd603972b721e0785ce518fbb3eaf55beb5e60001b610ee4565b82600160003373ffffffffffffffffffffffffffffffffffffffff1673ffffffffffffffffffffffffffffffffffffffff16815260200190815260200160002060006101000a8154816bffffffffffffffffffffffff02191690836bffffffffffffffffffffffff160217905550505050565b50565b600080fd5b6000819050919050565b610eff81610eec565b8114610f0a57600080fd5b50565b600081359050610f1c81610ef6565b92915050565b600060208284031215610f3857610f37610ee7565b5b6000610f4684828501610f0d565b91505092915050565b600073ffffffffffffffffffffffffffffffffffffffff82169050919050565b6000610f7a82610f4f565b9050919050565b610f8a81610f6f565b8114610f9557600080fd5b50565b600081359050610fa781610f81565b92915050565b600060208284031215610fc357610fc2610ee7565b5b6000610fd184828501610f98565b91505092915050565b60006bffffffffffffffffffffffff82169050919050565b610ffb81610fda565b82525050565b60006020820190506110166000830184610ff2565b92915050565b61102581610eec565b82525050565b6000602082019050611040600083018461101c565b92915050565b61104f81610fda565b811461105a57600080fd5b50565b60008135905061106c81611046565b92915050565b60006020828403121561108857611087610ee7565b5b60006110968482850161105d565b91505092915050565b6110a881610f6f565b82525050565b60006020820190506110c3600083018461109f565b92915050565b7f4e487b7100000000000000000000000000000000000000000000000000000000600052601160045260246000fd5b600061110382610eec565b915061110e83610eec565b9250828201905080821115611126576111256110c9565b5b92915050565b600082825260208201905092915050565b7f596f752068617665206e6f74207665726966696564207468697320547769747460008201527f6572204944207769746820796f7572206163636f756e74207965742e00000000602082015250565b6000611199603c8361112c565b91506111a48261113d565b604082019050919050565b600060208201905081810360008301526111c88161118c565b905091905056fea2646970667358221220d0bac4f401aecd2adb0a6a117b57ad82859bfeb15aad5dd3524bd2980b03fcd264736f6c63430008100033",
          "opcodes": "PUSH1 0x80 PUSH1 0x40 MSTORE CALLVALUE DUP1 ISZERO PUSH2 0x10 JUMPI PUSH1 0x0 DUP1 REVERT JUMPDEST POP PUSH2 0x1205 DUP1 PUSH2 0x20 PUSH1 0x0 CODECOPY PUSH1 0x0 RETURN INVALID PUSH1 0x80 PUSH1 0x40 MSTORE CALLVALUE DUP1 ISZERO PUSH2 0x10 JUMPI PUSH1 0x0 DUP1 REVERT JUMPDEST POP PUSH1 0x4 CALLDATASIZE LT PUSH2 0x62 JUMPI PUSH1 0x0 CALLDATALOAD PUSH1 0xE0 SHR DUP1 PUSH4 0x43185290 EQ PUSH2 0x67 JUMPI DUP1 PUSH4 0x68466B4B EQ PUSH2 0x83 JUMPI DUP1 PUSH4 0x88E76D2B EQ PUSH2 0xB3 JUMPI DUP1 PUSH4 0xCE1907DF EQ PUSH2 0xD1 JUMPI DUP1 PUSH4 0xCF154B1F EQ PUSH2 0xED JUMPI DUP1 PUSH4 0xDCEB828E EQ PUSH2 0x11D JUMPI JUMPDEST PUSH1 0x0 DUP1 REVERT JUMPDEST PUSH2 0x81 PUSH1 0x4 DUP1 CALLDATASIZE SUB DUP2 ADD SWAP1 PUSH2 0x7C SWAP2 SWAP1 PUSH2 0xF22 JUMP JUMPDEST PUSH2 0x139 JUMP JUMPDEST STOP JUMPDEST PUSH2 0x9D PUSH1 0x4 DUP1 CALLDATASIZE SUB DUP2 ADD SWAP1 PUSH2 0x98 SWAP2 SWAP1 PUSH2 0xFAD JUMP JUMPDEST PUSH2 0x1C7 JUMP JUMPDEST PUSH1 0x40 MLOAD PUSH2 0xAA SWAP2 SWAP1 PUSH2 0x1001 JUMP JUMPDEST PUSH1 0x40 MLOAD DUP1 SWAP2 SUB SWAP1 RETURN JUMPDEST PUSH2 0xBB PUSH2 0x1F2 JUMP JUMPDEST PUSH1 0x40 MLOAD PUSH2 0xC8 SWAP2 SWAP1 PUSH2 0x102B JUMP JUMPDEST PUSH1 0x40 MLOAD DUP1 SWAP2 SUB SWAP1 RETURN JUMPDEST PUSH2 0xEB PUSH1 0x4 DUP1 CALLDATASIZE SUB DUP2 ADD SWAP1 PUSH2 0xE6 SWAP2 SWAP1 PUSH2 0x1072 JUMP JUMPDEST PUSH2 0x1F8 JUMP JUMPDEST STOP JUMPDEST PUSH2 0x107 PUSH1 0x4 DUP1 CALLDATASIZE SUB DUP2 ADD SWAP1 PUSH2 0x102 SWAP2 SWAP1 PUSH2 0x1072 JUMP JUMPDEST PUSH2 0xBF3 JUMP JUMPDEST PUSH1 0x40 MLOAD PUSH2 0x114 SWAP2 SWAP1 PUSH2 0x10AE JUMP JUMPDEST PUSH1 0x40 MLOAD DUP1 SWAP2 SUB SWAP1 RETURN JUMPDEST PUSH2 0x137 PUSH1 0x4 DUP1 CALLDATASIZE SUB DUP2 ADD SWAP1 PUSH2 0x132 SWAP2 SWAP1 PUSH2 0x1072 JUMP JUMPDEST PUSH2 0xC26 JUMP JUMPDEST STOP JUMPDEST PUSH2 0x165 PUSH32 0xFD0D80799200199D1FF24F40CA9D0CBEA27ED58485735748300A554B8D57C56A PUSH1 0x0 SHL PUSH2 0xEE4 JUMP JUMPDEST PUSH2 0x191 PUSH32 0xE4DD3655BB4A0ADCBFE5E0ACA5EA4F31771062C421BCA6437C2F1D44D38F9BC9 PUSH1 0x0 SHL PUSH2 0xEE4 JUMP JUMPDEST PUSH2 0x1BD PUSH32 0x1DB9641420B68390A7A9EAB12DD12384563BEB24F98598E8249BC75BEF79DA3 PUSH1 0x0 SHL PUSH2 0xEE4 JUMP JUMPDEST DUP1 PUSH1 0x0 DUP2 SWAP1 SSTORE POP POP JUMP JUMPDEST PUSH1 0x1 PUSH1 0x20 MSTORE DUP1 PUSH1 0x0 MSTORE PUSH1 0x40 PUSH1 0x0 KECCAK256 PUSH1 0x0 SWAP2 POP SLOAD SWAP1 PUSH2 0x100 EXP SWAP1 DIV PUSH12 0xFFFFFFFFFFFFFFFFFFFFFFFF AND DUP2 JUMP JUMPDEST PUSH1 0x0 SLOAD DUP2 JUMP JUMPDEST PUSH2 0x224 PUSH32 0xBC1EA620E77E446A3E785DD13DF32917109F03DD7B4785FBF1EDB8816F75FABB PUSH1 0x0 SHL PUSH2 0xEE4 JUMP JUMPDEST PUSH2 0x250 PUSH32 0xFAA423E3B391A45683EF0D78720C64A089E85E1A6B1CDF6A76D22879928A5B6C PUSH1 0x0 SHL PUSH2 0xEE4 JUMP JUMPDEST PUSH2 0x27C PUSH32 0xE5B9FB960516AD9632B370BA4F4A04B5B4F24B2E646F9A1BD71CAF1FE2CFC418 PUSH1 0x0 SHL PUSH2 0xEE4 JUMP JUMPDEST PUSH1 0x0 PUSH2 0x2AA PUSH32 0x2154AADA2490892A0EA643A0DAA49E5DD249498B0293CFA558D4E0A6B88DE4DA PUSH1 0x0 SHL PUSH2 0xEE4 JUMP JUMPDEST PUSH2 0x2D6 PUSH32 0xF77D2F165CDAF6F0F21F93E3BD38338919C5AD0C4981793F456B92D8EE8F748F PUSH1 0x0 SHL PUSH2 0xEE4 JUMP JUMPDEST PUSH1 0x0 PUSH2 0x304 PUSH32 0x3014DB41113C2DA64EED49F07A9A8E4F302700ED4A29FE0F267998E10B17AAC8 PUSH1 0x0 SHL PUSH2 0xEE4 JUMP JUMPDEST PUSH2 0x330 PUSH32 0xD9AF9EB2D0702DD3040DD2F5E8A91CA3E373F69E37C9068EC04C3F832F5ADB54 PUSH1 0x0 SHL PUSH2 0xEE4 JUMP JUMPDEST PUSH1 0x0 PUSH2 0x35E PUSH32 0xD61A25AC8599B46438E999FBC9CB380BE0D59972D266E83D97DB01B35989D473 PUSH1 0x0 SHL PUSH2 0xEE4 JUMP JUMPDEST PUSH2 0x38A PUSH32 0x6762EB174232BCE7E2550AE0C11C2AF67FAAF12ED469ECE2D0025F459AFBE78E PUSH1 0x0 SHL PUSH2 0xEE4 JUMP JUMPDEST PUSH1 0x0 PUSH2 0x3B8 PUSH32 0x7078F99EA49AF2A4DE10F0DDB9A733608DF72E645990E1F40EFBF28EB6CC3D4B PUSH1 0x0 SHL PUSH2 0xEE4 JUMP JUMPDEST PUSH2 0x3E4 PUSH32 0x30FC678D3B588F454D7047E2C75938D9C6D3FBF7EBE5BB39ADF34809BC461347 PUSH1 0x0 SHL PUSH2 0xEE4 JUMP JUMPDEST PUSH1 0x1 PUSH1 0x0 SLOAD SUB PUSH2 0x5C1 JUMPI PUSH2 0x41A PUSH32 0x529693268E136CB5E7B999E1DA228779F61147158C38B4CDC5E1CA5C7DD09D90 PUSH1 0x0 SHL PUSH2 0xEE4 JUMP JUMPDEST PUSH2 0x446 PUSH32 0x446479344D36CD97D48A1413D6063B7136CEBECD92509DC0CB37642FC11A3005 PUSH1 0x0 SHL PUSH2 0xEE4 JUMP JUMPDEST PUSH2 0x472 PUSH32 0xC06E5A45F051FCE79E9F3EBBBA6356CA7B458FD0BB77AF4FF45C5633171DD22D PUSH1 0x0 SHL PUSH2 0xEE4 JUMP JUMPDEST CALLER PUSH20 0xFFFFFFFFFFFFFFFFFFFFFFFFFFFFFFFFFFFFFFFF AND SWAP3 POP PUSH2 0x4B7 PUSH32 0xB6E4E9C76D3C47F32F64B92F47866D84EEE29A400C257D260E595BB457E55D03 PUSH1 0x0 SHL PUSH2 0xEE4 JUMP JUMPDEST PUSH2 0x4E3 PUSH32 0x9A59D3FB5DA853EDE02FB29F56A014A856AD2603BA3FD9DBE95B4F9CD5336589 PUSH1 0x0 SHL PUSH2 0xEE4 JUMP JUMPDEST DUP5 PUSH12 0xFFFFFFFFFFFFFFFFFFFFFFFF AND SWAP2 POP PUSH2 0x520 PUSH32 0x456D701371A8A265E90A732BC069E881643EDAA839B723830888AB40E8DCE06E PUSH1 0x0 SHL PUSH2 0xEE4 JUMP JUMPDEST PUSH2 0x54C PUSH32 0x235AFC5B3C388C4A4D8D3E5A6C985E87615DA1D0E318F55D8780537E7B1C363 PUSH1 0x0 SHL PUSH2 0xEE4 JUMP JUMPDEST PUSH1 0xA0 DUP3 SWAP1 SHL SWAP1 POP PUSH2 0x57F PUSH32 0xDDF5D6ADBD555B43B6D2F07204D2A9889234EC182A2EBECFFB68FE60EF3961C PUSH1 0x0 SHL PUSH2 0xEE4 JUMP JUMPDEST PUSH2 0x5AB PUSH32 0x73FBA0D310C25FEEDBA5401755F752D43AB2B8FC091044BE4B42C77466C240E7 PUSH1 0x0 SHL PUSH2 0xEE4 JUMP JUMPDEST DUP3 DUP2 PUSH2 0x5B7 SWAP2 SWAP1 PUSH2 0x10F8 JUMP JUMPDEST PUSH1 0x0 SHL SWAP4 POP PUSH2 0x5EE JUMP JUMPDEST PUSH2 0x5ED PUSH32 0xAC1A6174376CE7CD8F6E0CBEB2B795D34715BD019DF637D15254FB007A6DE538 PUSH1 0x0 SHL PUSH2 0xEE4 JUMP JUMPDEST JUMPDEST PUSH2 0x61A PUSH32 0x7FAF4920137387A99982778C95A42E65E40575C644BFDE554535091C6C94F3F7 PUSH1 0x0 SHL PUSH2 0xEE4 JUMP JUMPDEST PUSH2 0x646 PUSH32 0x634007AFCF524CECA38FC4352813C251985759E50BF9E163FA973CBD26A726DB PUSH1 0x0 SHL PUSH2 0xEE4 JUMP JUMPDEST PUSH1 0x0 DUP1 SHL DUP5 EQ PUSH2 0xB3B JUMPI PUSH2 0x67C PUSH32 0xE1873BDA5C648428A6693206E4E1B2CC6D2667F304DA1A0495711A74DDA0D4FE PUSH1 0x0 SHL PUSH2 0xEE4 JUMP JUMPDEST PUSH2 0x6A8 PUSH32 0x30EDEFAD882325936DE49872420E2E08F60C7C936B9926A3F66DACEA606347B3 PUSH1 0x0 SHL PUSH2 0xEE4 JUMP JUMPDEST PUSH2 0x6D4 PUSH32 0x79578A70DED54F64131ED013079550FB053468125B80DD974506EBA37848E916 PUSH1 0x0 SHL PUSH2 0xEE4 JUMP JUMPDEST PUSH1 0x0 PUSH1 0xA0 DUP6 SWAP1 SHR PUSH1 0x0 SHR SWAP1 POP PUSH2 0x70C PUSH32 0x891B396F1539D8EDB2450F69E306B2E9C62F99C6D87E438F389E655F1F6790E5 PUSH1 0x0 SHL PUSH2 0xEE4 JUMP JUMPDEST PUSH2 0x738 PUSH32 0xEF6BEE6B2D7E3E9879D06EE3B803FA0D0444D13DD214C9FCA34CD1883C6EEAAC PUSH1 0x0 SHL PUSH2 0xEE4 JUMP JUMPDEST PUSH1 0x0 PUSH20 0xFFFFFFFFFFFFFFFFFFFFFFFFFFFFFFFFFFFFFFFF PUSH1 0x0 SHL DUP7 AND PUSH1 0x0 SHR SWAP1 POP PUSH2 0x785 PUSH32 0xD156AAF3507DB8AE07CB8CC4CE7B68BACE745B127C6772264F513F27211D9094 PUSH1 0x0 SHL PUSH2 0xEE4 JUMP JUMPDEST PUSH2 0x7B1 PUSH32 0xAAA0354362ED91ADF131651DAEF02A341CEA4508804EEBAC275549CE77A5187 PUSH1 0x0 SHL PUSH2 0xEE4 JUMP JUMPDEST PUSH1 0x0 PUSH20 0xFFFFFFFFFFFFFFFFFFFFFFFFFFFFFFFFFFFFFFFF AND PUSH1 0x2 PUSH1 0x0 DUP5 PUSH12 0xFFFFFFFFFFFFFFFFFFFFFFFF AND PUSH12 0xFFFFFFFFFFFFFFFFFFFFFFFF AND DUP2 MSTORE PUSH1 0x20 ADD SWAP1 DUP2 MSTORE PUSH1 0x20 ADD PUSH1 0x0 KECCAK256 PUSH1 0x0 SWAP1 SLOAD SWAP1 PUSH2 0x100 EXP SWAP1 DIV PUSH20 0xFFFFFFFFFFFFFFFFFFFFFFFFFFFFFFFFFFFFFFFF AND PUSH20 0xFFFFFFFFFFFFFFFFFFFFFFFFFFFFFFFFFFFFFFFF AND EQ PUSH2 0x97B JUMPI PUSH2 0x860 PUSH32 0xE8B8A7940D7D1B1A14BB0A13B22516AF756AA121AB18274D913BB5B61C594C9A PUSH1 0x0 SHL PUSH2 0xEE4 JUMP JUMPDEST PUSH2 0x88C PUSH32 0x720BA68E2B8E390492A3956C7BD4A3C55CFB0B3215C7855B7B5540A05B0B9A43 PUSH1 0x0 SHL PUSH2 0xEE4 JUMP JUMPDEST PUSH2 0x8B8 PUSH32 0x1CABB19F9C80D2CCD0B0D78DF0584D4F8A55EAF6CC393E5C7E948A55EFD3A132 PUSH1 0x0 SHL PUSH2 0xEE4 JUMP JUMPDEST PUSH1 0x0 PUSH1 0x1 PUSH1 0x0 PUSH1 0x2 PUSH1 0x0 DUP7 PUSH12 0xFFFFFFFFFFFFFFFFFFFFFFFF AND PUSH12 0xFFFFFFFFFFFFFFFFFFFFFFFF AND DUP2 MSTORE PUSH1 0x20 ADD SWAP1 DUP2 MSTORE PUSH1 0x20 ADD PUSH1 0x0 KECCAK256 PUSH1 0x0 SWAP1 SLOAD SWAP1 PUSH2 0x100 EXP SWAP1 DIV PUSH20 0xFFFFFFFFFFFFFFFFFFFFFFFFFFFFFFFFFFFFFFFF AND PUSH20 0xFFFFFFFFFFFFFFFFFFFFFFFFFFFFFFFFFFFFFFFF AND PUSH20 0xFFFFFFFFFFFFFFFFFFFFFFFFFFFFFFFFFFFFFFFF AND DUP2 MSTORE PUSH1 0x20 ADD SWAP1 DUP2 MSTORE PUSH1 0x20 ADD PUSH1 0x0 KECCAK256 PUSH1 0x0 PUSH2 0x100 EXP DUP2 SLOAD DUP2 PUSH12 0xFFFFFFFFFFFFFFFFFFFFFFFF MUL NOT AND SWAP1 DUP4 PUSH12 0xFFFFFFFFFFFFFFFFFFFFFFFF AND MUL OR SWAP1 SSTORE POP PUSH2 0x9A8 JUMP JUMPDEST PUSH2 0x9A7 PUSH32 0xC9FA4B5CAAA12A547256A725F7BE11BB26CCC5C65577341E8570BB1C679AC646 PUSH1 0x0 SHL PUSH2 0xEE4 JUMP JUMPDEST JUMPDEST PUSH2 0x9D4 PUSH32 0x4984118A441466A98084D9BB489D37C2DCFDB5D15357092B84C1FDE1896631CC PUSH1 0x0 SHL PUSH2 0xEE4 JUMP JUMPDEST PUSH2 0xA00 PUSH32 0xFC1E49AF5DC18BA93D6D0FC472D12C047C3905C1AD7890AAD098BA39ACE48A34 PUSH1 0x0 SHL PUSH2 0xEE4 JUMP JUMPDEST DUP2 PUSH1 0x1 PUSH1 0x0 DUP4 PUSH20 0xFFFFFFFFFFFFFFFFFFFFFFFFFFFFFFFFFFFFFFFF AND PUSH20 0xFFFFFFFFFFFFFFFFFFFFFFFFFFFFFFFFFFFFFFFF AND DUP2 MSTORE PUSH1 0x20 ADD SWAP1 DUP2 MSTORE PUSH1 0x20 ADD PUSH1 0x0 KECCAK256 PUSH1 0x0 PUSH2 0x100 EXP DUP2 SLOAD DUP2 PUSH12 0xFFFFFFFFFFFFFFFFFFFFFFFF MUL NOT AND SWAP1 DUP4 PUSH12 0xFFFFFFFFFFFFFFFFFFFFFFFF AND MUL OR SWAP1 SSTORE POP PUSH2 0xA9A PUSH32 0xA79088D7477E62D7D0CE7D57AE9C36B7748D4E1573FCA5462C40F35A06FDB0F2 PUSH1 0x0 SHL PUSH2 0xEE4 JUMP JUMPDEST PUSH2 0xAC6 PUSH32 0x525B719BC550507D42867FADADDCA71793447304D84FD3DAF57773953CF18931 PUSH1 0x0 SHL PUSH2 0xEE4 JUMP JUMPDEST DUP1 PUSH1 0x2 PUSH1 0x0 DUP5 PUSH12 0xFFFFFFFFFFFFFFFFFFFFFFFF AND PUSH12 0xFFFFFFFFFFFFFFFFFFFFFFFF AND DUP2 MSTORE PUSH1 0x20 ADD SWAP1 DUP2 MSTORE PUSH1 0x20 ADD PUSH1 0x0 KECCAK256 PUSH1 0x0 PUSH2 0x100 EXP DUP2 SLOAD DUP2 PUSH20 0xFFFFFFFFFFFFFFFFFFFFFFFFFFFFFFFFFFFFFFFF MUL NOT AND SWAP1 DUP4 PUSH20 0xFFFFFFFFFFFFFFFFFFFFFFFFFFFFFFFFFFFFFFFF AND MUL OR SWAP1 SSTORE POP POP POP PUSH2 0xB68 JUMP JUMPDEST PUSH2 0xB67 PUSH32 0xDF456F20E069084952385CF5D0A42C7CDB023207207E5B79A39CF5FDD6E77051 PUSH1 0x0 SHL PUSH2 0xEE4 JUMP JUMPDEST JUMPDEST PUSH2 0xB94 PUSH32 0x41A71202F486434118C86C8DF33645E8192F5CC109EFF6FD38BEDFA3C4F27C03 PUSH1 0x0 SHL PUSH2 0xEE4 JUMP JUMPDEST PUSH2 0xBC0 PUSH32 0x99179D54869DA4B60540CE3A04109E34AA452D6854FE7DC9322E2E349DB92AAE PUSH1 0x0 SHL PUSH2 0xEE4 JUMP JUMPDEST PUSH32 0xF7A503E561205D742133BFF2027C118610BB7859D287101E367709CC321F18FD PUSH1 0x40 MLOAD PUSH1 0x40 MLOAD DUP1 SWAP2 SUB SWAP1 LOG1 POP POP POP POP POP JUMP JUMPDEST PUSH1 0x2 PUSH1 0x20 MSTORE DUP1 PUSH1 0x0 MSTORE PUSH1 0x40 PUSH1 0x0 KECCAK256 PUSH1 0x0 SWAP2 POP SLOAD SWAP1 PUSH2 0x100 EXP SWAP1 DIV PUSH20 0xFFFFFFFFFFFFFFFFFFFFFFFFFFFFFFFFFFFFFFFF AND DUP2 JUMP JUMPDEST DUP1 CALLER PUSH2 0xC54 PUSH32 0x4E44366A848BAE4D4FB318BB1EF7D501634311669541C0A063874E4959762ADF PUSH1 0x0 SHL PUSH2 0xEE4 JUMP JUMPDEST PUSH2 0xC80 PUSH32 0xD5CC5036C92B07FDF152114E9C7E55E27C4C54EB368CEDC5FF2873FAC5A03E0A PUSH1 0x0 SHL PUSH2 0xEE4 JUMP JUMPDEST PUSH2 0xCAC PUSH32 0x7274A2E8A8BD0AB2E2D0B0304FEC2A1843755CF94A63D175F8EE05986DD08FD6 PUSH1 0x0 SHL PUSH2 0xEE4 JUMP JUMPDEST PUSH2 0xCD8 PUSH32 0x4F35836455E7FD5A271A89574A8FBAE7E1E616BEA37445BDB1E3E5C156ABA8CC PUSH1 0x0 SHL PUSH2 0xEE4 JUMP JUMPDEST DUP1 PUSH20 0xFFFFFFFFFFFFFFFFFFFFFFFFFFFFFFFFFFFFFFFF AND PUSH1 0x2 PUSH1 0x0 DUP5 PUSH12 0xFFFFFFFFFFFFFFFFFFFFFFFF AND PUSH12 0xFFFFFFFFFFFFFFFFFFFFFFFF AND DUP2 MSTORE PUSH1 0x20 ADD SWAP1 DUP2 MSTORE PUSH1 0x20 ADD PUSH1 0x0 KECCAK256 PUSH1 0x0 SWAP1 SLOAD SWAP1 PUSH2 0x100 EXP SWAP1 DIV PUSH20 0xFFFFFFFFFFFFFFFFFFFFFFFFFFFFFFFFFFFFFFFF AND PUSH20 0xFFFFFFFFFFFFFFFFFFFFFFFFFFFFFFFFFFFFFFFF AND EQ PUSH2 0xD95 JUMPI PUSH1 0x40 MLOAD PUSH32 0x8C379A000000000000000000000000000000000000000000000000000000000 DUP2 MSTORE PUSH1 0x4 ADD PUSH2 0xD8C SWAP1 PUSH2 0x11AF JUMP JUMPDEST PUSH1 0x40 MLOAD DUP1 SWAP2 SUB SWAP1 REVERT JUMPDEST PUSH2 0xDC1 PUSH32 0x411CEE068E54000D0520A96B62F60143EDD77661345B29D9774BD079A84AEF24 PUSH1 0x0 SHL PUSH2 0xEE4 JUMP JUMPDEST PUSH2 0xDED PUSH32 0x12F8D157C60B2157EE1AECA537A267626403A6B3387775E4C26B24CCBC934E9 PUSH1 0x0 SHL PUSH2 0xEE4 JUMP JUMPDEST PUSH2 0xE19 PUSH32 0x5FFF4D896564A19385D62F3B7543C3AD3BA6635EE213A9ECD270ED798C48F7B3 PUSH1 0x0 SHL PUSH2 0xEE4 JUMP JUMPDEST PUSH2 0xE45 PUSH32 0xF76C78BD70942F6A0FB80A6C6DB11CA452440C957BDA45AA7E04D4BE4B65C689 PUSH1 0x0 SHL PUSH2 0xEE4 JUMP JUMPDEST PUSH2 0xE71 PUSH32 0xEF95798F8A500587F8E1951AE6D5FD603972B721E0785CE518FBB3EAF55BEB5E PUSH1 0x0 SHL PUSH2 0xEE4 JUMP JUMPDEST DUP3 PUSH1 0x1 PUSH1 0x0 CALLER PUSH20 0xFFFFFFFFFFFFFFFFFFFFFFFFFFFFFFFFFFFFFFFF AND PUSH20 0xFFFFFFFFFFFFFFFFFFFFFFFFFFFFFFFFFFFFFFFF AND DUP2 MSTORE PUSH1 0x20 ADD SWAP1 DUP2 MSTORE PUSH1 0x20 ADD PUSH1 0x0 KECCAK256 PUSH1 0x0 PUSH2 0x100 EXP DUP2 SLOAD DUP2 PUSH12 0xFFFFFFFFFFFFFFFFFFFFFFFF MUL NOT AND SWAP1 DUP4 PUSH12 0xFFFFFFFFFFFFFFFFFFFFFFFF AND MUL OR SWAP1 SSTORE POP POP POP POP JUMP JUMPDEST POP JUMP JUMPDEST PUSH1 0x0 DUP1 REVERT JUMPDEST PUSH1 0x0 DUP2 SWAP1 POP SWAP2 SWAP1 POP JUMP JUMPDEST PUSH2 0xEFF DUP2 PUSH2 0xEEC JUMP JUMPDEST DUP2 EQ PUSH2 0xF0A JUMPI PUSH1 0x0 DUP1 REVERT JUMPDEST POP JUMP JUMPDEST PUSH1 0x0 DUP2 CALLDATALOAD SWAP1 POP PUSH2 0xF1C DUP2 PUSH2 0xEF6 JUMP JUMPDEST SWAP3 SWAP2 POP POP JUMP JUMPDEST PUSH1 0x0 PUSH1 0x20 DUP3 DUP5 SUB SLT ISZERO PUSH2 0xF38 JUMPI PUSH2 0xF37 PUSH2 0xEE7 JUMP JUMPDEST JUMPDEST PUSH1 0x0 PUSH2 0xF46 DUP5 DUP3 DUP6 ADD PUSH2 0xF0D JUMP JUMPDEST SWAP2 POP POP SWAP3 SWAP2 POP POP JUMP JUMPDEST PUSH1 0x0 PUSH20 0xFFFFFFFFFFFFFFFFFFFFFFFFFFFFFFFFFFFFFFFF DUP3 AND SWAP1 POP SWAP2 SWAP1 POP JUMP JUMPDEST PUSH1 0x0 PUSH2 0xF7A DUP3 PUSH2 0xF4F JUMP JUMPDEST SWAP1 POP SWAP2 SWAP1 POP JUMP JUMPDEST PUSH2 0xF8A DUP2 PUSH2 0xF6F JUMP JUMPDEST DUP2 EQ PUSH2 0xF95 JUMPI PUSH1 0x0 DUP1 REVERT JUMPDEST POP JUMP JUMPDEST PUSH1 0x0 DUP2 CALLDATALOAD SWAP1 POP PUSH2 0xFA7 DUP2 PUSH2 0xF81 JUMP JUMPDEST SWAP3 SWAP2 POP POP JUMP JUMPDEST PUSH1 0x0 PUSH1 0x20 DUP3 DUP5 SUB SLT ISZERO PUSH2 0xFC3 JUMPI PUSH2 0xFC2 PUSH2 0xEE7 JUMP JUMPDEST JUMPDEST PUSH1 0x0 PUSH2 0xFD1 DUP5 DUP3 DUP6 ADD PUSH2 0xF98 JUMP JUMPDEST SWAP2 POP POP SWAP3 SWAP2 POP POP JUMP JUMPDEST PUSH1 0x0 PUSH12 0xFFFFFFFFFFFFFFFFFFFFFFFF DUP3 AND SWAP1 POP SWAP2 SWAP1 POP JUMP JUMPDEST PUSH2 0xFFB DUP2 PUSH2 0xFDA JUMP JUMPDEST DUP3 MSTORE POP POP JUMP JUMPDEST PUSH1 0x0 PUSH1 0x20 DUP3 ADD SWAP1 POP PUSH2 0x1016 PUSH1 0x0 DUP4 ADD DUP5 PUSH2 0xFF2 JUMP JUMPDEST SWAP3 SWAP2 POP POP JUMP JUMPDEST PUSH2 0x1025 DUP2 PUSH2 0xEEC JUMP JUMPDEST DUP3 MSTORE POP POP JUMP JUMPDEST PUSH1 0x0 PUSH1 0x20 DUP3 ADD SWAP1 POP PUSH2 0x1040 PUSH1 0x0 DUP4 ADD DUP5 PUSH2 0x101C JUMP JUMPDEST SWAP3 SWAP2 POP POP JUMP JUMPDEST PUSH2 0x104F DUP2 PUSH2 0xFDA JUMP JUMPDEST DUP2 EQ PUSH2 0x105A JUMPI PUSH1 0x0 DUP1 REVERT JUMPDEST POP JUMP JUMPDEST PUSH1 0x0 DUP2 CALLDATALOAD SWAP1 POP PUSH2 0x106C DUP2 PUSH2 0x1046 JUMP JUMPDEST SWAP3 SWAP2 POP POP JUMP JUMPDEST PUSH1 0x0 PUSH1 0x20 DUP3 DUP5 SUB SLT ISZERO PUSH2 0x1088 JUMPI PUSH2 0x1087 PUSH2 0xEE7 JUMP JUMPDEST JUMPDEST PUSH1 0x0 PUSH2 0x1096 DUP5 DUP3 DUP6 ADD PUSH2 0x105D JUMP JUMPDEST SWAP2 POP POP SWAP3 SWAP2 POP POP JUMP JUMPDEST PUSH2 0x10A8 DUP2 PUSH2 0xF6F JUMP JUMPDEST DUP3 MSTORE POP POP JUMP JUMPDEST PUSH1 0x0 PUSH1 0x20 DUP3 ADD SWAP1 POP PUSH2 0x10C3 PUSH1 0x0 DUP4 ADD DUP5 PUSH2 0x109F JUMP JUMPDEST SWAP3 SWAP2 POP POP JUMP JUMPDEST PUSH32 0x4E487B7100000000000000000000000000000000000000000000000000000000 PUSH1 0x0 MSTORE PUSH1 0x11 PUSH1 0x4 MSTORE PUSH1 0x24 PUSH1 0x0 REVERT JUMPDEST PUSH1 0x0 PUSH2 0x1103 DUP3 PUSH2 0xEEC JUMP JUMPDEST SWAP2 POP PUSH2 0x110E DUP4 PUSH2 0xEEC JUMP JUMPDEST SWAP3 POP DUP3 DUP3 ADD SWAP1 POP DUP1 DUP3 GT ISZERO PUSH2 0x1126 JUMPI PUSH2 0x1125 PUSH2 0x10C9 JUMP JUMPDEST JUMPDEST SWAP3 SWAP2 POP POP JUMP JUMPDEST PUSH1 0x0 DUP3 DUP3 MSTORE PUSH1 0x20 DUP3 ADD SWAP1 POP SWAP3 SWAP2 POP POP JUMP JUMPDEST PUSH32 0x596F752068617665206E6F742076657269666965642074686973205477697474 PUSH1 0x0 DUP3 ADD MSTORE PUSH32 0x6572204944207769746820796F7572206163636F756E74207965742E00000000 PUSH1 0x20 DUP3 ADD MSTORE POP JUMP JUMPDEST PUSH1 0x0 PUSH2 0x1199 PUSH1 0x3C DUP4 PUSH2 0x112C JUMP JUMPDEST SWAP2 POP PUSH2 0x11A4 DUP3 PUSH2 0x113D JUMP JUMPDEST PUSH1 0x40 DUP3 ADD SWAP1 POP SWAP2 SWAP1 POP JUMP JUMPDEST PUSH1 0x0 PUSH1 0x20 DUP3 ADD SWAP1 POP DUP2 DUP2 SUB PUSH1 0x0 DUP4 ADD MSTORE PUSH2 0x11C8 DUP2 PUSH2 0x118C JUMP JUMPDEST SWAP1 POP SWAP2 SWAP1 POP JUMP INVALID LOG2 PUSH5 0x6970667358 0x22 SLT KECCAK256 0xD0 0xBA 0xC4 DELEGATECALL ADD 0xAE 0xCD 0x2A 0xDB EXP PUSH11 0x117B57AD82859BFEB15AAD 0x5D 0xD3 MSTORE 0x4B 0xD2 SWAP9 SIGNEXTEND SUB 0xFC 0xD2 PUSH5 0x736F6C6343 STOP ADDMOD LT STOP CALLER "
        },
        "methodIdentifiers": {
          "addressTwitterID(address)": "68466b4b",
          "isTwitterAddressMatching()": "88e76d2b",
          "mockRequestAnswer(uint256)": "43185290",
          "requestTweetAddressCompare(uint96)": "ce1907df",
          "resolveToTwitterID(uint96)": "dceb828e",
          "twitterIDaddress(uint96)": "cf154b1f"
        }
      }
    }
  }
}