{
  "contracts/MockTwitter.sol": {
    "MockTwitterNameSpace": {
      "abi": [
        {
          "anonymous": false,
          "inputs": [],
          "name": "tweetRequestEvent",
          "type": "event"
        },
        {
          "inputs": [],
          "name": "_addressFromTweetMatches",
          "outputs": [
            {
              "internalType": "uint256",
              "name": "",
              "type": "uint256"
            }
          ],
          "stateMutability": "view",
          "type": "function"
        },
        {
          "inputs": [
            {
              "internalType": "address",
              "name": "",
              "type": "address"
            }
          ],
          "name": "addressTwitterID",
          "outputs": [
            {
              "internalType": "uint96",
              "name": "",
              "type": "uint96"
            }
          ],
          "stateMutability": "view",
          "type": "function"
        },
        {
          "inputs": [],
          "name": "mockFulfillLogic",
          "outputs": [],
          "stateMutability": "nonpayable",
          "type": "function"
        },
        {
          "inputs": [
            {
              "internalType": "uint256",
              "name": "mockRequestReturnValue",
              "type": "uint256"
            }
          ],
          "name": "mockRequestAnswer",
          "outputs": [],
          "stateMutability": "nonpayable",
          "type": "function"
        },
        {
          "inputs": [
            {
              "internalType": "uint96",
              "name": "twitter_id_Request",
              "type": "uint96"
            }
          ],
          "name": "requestTweetAddressCompare",
          "outputs": [],
          "stateMutability": "nonpayable",
          "type": "function"
        },
        {
          "inputs": [
            {
              "internalType": "uint96",
              "name": "_twitter_id",
              "type": "uint96"
            }
          ],
          "name": "resolveToTwitterID",
          "outputs": [],
          "stateMutability": "nonpayable",
          "type": "function"
        },
        {
          "inputs": [],
          "name": "tempRequestAddress",
          "outputs": [
            {
              "internalType": "address",
              "name": "",
              "type": "address"
            }
          ],
          "stateMutability": "view",
          "type": "function"
        },
        {
          "inputs": [],
          "name": "tempTwitter_id",
          "outputs": [
            {
              "internalType": "uint96",
              "name": "",
              "type": "uint96"
            }
          ],
          "stateMutability": "view",
          "type": "function"
        },
        {
          "inputs": [
            {
              "internalType": "uint96",
              "name": "",
              "type": "uint96"
            }
          ],
          "name": "twitterIDaddress",
          "outputs": [
            {
              "internalType": "address",
              "name": "",
              "type": "address"
            }
          ],
          "stateMutability": "view",
          "type": "function"
        }
      ],
      "evm": {
        "bytecode": {
          "linkReferences": {},
          "object": "608060405234801561001057600080fd5b506113d1806100206000396000f3fe608060405234801561001057600080fd5b50600436106100935760003560e01c8063a16d485511610066578063a16d485514610120578063ce1907df1461012a578063cf154b1f14610146578063dceb828e14610176578063f5454e631461019257610093565b80633e51bd701461009857806343185290146100b6578063624c984b146100d257806368466b4b146100f0575b600080fd5b6100a06101b0565b6040516100ad91906110d1565b60405180910390f35b6100d060048036038101906100cb9190611127565b6101ce565b005b6100da61025c565b6040516100e79190611195565b60405180910390f35b61010a600480360381019061010591906111dc565b610280565b60405161011791906110d1565b60405180910390f35b6101286102ab565b005b610144600480360381019061013f9190611235565b610aee565b005b610160600480360381019061015b9190611235565b610db0565b60405161016d9190611195565b60405180910390f35b610190600480360381019061018b9190611235565b610de3565b005b61019a6110a1565b6040516101a79190611271565b60405180910390f35b600060149054906101000a90046bffffffffffffffffffffffff1681565b6101fa7f79578a70ded54f64131ed013079550fb053468125b80dd974506eba37848e91660001b6110a7565b6102267f891b396f1539d8edb2450f69e306b2e9c62f99c6d87e438f389e655f1f6790e560001b6110a7565b6102527fef6bee6b2d7e3e9879d06ee3b803fa0d0444d13dd214c9fca34cd1883c6eeaac60001b6110a7565b8060018190555050565b60008054906101000a900473ffffffffffffffffffffffffffffffffffffffff1681565b60026020528060005260406000206000915054906101000a90046bffffffffffffffffffffffff1681565b6102d77fd156aaf3507db8ae07cb8cc4ce7b68bace745b127c6772264f513f27211d909460001b6110a7565b6103037f0aaa0354362ed91adf131651daef02a341cea4508804eebac275549ce77a518760001b6110a7565b61032f7fe8b8a7940d7d1b1a14bb0a13b22516af756aa121ab18274d913bb5b61c594c9a60001b6110a7565b6001805403610919576103647f720ba68e2b8e390492a3956c7bd4a3c55cfb0b3215c7855b7b5540a05b0b9a4360001b6110a7565b6103907f1cabb19f9c80d2ccd0b0d78df0584d4f8a55eaf6cc393e5c7e948a55efd3a13260001b6110a7565b6103bc7fc9fa4b5caaa12a547256a725f7be11bb26ccc5c65577341e8570bb1c679ac64660001b6110a7565b600073ffffffffffffffffffffffffffffffffffffffff16600360008060149054906101000a90046bffffffffffffffffffffffff166bffffffffffffffffffffffff166bffffffffffffffffffffffff16815260200190815260200160002060009054906101000a900473ffffffffffffffffffffffffffffffffffffffff1673ffffffffffffffffffffffffffffffffffffffff16146106e7576104847f4984118a441466a98084d9bb489d37c2dcfdb5d15357092b84c1fde1896631cc60001b6110a7565b6104b07ffc1e49af5dc18ba93d6d0fc472d12c047c3905c1ad7890aad098ba39ace48a3460001b6110a7565b6104dc7fa79088d7477e62d7d0ce7d57ae9c36b7748d4e1573fca5462c40f35a06fdb0f260001b6110a7565b600060026000600360008060149054906101000a90046bffffffffffffffffffffffff166bffffffffffffffffffffffff166bffffffffffffffffffffffff16815260200190815260200160002060009054906101000a900473ffffffffffffffffffffffffffffffffffffffff1673ffffffffffffffffffffffffffffffffffffffff1673ffffffffffffffffffffffffffffffffffffffff16815260200190815260200160002060006101000a8154816bffffffffffffffffffffffff02191690836bffffffffffffffffffffffff1602179055506105df7f525b719bc550507d42867fadaddca71793447304d84fd3daf57773953cf1893160001b6110a7565b61060b7fdf456f20e069084952385cf5d0a42c7cdb023207207e5b79a39cf5fdd6e7705160001b6110a7565b600060026000600360008060149054906101000a90046bffffffffffffffffffffffff166bffffffffffffffffffffffff166bffffffffffffffffffffffff16815260200190815260200160002060009054906101000a900473ffffffffffffffffffffffffffffffffffffffff1673ffffffffffffffffffffffffffffffffffffffff1673ffffffffffffffffffffffffffffffffffffffff16815260200190815260200160002060006101000a8154816bffffffffffffffffffffffff02191690836bffffffffffffffffffffffff160217905550610714565b6107137f41a71202f486434118c86c8df33645e8192f5cc109eff6fd38bedfa3c4f27c0360001b6110a7565b5b6107407f99179d54869da4b60540ce3a04109e34aa452d6854fe7dc9322e2e349db92aae60001b6110a7565b61076c7ffd0d80799200199d1ff24f40ca9d0cbea27ed58485735748300a554b8d57c56a60001b6110a7565b600060149054906101000a90046bffffffffffffffffffffffff16600260008060009054906101000a900473ffffffffffffffffffffffffffffffffffffffff1673ffffffffffffffffffffffffffffffffffffffff1673ffffffffffffffffffffffffffffffffffffffff16815260200190815260200160002060006101000a8154816bffffffffffffffffffffffff02191690836bffffffffffffffffffffffff1602179055506108417fe4dd3655bb4a0adcbfe5e0aca5ea4f31771062c421bca6437c2f1d44d38f9bc960001b6110a7565b61086d7f01db9641420b68390a7a9eab12dd12384563beb24f98598e8249bc75bef79da360001b6110a7565b60008054906101000a900473ffffffffffffffffffffffffffffffffffffffff16600360008060149054906101000a90046bffffffffffffffffffffffff166bffffffffffffffffffffffff166bffffffffffffffffffffffff16815260200190815260200160002060006101000a81548173ffffffffffffffffffffffffffffffffffffffff021916908373ffffffffffffffffffffffffffffffffffffffff160217905550610946565b6109457f5fff4d896564a19385d62f3b7543c3ad3ba6635ee213a9ecd270ed798c48f7b360001b6110a7565b5b6109727ff76c78bd70942f6a0fb80a6c6db11ca452440c957bda45aa7e04d4be4b65c68960001b6110a7565b61099e7fef95798f8a500587f8e1951ae6d5fd603972b721e0785ce518fbb3eaf55beb5e60001b6110a7565b60008060006101000a81548173ffffffffffffffffffffffffffffffffffffffff021916908373ffffffffffffffffffffffffffffffffffffffff160217905550610a0b7fa77fcc6ea7d77fd810988a2a528c46864bab2295fc28f806832a10d6907a700260001b6110a7565b610a377fc7bc88ed2a385182020cee8408cd67a318c3637dbf37b656134f5ef7286b691260001b6110a7565b60008060146101000a8154816bffffffffffffffffffffffff02191690836bffffffffffffffffffffffff160217905550610a947f88593324101c0a29203dd3a68eb8da417ab2bf645e94e9b22eeaec40e4644c4e60001b6110a7565b610ac07ff5bb87b09b20eef3b3600b42bdb52fa2fdafc27054139a244821a18e969a641360001b6110a7565b7ff7a503e561205d742133bff2027c118610bb7859d287101e367709cc321f18fd60405160405180910390a1565b610b1a7f456d701371a8a265e90a732bc069e881643edaa839b723830888ab40e8dce06e60001b6110a7565b610b467f0235afc5b3c388c4a4d8d3e5a6c985e87615da1d0e318f55d8780537e7b1c36360001b6110a7565b610b727f0ddf5d6adbd555b43b6d2f07204d2a9889234ec182a2ebecffb68fe60ef3961c60001b6110a7565b610b9e7f73fba0d310c25feedba5401755f752d43ab2b8fc091044be4b42c77466c240e760001b6110a7565b60008060149054906101000a90046bffffffffffffffffffffffff166bffffffffffffffffffffffff16148015610c215750600073ffffffffffffffffffffffffffffffffffffffff1660008054906101000a900473ffffffffffffffffffffffffffffffffffffffff1673ffffffffffffffffffffffffffffffffffffffff16145b610c60576040517f08c379a0000000000000000000000000000000000000000000000000000000008152600401610c57906112e9565b60405180910390fd5b610c8c7fac1a6174376ce7cd8f6e0cbeb2b795d34715bd019df637d15254fb007a6de53860001b6110a7565b610cb87f7faf4920137387a99982778c95a42e65e40575c644bfde554535091c6c94f3f760001b6110a7565b610ce47f634007afcf524ceca38fc4352813c251985759e50bf9e163fa973cbd26a726db60001b6110a7565b80600060146101000a8154816bffffffffffffffffffffffff02191690836bffffffffffffffffffffffff160217905550610d417fe1873bda5c648428a6693206e4e1b2cc6d2667f304da1a0495711a74dda0d4fe60001b6110a7565b610d6d7f30edefad882325936de49872420e2e08f60c7c936b9926a3f66dacea606347b360001b6110a7565b336000806101000a81548173ffffffffffffffffffffffffffffffffffffffff021916908373ffffffffffffffffffffffffffffffffffffffff16021790555050565b60036020528060005260406000206000915054906101000a900473ffffffffffffffffffffffffffffffffffffffff1681565b8033610e117f30fc678d3b588f454d7047e2c75938d9c6d3fbf7ebe5bb39adf34809bc46134760001b6110a7565b610e3d7f529693268e136cb5e7b999e1da228779f61147158c38b4cdc5e1ca5c7dd09d9060001b6110a7565b610e697f446479344d36cd97d48a1413d6063b7136cebecd92509dc0cb37642fc11a300560001b6110a7565b610e957fc06e5a45f051fce79e9f3ebbba6356ca7b458fd0bb77af4ff45c5633171dd22d60001b6110a7565b8073ffffffffffffffffffffffffffffffffffffffff1660036000846bffffffffffffffffffffffff166bffffffffffffffffffffffff16815260200190815260200160002060009054906101000a900473ffffffffffffffffffffffffffffffffffffffff1673ffffffffffffffffffffffffffffffffffffffff1614610f52576040517f08c379a0000000000000000000000000000000000000000000000000000000008152600401610f499061137b565b60405180910390fd5b610f7e7fb6e4e9c76d3c47f32f64b92f47866d84eee29a400c257d260e595bb457e55d0360001b6110a7565b610faa7f9a59d3fb5da853ede02fb29f56a014a856ad2603ba3fd9dbe95b4f9cd533658960001b6110a7565b610fd67fa9f46c4499eb935cb91d807064a3a8c6569e9bec2fdb221e5075eecc5aa3753d60001b6110a7565b6110027f91c0c0cf5b181140e060198c3bb50b72effff29c791e5f9d9138cc742da9583760001b6110a7565b61102e7fabe93d5b64099955b4f25ffd17a96d6c73dde04fe93b9e1458d0fde0b54580f560001b6110a7565b82600260003373ffffffffffffffffffffffffffffffffffffffff1673ffffffffffffffffffffffffffffffffffffffff16815260200190815260200160002060006101000a8154816bffffffffffffffffffffffff02191690836bffffffffffffffffffffffff160217905550505050565b60015481565b50565b60006bffffffffffffffffffffffff82169050919050565b6110cb816110aa565b82525050565b60006020820190506110e660008301846110c2565b92915050565b600080fd5b6000819050919050565b611104816110f1565b811461110f57600080fd5b50565b600081359050611121816110fb565b92915050565b60006020828403121561113d5761113c6110ec565b5b600061114b84828501611112565b91505092915050565b600073ffffffffffffffffffffffffffffffffffffffff82169050919050565b600061117f82611154565b9050919050565b61118f81611174565b82525050565b60006020820190506111aa6000830184611186565b92915050565b6111b981611174565b81146111c457600080fd5b50565b6000813590506111d6816111b0565b92915050565b6000602082840312156111f2576111f16110ec565b5b6000611200848285016111c7565b91505092915050565b611212816110aa565b811461121d57600080fd5b50565b60008135905061122f81611209565b92915050565b60006020828403121561124b5761124a6110ec565b5b600061125984828501611220565b91505092915050565b61126b816110f1565b82525050565b60006020820190506112866000830184611262565b92915050565b600082825260208201905092915050565b7f5245515545535420414c52454144592041435449564521000000000000000000600082015250565b60006112d360178361128c565b91506112de8261129d565b602082019050919050565b60006020820190508181036000830152611302816112c6565b9050919050565b7f596f752068617665206e6f74207665726966696564207468697320547769747460008201527f6572204944207769746820796f7572206163636f756e74207965742e00000000602082015250565b6000611365603c8361128c565b915061137082611309565b604082019050919050565b6000602082019050818103600083015261139481611358565b905091905056fea26469706673582212203009a6982e16044f5dd128dbe1ff8ba642f013861924afbd11e3a7983f9c992364736f6c63430008100033",
          "opcodes": "PUSH1 0x80 PUSH1 0x40 MSTORE CALLVALUE DUP1 ISZERO PUSH2 0x10 JUMPI PUSH1 0x0 DUP1 REVERT JUMPDEST POP PUSH2 0x13D1 DUP1 PUSH2 0x20 PUSH1 0x0 CODECOPY PUSH1 0x0 RETURN INVALID PUSH1 0x80 PUSH1 0x40 MSTORE CALLVALUE DUP1 ISZERO PUSH2 0x10 JUMPI PUSH1 0x0 DUP1 REVERT JUMPDEST POP PUSH1 0x4 CALLDATASIZE LT PUSH2 0x93 JUMPI PUSH1 0x0 CALLDATALOAD PUSH1 0xE0 SHR DUP1 PUSH4 0xA16D4855 GT PUSH2 0x66 JUMPI DUP1 PUSH4 0xA16D4855 EQ PUSH2 0x120 JUMPI DUP1 PUSH4 0xCE1907DF EQ PUSH2 0x12A JUMPI DUP1 PUSH4 0xCF154B1F EQ PUSH2 0x146 JUMPI DUP1 PUSH4 0xDCEB828E EQ PUSH2 0x176 JUMPI DUP1 PUSH4 0xF5454E63 EQ PUSH2 0x192 JUMPI PUSH2 0x93 JUMP JUMPDEST DUP1 PUSH4 0x3E51BD70 EQ PUSH2 0x98 JUMPI DUP1 PUSH4 0x43185290 EQ PUSH2 0xB6 JUMPI DUP1 PUSH4 0x624C984B EQ PUSH2 0xD2 JUMPI DUP1 PUSH4 0x68466B4B EQ PUSH2 0xF0 JUMPI JUMPDEST PUSH1 0x0 DUP1 REVERT JUMPDEST PUSH2 0xA0 PUSH2 0x1B0 JUMP JUMPDEST PUSH1 0x40 MLOAD PUSH2 0xAD SWAP2 SWAP1 PUSH2 0x10D1 JUMP JUMPDEST PUSH1 0x40 MLOAD DUP1 SWAP2 SUB SWAP1 RETURN JUMPDEST PUSH2 0xD0 PUSH1 0x4 DUP1 CALLDATASIZE SUB DUP2 ADD SWAP1 PUSH2 0xCB SWAP2 SWAP1 PUSH2 0x1127 JUMP JUMPDEST PUSH2 0x1CE JUMP JUMPDEST STOP JUMPDEST PUSH2 0xDA PUSH2 0x25C JUMP JUMPDEST PUSH1 0x40 MLOAD PUSH2 0xE7 SWAP2 SWAP1 PUSH2 0x1195 JUMP JUMPDEST PUSH1 0x40 MLOAD DUP1 SWAP2 SUB SWAP1 RETURN JUMPDEST PUSH2 0x10A PUSH1 0x4 DUP1 CALLDATASIZE SUB DUP2 ADD SWAP1 PUSH2 0x105 SWAP2 SWAP1 PUSH2 0x11DC JUMP JUMPDEST PUSH2 0x280 JUMP JUMPDEST PUSH1 0x40 MLOAD PUSH2 0x117 SWAP2 SWAP1 PUSH2 0x10D1 JUMP JUMPDEST PUSH1 0x40 MLOAD DUP1 SWAP2 SUB SWAP1 RETURN JUMPDEST PUSH2 0x128 PUSH2 0x2AB JUMP JUMPDEST STOP JUMPDEST PUSH2 0x144 PUSH1 0x4 DUP1 CALLDATASIZE SUB DUP2 ADD SWAP1 PUSH2 0x13F SWAP2 SWAP1 PUSH2 0x1235 JUMP JUMPDEST PUSH2 0xAEE JUMP JUMPDEST STOP JUMPDEST PUSH2 0x160 PUSH1 0x4 DUP1 CALLDATASIZE SUB DUP2 ADD SWAP1 PUSH2 0x15B SWAP2 SWAP1 PUSH2 0x1235 JUMP JUMPDEST PUSH2 0xDB0 JUMP JUMPDEST PUSH1 0x40 MLOAD PUSH2 0x16D SWAP2 SWAP1 PUSH2 0x1195 JUMP JUMPDEST PUSH1 0x40 MLOAD DUP1 SWAP2 SUB SWAP1 RETURN JUMPDEST PUSH2 0x190 PUSH1 0x4 DUP1 CALLDATASIZE SUB DUP2 ADD SWAP1 PUSH2 0x18B SWAP2 SWAP1 PUSH2 0x1235 JUMP JUMPDEST PUSH2 0xDE3 JUMP JUMPDEST STOP JUMPDEST PUSH2 0x19A PUSH2 0x10A1 JUMP JUMPDEST PUSH1 0x40 MLOAD PUSH2 0x1A7 SWAP2 SWAP1 PUSH2 0x1271 JUMP JUMPDEST PUSH1 0x40 MLOAD DUP1 SWAP2 SUB SWAP1 RETURN JUMPDEST PUSH1 0x0 PUSH1 0x14 SWAP1 SLOAD SWAP1 PUSH2 0x100 EXP SWAP1 DIV PUSH12 0xFFFFFFFFFFFFFFFFFFFFFFFF AND DUP2 JUMP JUMPDEST PUSH2 0x1FA PUSH32 0x79578A70DED54F64131ED013079550FB053468125B80DD974506EBA37848E916 PUSH1 0x0 SHL PUSH2 0x10A7 JUMP JUMPDEST PUSH2 0x226 PUSH32 0x891B396F1539D8EDB2450F69E306B2E9C62F99C6D87E438F389E655F1F6790E5 PUSH1 0x0 SHL PUSH2 0x10A7 JUMP JUMPDEST PUSH2 0x252 PUSH32 0xEF6BEE6B2D7E3E9879D06EE3B803FA0D0444D13DD214C9FCA34CD1883C6EEAAC PUSH1 0x0 SHL PUSH2 0x10A7 JUMP JUMPDEST DUP1 PUSH1 0x1 DUP2 SWAP1 SSTORE POP POP JUMP JUMPDEST PUSH1 0x0 DUP1 SLOAD SWAP1 PUSH2 0x100 EXP SWAP1 DIV PUSH20 0xFFFFFFFFFFFFFFFFFFFFFFFFFFFFFFFFFFFFFFFF AND DUP2 JUMP JUMPDEST PUSH1 0x2 PUSH1 0x20 MSTORE DUP1 PUSH1 0x0 MSTORE PUSH1 0x40 PUSH1 0x0 KECCAK256 PUSH1 0x0 SWAP2 POP SLOAD SWAP1 PUSH2 0x100 EXP SWAP1 DIV PUSH12 0xFFFFFFFFFFFFFFFFFFFFFFFF AND DUP2 JUMP JUMPDEST PUSH2 0x2D7 PUSH32 0xD156AAF3507DB8AE07CB8CC4CE7B68BACE745B127C6772264F513F27211D9094 PUSH1 0x0 SHL PUSH2 0x10A7 JUMP JUMPDEST PUSH2 0x303 PUSH32 0xAAA0354362ED91ADF131651DAEF02A341CEA4508804EEBAC275549CE77A5187 PUSH1 0x0 SHL PUSH2 0x10A7 JUMP JUMPDEST PUSH2 0x32F PUSH32 0xE8B8A7940D7D1B1A14BB0A13B22516AF756AA121AB18274D913BB5B61C594C9A PUSH1 0x0 SHL PUSH2 0x10A7 JUMP JUMPDEST PUSH1 0x1 DUP1 SLOAD SUB PUSH2 0x919 JUMPI PUSH2 0x364 PUSH32 0x720BA68E2B8E390492A3956C7BD4A3C55CFB0B3215C7855B7B5540A05B0B9A43 PUSH1 0x0 SHL PUSH2 0x10A7 JUMP JUMPDEST PUSH2 0x390 PUSH32 0x1CABB19F9C80D2CCD0B0D78DF0584D4F8A55EAF6CC393E5C7E948A55EFD3A132 PUSH1 0x0 SHL PUSH2 0x10A7 JUMP JUMPDEST PUSH2 0x3BC PUSH32 0xC9FA4B5CAAA12A547256A725F7BE11BB26CCC5C65577341E8570BB1C679AC646 PUSH1 0x0 SHL PUSH2 0x10A7 JUMP JUMPDEST PUSH1 0x0 PUSH20 0xFFFFFFFFFFFFFFFFFFFFFFFFFFFFFFFFFFFFFFFF AND PUSH1 0x3 PUSH1 0x0 DUP1 PUSH1 0x14 SWAP1 SLOAD SWAP1 PUSH2 0x100 EXP SWAP1 DIV PUSH12 0xFFFFFFFFFFFFFFFFFFFFFFFF AND PUSH12 0xFFFFFFFFFFFFFFFFFFFFFFFF AND PUSH12 0xFFFFFFFFFFFFFFFFFFFFFFFF AND DUP2 MSTORE PUSH1 0x20 ADD SWAP1 DUP2 MSTORE PUSH1 0x20 ADD PUSH1 0x0 KECCAK256 PUSH1 0x0 SWAP1 SLOAD SWAP1 PUSH2 0x100 EXP SWAP1 DIV PUSH20 0xFFFFFFFFFFFFFFFFFFFFFFFFFFFFFFFFFFFFFFFF AND PUSH20 0xFFFFFFFFFFFFFFFFFFFFFFFFFFFFFFFFFFFFFFFF AND EQ PUSH2 0x6E7 JUMPI PUSH2 0x484 PUSH32 0x4984118A441466A98084D9BB489D37C2DCFDB5D15357092B84C1FDE1896631CC PUSH1 0x0 SHL PUSH2 0x10A7 JUMP JUMPDEST PUSH2 0x4B0 PUSH32 0xFC1E49AF5DC18BA93D6D0FC472D12C047C3905C1AD7890AAD098BA39ACE48A34 PUSH1 0x0 SHL PUSH2 0x10A7 JUMP JUMPDEST PUSH2 0x4DC PUSH32 0xA79088D7477E62D7D0CE7D57AE9C36B7748D4E1573FCA5462C40F35A06FDB0F2 PUSH1 0x0 SHL PUSH2 0x10A7 JUMP JUMPDEST PUSH1 0x0 PUSH1 0x2 PUSH1 0x0 PUSH1 0x3 PUSH1 0x0 DUP1 PUSH1 0x14 SWAP1 SLOAD SWAP1 PUSH2 0x100 EXP SWAP1 DIV PUSH12 0xFFFFFFFFFFFFFFFFFFFFFFFF AND PUSH12 0xFFFFFFFFFFFFFFFFFFFFFFFF AND PUSH12 0xFFFFFFFFFFFFFFFFFFFFFFFF AND DUP2 MSTORE PUSH1 0x20 ADD SWAP1 DUP2 MSTORE PUSH1 0x20 ADD PUSH1 0x0 KECCAK256 PUSH1 0x0 SWAP1 SLOAD SWAP1 PUSH2 0x100 EXP SWAP1 DIV PUSH20 0xFFFFFFFFFFFFFFFFFFFFFFFFFFFFFFFFFFFFFFFF AND PUSH20 0xFFFFFFFFFFFFFFFFFFFFFFFFFFFFFFFFFFFFFFFF AND PUSH20 0xFFFFFFFFFFFFFFFFFFFFFFFFFFFFFFFFFFFFFFFF AND DUP2 MSTORE PUSH1 0x20 ADD SWAP1 DUP2 MSTORE PUSH1 0x20 ADD PUSH1 0x0 KECCAK256 PUSH1 0x0 PUSH2 0x100 EXP DUP2 SLOAD DUP2 PUSH12 0xFFFFFFFFFFFFFFFFFFFFFFFF MUL NOT AND SWAP1 DUP4 PUSH12 0xFFFFFFFFFFFFFFFFFFFFFFFF AND MUL OR SWAP1 SSTORE POP PUSH2 0x5DF PUSH32 0x525B719BC550507D42867FADADDCA71793447304D84FD3DAF57773953CF18931 PUSH1 0x0 SHL PUSH2 0x10A7 JUMP JUMPDEST PUSH2 0x60B PUSH32 0xDF456F20E069084952385CF5D0A42C7CDB023207207E5B79A39CF5FDD6E77051 PUSH1 0x0 SHL PUSH2 0x10A7 JUMP JUMPDEST PUSH1 0x0 PUSH1 0x2 PUSH1 0x0 PUSH1 0x3 PUSH1 0x0 DUP1 PUSH1 0x14 SWAP1 SLOAD SWAP1 PUSH2 0x100 EXP SWAP1 DIV PUSH12 0xFFFFFFFFFFFFFFFFFFFFFFFF AND PUSH12 0xFFFFFFFFFFFFFFFFFFFFFFFF AND PUSH12 0xFFFFFFFFFFFFFFFFFFFFFFFF AND DUP2 MSTORE PUSH1 0x20 ADD SWAP1 DUP2 MSTORE PUSH1 0x20 ADD PUSH1 0x0 KECCAK256 PUSH1 0x0 SWAP1 SLOAD SWAP1 PUSH2 0x100 EXP SWAP1 DIV PUSH20 0xFFFFFFFFFFFFFFFFFFFFFFFFFFFFFFFFFFFFFFFF AND PUSH20 0xFFFFFFFFFFFFFFFFFFFFFFFFFFFFFFFFFFFFFFFF AND PUSH20 0xFFFFFFFFFFFFFFFFFFFFFFFFFFFFFFFFFFFFFFFF AND DUP2 MSTORE PUSH1 0x20 ADD SWAP1 DUP2 MSTORE PUSH1 0x20 ADD PUSH1 0x0 KECCAK256 PUSH1 0x0 PUSH2 0x100 EXP DUP2 SLOAD DUP2 PUSH12 0xFFFFFFFFFFFFFFFFFFFFFFFF MUL NOT AND SWAP1 DUP4 PUSH12 0xFFFFFFFFFFFFFFFFFFFFFFFF AND MUL OR SWAP1 SSTORE POP PUSH2 0x714 JUMP JUMPDEST PUSH2 0x713 PUSH32 0x41A71202F486434118C86C8DF33645E8192F5CC109EFF6FD38BEDFA3C4F27C03 PUSH1 0x0 SHL PUSH2 0x10A7 JUMP JUMPDEST JUMPDEST PUSH2 0x740 PUSH32 0x99179D54869DA4B60540CE3A04109E34AA452D6854FE7DC9322E2E349DB92AAE PUSH1 0x0 SHL PUSH2 0x10A7 JUMP JUMPDEST PUSH2 0x76C PUSH32 0xFD0D80799200199D1FF24F40CA9D0CBEA27ED58485735748300A554B8D57C56A PUSH1 0x0 SHL PUSH2 0x10A7 JUMP JUMPDEST PUSH1 0x0 PUSH1 0x14 SWAP1 SLOAD SWAP1 PUSH2 0x100 EXP SWAP1 DIV PUSH12 0xFFFFFFFFFFFFFFFFFFFFFFFF AND PUSH1 0x2 PUSH1 0x0 DUP1 PUSH1 0x0 SWAP1 SLOAD SWAP1 PUSH2 0x100 EXP SWAP1 DIV PUSH20 0xFFFFFFFFFFFFFFFFFFFFFFFFFFFFFFFFFFFFFFFF AND PUSH20 0xFFFFFFFFFFFFFFFFFFFFFFFFFFFFFFFFFFFFFFFF AND PUSH20 0xFFFFFFFFFFFFFFFFFFFFFFFFFFFFFFFFFFFFFFFF AND DUP2 MSTORE PUSH1 0x20 ADD SWAP1 DUP2 MSTORE PUSH1 0x20 ADD PUSH1 0x0 KECCAK256 PUSH1 0x0 PUSH2 0x100 EXP DUP2 SLOAD DUP2 PUSH12 0xFFFFFFFFFFFFFFFFFFFFFFFF MUL NOT AND SWAP1 DUP4 PUSH12 0xFFFFFFFFFFFFFFFFFFFFFFFF AND MUL OR SWAP1 SSTORE POP PUSH2 0x841 PUSH32 0xE4DD3655BB4A0ADCBFE5E0ACA5EA4F31771062C421BCA6437C2F1D44D38F9BC9 PUSH1 0x0 SHL PUSH2 0x10A7 JUMP JUMPDEST PUSH2 0x86D PUSH32 0x1DB9641420B68390A7A9EAB12DD12384563BEB24F98598E8249BC75BEF79DA3 PUSH1 0x0 SHL PUSH2 0x10A7 JUMP JUMPDEST PUSH1 0x0 DUP1 SLOAD SWAP1 PUSH2 0x100 EXP SWAP1 DIV PUSH20 0xFFFFFFFFFFFFFFFFFFFFFFFFFFFFFFFFFFFFFFFF AND PUSH1 0x3 PUSH1 0x0 DUP1 PUSH1 0x14 SWAP1 SLOAD SWAP1 PUSH2 0x100 EXP SWAP1 DIV PUSH12 0xFFFFFFFFFFFFFFFFFFFFFFFF AND PUSH12 0xFFFFFFFFFFFFFFFFFFFFFFFF AND PUSH12 0xFFFFFFFFFFFFFFFFFFFFFFFF AND DUP2 MSTORE PUSH1 0x20 ADD SWAP1 DUP2 MSTORE PUSH1 0x20 ADD PUSH1 0x0 KECCAK256 PUSH1 0x0 PUSH2 0x100 EXP DUP2 SLOAD DUP2 PUSH20 0xFFFFFFFFFFFFFFFFFFFFFFFFFFFFFFFFFFFFFFFF MUL NOT AND SWAP1 DUP4 PUSH20 0xFFFFFFFFFFFFFFFFFFFFFFFFFFFFFFFFFFFFFFFF AND MUL OR SWAP1 SSTORE POP PUSH2 0x946 JUMP JUMPDEST PUSH2 0x945 PUSH32 0x5FFF4D896564A19385D62F3B7543C3AD3BA6635EE213A9ECD270ED798C48F7B3 PUSH1 0x0 SHL PUSH2 0x10A7 JUMP JUMPDEST JUMPDEST PUSH2 0x972 PUSH32 0xF76C78BD70942F6A0FB80A6C6DB11CA452440C957BDA45AA7E04D4BE4B65C689 PUSH1 0x0 SHL PUSH2 0x10A7 JUMP JUMPDEST PUSH2 0x99E PUSH32 0xEF95798F8A500587F8E1951AE6D5FD603972B721E0785CE518FBB3EAF55BEB5E PUSH1 0x0 SHL PUSH2 0x10A7 JUMP JUMPDEST PUSH1 0x0 DUP1 PUSH1 0x0 PUSH2 0x100 EXP DUP2 SLOAD DUP2 PUSH20 0xFFFFFFFFFFFFFFFFFFFFFFFFFFFFFFFFFFFFFFFF MUL NOT AND SWAP1 DUP4 PUSH20 0xFFFFFFFFFFFFFFFFFFFFFFFFFFFFFFFFFFFFFFFF AND MUL OR SWAP1 SSTORE POP PUSH2 0xA0B PUSH32 0xA77FCC6EA7D77FD810988A2A528C46864BAB2295FC28F806832A10D6907A7002 PUSH1 0x0 SHL PUSH2 0x10A7 JUMP JUMPDEST PUSH2 0xA37 PUSH32 0xC7BC88ED2A385182020CEE8408CD67A318C3637DBF37B656134F5EF7286B6912 PUSH1 0x0 SHL PUSH2 0x10A7 JUMP JUMPDEST PUSH1 0x0 DUP1 PUSH1 0x14 PUSH2 0x100 EXP DUP2 SLOAD DUP2 PUSH12 0xFFFFFFFFFFFFFFFFFFFFFFFF MUL NOT AND SWAP1 DUP4 PUSH12 0xFFFFFFFFFFFFFFFFFFFFFFFF AND MUL OR SWAP1 SSTORE POP PUSH2 0xA94 PUSH32 0x88593324101C0A29203DD3A68EB8DA417AB2BF645E94E9B22EEAEC40E4644C4E PUSH1 0x0 SHL PUSH2 0x10A7 JUMP JUMPDEST PUSH2 0xAC0 PUSH32 0xF5BB87B09B20EEF3B3600B42BDB52FA2FDAFC27054139A244821A18E969A6413 PUSH1 0x0 SHL PUSH2 0x10A7 JUMP JUMPDEST PUSH32 0xF7A503E561205D742133BFF2027C118610BB7859D287101E367709CC321F18FD PUSH1 0x40 MLOAD PUSH1 0x40 MLOAD DUP1 SWAP2 SUB SWAP1 LOG1 JUMP JUMPDEST PUSH2 0xB1A PUSH32 0x456D701371A8A265E90A732BC069E881643EDAA839B723830888AB40E8DCE06E PUSH1 0x0 SHL PUSH2 0x10A7 JUMP JUMPDEST PUSH2 0xB46 PUSH32 0x235AFC5B3C388C4A4D8D3E5A6C985E87615DA1D0E318F55D8780537E7B1C363 PUSH1 0x0 SHL PUSH2 0x10A7 JUMP JUMPDEST PUSH2 0xB72 PUSH32 0xDDF5D6ADBD555B43B6D2F07204D2A9889234EC182A2EBECFFB68FE60EF3961C PUSH1 0x0 SHL PUSH2 0x10A7 JUMP JUMPDEST PUSH2 0xB9E PUSH32 0x73FBA0D310C25FEEDBA5401755F752D43AB2B8FC091044BE4B42C77466C240E7 PUSH1 0x0 SHL PUSH2 0x10A7 JUMP JUMPDEST PUSH1 0x0 DUP1 PUSH1 0x14 SWAP1 SLOAD SWAP1 PUSH2 0x100 EXP SWAP1 DIV PUSH12 0xFFFFFFFFFFFFFFFFFFFFFFFF AND PUSH12 0xFFFFFFFFFFFFFFFFFFFFFFFF AND EQ DUP1 ISZERO PUSH2 0xC21 JUMPI POP PUSH1 0x0 PUSH20 0xFFFFFFFFFFFFFFFFFFFFFFFFFFFFFFFFFFFFFFFF AND PUSH1 0x0 DUP1 SLOAD SWAP1 PUSH2 0x100 EXP SWAP1 DIV PUSH20 0xFFFFFFFFFFFFFFFFFFFFFFFFFFFFFFFFFFFFFFFF AND PUSH20 0xFFFFFFFFFFFFFFFFFFFFFFFFFFFFFFFFFFFFFFFF AND EQ JUMPDEST PUSH2 0xC60 JUMPI PUSH1 0x40 MLOAD PUSH32 0x8C379A000000000000000000000000000000000000000000000000000000000 DUP2 MSTORE PUSH1 0x4 ADD PUSH2 0xC57 SWAP1 PUSH2 0x12E9 JUMP JUMPDEST PUSH1 0x40 MLOAD DUP1 SWAP2 SUB SWAP1 REVERT JUMPDEST PUSH2 0xC8C PUSH32 0xAC1A6174376CE7CD8F6E0CBEB2B795D34715BD019DF637D15254FB007A6DE538 PUSH1 0x0 SHL PUSH2 0x10A7 JUMP JUMPDEST PUSH2 0xCB8 PUSH32 0x7FAF4920137387A99982778C95A42E65E40575C644BFDE554535091C6C94F3F7 PUSH1 0x0 SHL PUSH2 0x10A7 JUMP JUMPDEST PUSH2 0xCE4 PUSH32 0x634007AFCF524CECA38FC4352813C251985759E50BF9E163FA973CBD26A726DB PUSH1 0x0 SHL PUSH2 0x10A7 JUMP JUMPDEST DUP1 PUSH1 0x0 PUSH1 0x14 PUSH2 0x100 EXP DUP2 SLOAD DUP2 PUSH12 0xFFFFFFFFFFFFFFFFFFFFFFFF MUL NOT AND SWAP1 DUP4 PUSH12 0xFFFFFFFFFFFFFFFFFFFFFFFF AND MUL OR SWAP1 SSTORE POP PUSH2 0xD41 PUSH32 0xE1873BDA5C648428A6693206E4E1B2CC6D2667F304DA1A0495711A74DDA0D4FE PUSH1 0x0 SHL PUSH2 0x10A7 JUMP JUMPDEST PUSH2 0xD6D PUSH32 0x30EDEFAD882325936DE49872420E2E08F60C7C936B9926A3F66DACEA606347B3 PUSH1 0x0 SHL PUSH2 0x10A7 JUMP JUMPDEST CALLER PUSH1 0x0 DUP1 PUSH2 0x100 EXP DUP2 SLOAD DUP2 PUSH20 0xFFFFFFFFFFFFFFFFFFFFFFFFFFFFFFFFFFFFFFFF MUL NOT AND SWAP1 DUP4 PUSH20 0xFFFFFFFFFFFFFFFFFFFFFFFFFFFFFFFFFFFFFFFF AND MUL OR SWAP1 SSTORE POP POP JUMP JUMPDEST PUSH1 0x3 PUSH1 0x20 MSTORE DUP1 PUSH1 0x0 MSTORE PUSH1 0x40 PUSH1 0x0 KECCAK256 PUSH1 0x0 SWAP2 POP SLOAD SWAP1 PUSH2 0x100 EXP SWAP1 DIV PUSH20 0xFFFFFFFFFFFFFFFFFFFFFFFFFFFFFFFFFFFFFFFF AND DUP2 JUMP JUMPDEST DUP1 CALLER PUSH2 0xE11 PUSH32 0x30FC678D3B588F454D7047E2C75938D9C6D3FBF7EBE5BB39ADF34809BC461347 PUSH1 0x0 SHL PUSH2 0x10A7 JUMP JUMPDEST PUSH2 0xE3D PUSH32 0x529693268E136CB5E7B999E1DA228779F61147158C38B4CDC5E1CA5C7DD09D90 PUSH1 0x0 SHL PUSH2 0x10A7 JUMP JUMPDEST PUSH2 0xE69 PUSH32 0x446479344D36CD97D48A1413D6063B7136CEBECD92509DC0CB37642FC11A3005 PUSH1 0x0 SHL PUSH2 0x10A7 JUMP JUMPDEST PUSH2 0xE95 PUSH32 0xC06E5A45F051FCE79E9F3EBBBA6356CA7B458FD0BB77AF4FF45C5633171DD22D PUSH1 0x0 SHL PUSH2 0x10A7 JUMP JUMPDEST DUP1 PUSH20 0xFFFFFFFFFFFFFFFFFFFFFFFFFFFFFFFFFFFFFFFF AND PUSH1 0x3 PUSH1 0x0 DUP5 PUSH12 0xFFFFFFFFFFFFFFFFFFFFFFFF AND PUSH12 0xFFFFFFFFFFFFFFFFFFFFFFFF AND DUP2 MSTORE PUSH1 0x20 ADD SWAP1 DUP2 MSTORE PUSH1 0x20 ADD PUSH1 0x0 KECCAK256 PUSH1 0x0 SWAP1 SLOAD SWAP1 PUSH2 0x100 EXP SWAP1 DIV PUSH20 0xFFFFFFFFFFFFFFFFFFFFFFFFFFFFFFFFFFFFFFFF AND PUSH20 0xFFFFFFFFFFFFFFFFFFFFFFFFFFFFFFFFFFFFFFFF AND EQ PUSH2 0xF52 JUMPI PUSH1 0x40 MLOAD PUSH32 0x8C379A000000000000000000000000000000000000000000000000000000000 DUP2 MSTORE PUSH1 0x4 ADD PUSH2 0xF49 SWAP1 PUSH2 0x137B JUMP JUMPDEST PUSH1 0x40 MLOAD DUP1 SWAP2 SUB SWAP1 REVERT JUMPDEST PUSH2 0xF7E PUSH32 0xB6E4E9C76D3C47F32F64B92F47866D84EEE29A400C257D260E595BB457E55D03 PUSH1 0x0 SHL PUSH2 0x10A7 JUMP JUMPDEST PUSH2 0xFAA PUSH32 0x9A59D3FB5DA853EDE02FB29F56A014A856AD2603BA3FD9DBE95B4F9CD5336589 PUSH1 0x0 SHL PUSH2 0x10A7 JUMP JUMPDEST PUSH2 0xFD6 PUSH32 0xA9F46C4499EB935CB91D807064A3A8C6569E9BEC2FDB221E5075EECC5AA3753D PUSH1 0x0 SHL PUSH2 0x10A7 JUMP JUMPDEST PUSH2 0x1002 PUSH32 0x91C0C0CF5B181140E060198C3BB50B72EFFFF29C791E5F9D9138CC742DA95837 PUSH1 0x0 SHL PUSH2 0x10A7 JUMP JUMPDEST PUSH2 0x102E PUSH32 0xABE93D5B64099955B4F25FFD17A96D6C73DDE04FE93B9E1458D0FDE0B54580F5 PUSH1 0x0 SHL PUSH2 0x10A7 JUMP JUMPDEST DUP3 PUSH1 0x2 PUSH1 0x0 CALLER PUSH20 0xFFFFFFFFFFFFFFFFFFFFFFFFFFFFFFFFFFFFFFFF AND PUSH20 0xFFFFFFFFFFFFFFFFFFFFFFFFFFFFFFFFFFFFFFFF AND DUP2 MSTORE PUSH1 0x20 ADD SWAP1 DUP2 MSTORE PUSH1 0x20 ADD PUSH1 0x0 KECCAK256 PUSH1 0x0 PUSH2 0x100 EXP DUP2 SLOAD DUP2 PUSH12 0xFFFFFFFFFFFFFFFFFFFFFFFF MUL NOT AND SWAP1 DUP4 PUSH12 0xFFFFFFFFFFFFFFFFFFFFFFFF AND MUL OR SWAP1 SSTORE POP POP POP POP JUMP JUMPDEST PUSH1 0x1 SLOAD DUP2 JUMP JUMPDEST POP JUMP JUMPDEST PUSH1 0x0 PUSH12 0xFFFFFFFFFFFFFFFFFFFFFFFF DUP3 AND SWAP1 POP SWAP2 SWAP1 POP JUMP JUMPDEST PUSH2 0x10CB DUP2 PUSH2 0x10AA JUMP JUMPDEST DUP3 MSTORE POP POP JUMP JUMPDEST PUSH1 0x0 PUSH1 0x20 DUP3 ADD SWAP1 POP PUSH2 0x10E6 PUSH1 0x0 DUP4 ADD DUP5 PUSH2 0x10C2 JUMP JUMPDEST SWAP3 SWAP2 POP POP JUMP JUMPDEST PUSH1 0x0 DUP1 REVERT JUMPDEST PUSH1 0x0 DUP2 SWAP1 POP SWAP2 SWAP1 POP JUMP JUMPDEST PUSH2 0x1104 DUP2 PUSH2 0x10F1 JUMP JUMPDEST DUP2 EQ PUSH2 0x110F JUMPI PUSH1 0x0 DUP1 REVERT JUMPDEST POP JUMP JUMPDEST PUSH1 0x0 DUP2 CALLDATALOAD SWAP1 POP PUSH2 0x1121 DUP2 PUSH2 0x10FB JUMP JUMPDEST SWAP3 SWAP2 POP POP JUMP JUMPDEST PUSH1 0x0 PUSH1 0x20 DUP3 DUP5 SUB SLT ISZERO PUSH2 0x113D JUMPI PUSH2 0x113C PUSH2 0x10EC JUMP JUMPDEST JUMPDEST PUSH1 0x0 PUSH2 0x114B DUP5 DUP3 DUP6 ADD PUSH2 0x1112 JUMP JUMPDEST SWAP2 POP POP SWAP3 SWAP2 POP POP JUMP JUMPDEST PUSH1 0x0 PUSH20 0xFFFFFFFFFFFFFFFFFFFFFFFFFFFFFFFFFFFFFFFF DUP3 AND SWAP1 POP SWAP2 SWAP1 POP JUMP JUMPDEST PUSH1 0x0 PUSH2 0x117F DUP3 PUSH2 0x1154 JUMP JUMPDEST SWAP1 POP SWAP2 SWAP1 POP JUMP JUMPDEST PUSH2 0x118F DUP2 PUSH2 0x1174 JUMP JUMPDEST DUP3 MSTORE POP POP JUMP JUMPDEST PUSH1 0x0 PUSH1 0x20 DUP3 ADD SWAP1 POP PUSH2 0x11AA PUSH1 0x0 DUP4 ADD DUP5 PUSH2 0x1186 JUMP JUMPDEST SWAP3 SWAP2 POP POP JUMP JUMPDEST PUSH2 0x11B9 DUP2 PUSH2 0x1174 JUMP JUMPDEST DUP2 EQ PUSH2 0x11C4 JUMPI PUSH1 0x0 DUP1 REVERT JUMPDEST POP JUMP JUMPDEST PUSH1 0x0 DUP2 CALLDATALOAD SWAP1 POP PUSH2 0x11D6 DUP2 PUSH2 0x11B0 JUMP JUMPDEST SWAP3 SWAP2 POP POP JUMP JUMPDEST PUSH1 0x0 PUSH1 0x20 DUP3 DUP5 SUB SLT ISZERO PUSH2 0x11F2 JUMPI PUSH2 0x11F1 PUSH2 0x10EC JUMP JUMPDEST JUMPDEST PUSH1 0x0 PUSH2 0x1200 DUP5 DUP3 DUP6 ADD PUSH2 0x11C7 JUMP JUMPDEST SWAP2 POP POP SWAP3 SWAP2 POP POP JUMP JUMPDEST PUSH2 0x1212 DUP2 PUSH2 0x10AA JUMP JUMPDEST DUP2 EQ PUSH2 0x121D JUMPI PUSH1 0x0 DUP1 REVERT JUMPDEST POP JUMP JUMPDEST PUSH1 0x0 DUP2 CALLDATALOAD SWAP1 POP PUSH2 0x122F DUP2 PUSH2 0x1209 JUMP JUMPDEST SWAP3 SWAP2 POP POP JUMP JUMPDEST PUSH1 0x0 PUSH1 0x20 DUP3 DUP5 SUB SLT ISZERO PUSH2 0x124B JUMPI PUSH2 0x124A PUSH2 0x10EC JUMP JUMPDEST JUMPDEST PUSH1 0x0 PUSH2 0x1259 DUP5 DUP3 DUP6 ADD PUSH2 0x1220 JUMP JUMPDEST SWAP2 POP POP SWAP3 SWAP2 POP POP JUMP JUMPDEST PUSH2 0x126B DUP2 PUSH2 0x10F1 JUMP JUMPDEST DUP3 MSTORE POP POP JUMP JUMPDEST PUSH1 0x0 PUSH1 0x20 DUP3 ADD SWAP1 POP PUSH2 0x1286 PUSH1 0x0 DUP4 ADD DUP5 PUSH2 0x1262 JUMP JUMPDEST SWAP3 SWAP2 POP POP JUMP JUMPDEST PUSH1 0x0 DUP3 DUP3 MSTORE PUSH1 0x20 DUP3 ADD SWAP1 POP SWAP3 SWAP2 POP POP JUMP JUMPDEST PUSH32 0x5245515545535420414C52454144592041435449564521000000000000000000 PUSH1 0x0 DUP3 ADD MSTORE POP JUMP JUMPDEST PUSH1 0x0 PUSH2 0x12D3 PUSH1 0x17 DUP4 PUSH2 0x128C JUMP JUMPDEST SWAP2 POP PUSH2 0x12DE DUP3 PUSH2 0x129D JUMP JUMPDEST PUSH1 0x20 DUP3 ADD SWAP1 POP SWAP2 SWAP1 POP JUMP JUMPDEST PUSH1 0x0 PUSH1 0x20 DUP3 ADD SWAP1 POP DUP2 DUP2 SUB PUSH1 0x0 DUP4 ADD MSTORE PUSH2 0x1302 DUP2 PUSH2 0x12C6 JUMP JUMPDEST SWAP1 POP SWAP2 SWAP1 POP JUMP JUMPDEST PUSH32 0x596F752068617665206E6F742076657269666965642074686973205477697474 PUSH1 0x0 DUP3 ADD MSTORE PUSH32 0x6572204944207769746820796F7572206163636F756E74207965742E00000000 PUSH1 0x20 DUP3 ADD MSTORE POP JUMP JUMPDEST PUSH1 0x0 PUSH2 0x1365 PUSH1 0x3C DUP4 PUSH2 0x128C JUMP JUMPDEST SWAP2 POP PUSH2 0x1370 DUP3 PUSH2 0x1309 JUMP JUMPDEST PUSH1 0x40 DUP3 ADD SWAP1 POP SWAP2 SWAP1 POP JUMP JUMPDEST PUSH1 0x0 PUSH1 0x20 DUP3 ADD SWAP1 POP DUP2 DUP2 SUB PUSH1 0x0 DUP4 ADD MSTORE PUSH2 0x1394 DUP2 PUSH2 0x1358 JUMP JUMPDEST SWAP1 POP SWAP2 SWAP1 POP JUMP INVALID LOG2 PUSH5 0x6970667358 0x22 SLT KECCAK256 ADDRESS MULMOD 0xA6 SWAP9 0x2E AND DIV 0x4F 0x5D 0xD1 0x28 0xDB 0xE1 SELFDESTRUCT DUP12 0xA6 TIMESTAMP CREATE SGT DUP7 NOT 0x24 0xAF 0xBD GT 0xE3 0xA7 SWAP9 EXTCODEHASH SWAP13 SWAP10 0x23 PUSH5 0x736F6C6343 STOP ADDMOD LT STOP CALLER "
        },
        "methodIdentifiers": {
          "_addressFromTweetMatches()": "f5454e63",
          "addressTwitterID(address)": "68466b4b",
          "mockFulfillLogic()": "a16d4855",
          "mockRequestAnswer(uint256)": "43185290",
          "requestTweetAddressCompare(uint96)": "ce1907df",
          "resolveToTwitterID(uint96)": "dceb828e",
          "tempRequestAddress()": "624c984b",
          "tempTwitter_id()": "3e51bd70",
          "twitterIDaddress(uint96)": "cf154b1f"
        }
      }
    }
  }
}