{
  "_format": "hh-sol-artifact-1",
  "contractName": "MockTwitterNameSpace",
  "sourceName": "contracts/MockTwitter.sol",
  "abi": [
    {
      "anonymous": false,
      "inputs": [],
      "name": "tweetRequestEvent",
      "type": "event"
    },
    {
      "inputs": [
        {
          "internalType": "address",
          "name": "",
          "type": "address"
        }
      ],
      "name": "addressTwitterID",
      "outputs": [
        {
          "internalType": "uint96",
          "name": "",
          "type": "uint96"
        }
      ],
      "stateMutability": "view",
      "type": "function"
    },
    {
      "inputs": [],
      "name": "isTwitterAddressMatching",
      "outputs": [
        {
          "internalType": "uint256",
          "name": "",
          "type": "uint256"
        }
      ],
      "stateMutability": "view",
      "type": "function"
    },
    {
      "inputs": [
        {
          "internalType": "uint256",
          "name": "setTwitterAddressMatching",
          "type": "uint256"
        }
      ],
      "name": "mockRequestAnswer",
      "outputs": [],
      "stateMutability": "nonpayable",
      "type": "function"
    },
    {
      "inputs": [
        {
          "internalType": "uint96",
          "name": "twitter_id_Request",
          "type": "uint96"
        }
      ],
      "name": "requestTweetAddressCompare",
      "outputs": [],
      "stateMutability": "nonpayable",
      "type": "function"
    },
    {
      "inputs": [
        {
          "internalType": "uint96",
          "name": "_twitter_id",
          "type": "uint96"
        }
      ],
      "name": "resolveToTwitterID",
      "outputs": [],
      "stateMutability": "nonpayable",
      "type": "function"
    },
    {
      "inputs": [
        {
          "internalType": "uint96",
          "name": "",
          "type": "uint96"
        }
      ],
      "name": "twitterIDaddress",
      "outputs": [
        {
          "internalType": "address",
          "name": "",
          "type": "address"
        }
      ],
      "stateMutability": "view",
      "type": "function"
    }
  ],
  "bytecode": "0x608060405234801561001057600080fd5b50611205806100206000396000f3fe608060405234801561001057600080fd5b50600436106100625760003560e01c8063431852901461006757806368466b4b1461008357806388e76d2b146100b3578063ce1907df146100d1578063cf154b1f146100ed578063dceb828e1461011d575b600080fd5b610081600480360381019061007c9190610f22565b610139565b005b61009d60048036038101906100989190610fad565b6101c7565b6040516100aa9190611001565b60405180910390f35b6100bb6101f2565b6040516100c8919061102b565b60405180910390f35b6100eb60048036038101906100e69190611072565b6101f8565b005b61010760048036038101906101029190611072565b610bf3565b60405161011491906110ae565b60405180910390f35b61013760048036038101906101329190611072565b610c26565b005b6101657ffd0d80799200199d1ff24f40ca9d0cbea27ed58485735748300a554b8d57c56a60001b610ee4565b6101917fe4dd3655bb4a0adcbfe5e0aca5ea4f31771062c421bca6437c2f1d44d38f9bc960001b610ee4565b6101bd7f01db9641420b68390a7a9eab12dd12384563beb24f98598e8249bc75bef79da360001b610ee4565b8060008190555050565b60016020528060005260406000206000915054906101000a90046bffffffffffffffffffffffff1681565b60005481565b6102247fbc1ea620e77e446a3e785dd13df32917109f03dd7b4785fbf1edb8816f75fabb60001b610ee4565b6102507ffaa423e3b391a45683ef0d78720c64a089e85e1a6b1cdf6a76d22879928a5b6c60001b610ee4565b61027c7fe5b9fb960516ad9632b370ba4f4a04b5b4f24b2e646f9a1bd71caf1fe2cfc41860001b610ee4565b60006102aa7f2154aada2490892a0ea643a0daa49e5dd249498b0293cfa558d4e0a6b88de4da60001b610ee4565b6102d67ff77d2f165cdaf6f0f21f93e3bd38338919c5ad0c4981793f456b92d8ee8f748f60001b610ee4565b60006103047f3014db41113c2da64eed49f07a9a8e4f302700ed4a29fe0f267998e10b17aac860001b610ee4565b6103307fd9af9eb2d0702dd3040dd2f5e8a91ca3e373f69e37c9068ec04c3f832f5adb5460001b610ee4565b600061035e7fd61a25ac8599b46438e999fbc9cb380be0d59972d266e83d97db01b35989d47360001b610ee4565b61038a7f6762eb174232bce7e2550ae0c11c2af67faaf12ed469ece2d0025f459afbe78e60001b610ee4565b60006103b87f7078f99ea49af2a4de10f0ddb9a733608df72e645990e1f40efbf28eb6cc3d4b60001b610ee4565b6103e47f30fc678d3b588f454d7047e2c75938d9c6d3fbf7ebe5bb39adf34809bc46134760001b610ee4565b6001600054036105c15761041a7f529693268e136cb5e7b999e1da228779f61147158c38b4cdc5e1ca5c7dd09d9060001b610ee4565b6104467f446479344d36cd97d48a1413d6063b7136cebecd92509dc0cb37642fc11a300560001b610ee4565b6104727fc06e5a45f051fce79e9f3ebbba6356ca7b458fd0bb77af4ff45c5633171dd22d60001b610ee4565b3373ffffffffffffffffffffffffffffffffffffffff1692506104b77fb6e4e9c76d3c47f32f64b92f47866d84eee29a400c257d260e595bb457e55d0360001b610ee4565b6104e37f9a59d3fb5da853ede02fb29f56a014a856ad2603ba3fd9dbe95b4f9cd533658960001b610ee4565b846bffffffffffffffffffffffff1691506105207f456d701371a8a265e90a732bc069e881643edaa839b723830888ab40e8dce06e60001b610ee4565b61054c7f0235afc5b3c388c4a4d8d3e5a6c985e87615da1d0e318f55d8780537e7b1c36360001b610ee4565b60a082901b905061057f7f0ddf5d6adbd555b43b6d2f07204d2a9889234ec182a2ebecffb68fe60ef3961c60001b610ee4565b6105ab7f73fba0d310c25feedba5401755f752d43ab2b8fc091044be4b42c77466c240e760001b610ee4565b82816105b791906110f8565b60001b93506105ee565b6105ed7fac1a6174376ce7cd8f6e0cbeb2b795d34715bd019df637d15254fb007a6de53860001b610ee4565b5b61061a7f7faf4920137387a99982778c95a42e65e40575c644bfde554535091c6c94f3f760001b610ee4565b6106467f634007afcf524ceca38fc4352813c251985759e50bf9e163fa973cbd26a726db60001b610ee4565b6000801b8414610b3b5761067c7fe1873bda5c648428a6693206e4e1b2cc6d2667f304da1a0495711a74dda0d4fe60001b610ee4565b6106a87f30edefad882325936de49872420e2e08f60c7c936b9926a3f66dacea606347b360001b610ee4565b6106d47f79578a70ded54f64131ed013079550fb053468125b80dd974506eba37848e91660001b610ee4565b600060a085901c60001c905061070c7f891b396f1539d8edb2450f69e306b2e9c62f99c6d87e438f389e655f1f6790e560001b610ee4565b6107387fef6bee6b2d7e3e9879d06ee3b803fa0d0444d13dd214c9fca34cd1883c6eeaac60001b610ee4565b600073ffffffffffffffffffffffffffffffffffffffff60001b861660001c90506107857fd156aaf3507db8ae07cb8cc4ce7b68bace745b127c6772264f513f27211d909460001b610ee4565b6107b17f0aaa0354362ed91adf131651daef02a341cea4508804eebac275549ce77a518760001b610ee4565b600073ffffffffffffffffffffffffffffffffffffffff1660026000846bffffffffffffffffffffffff166bffffffffffffffffffffffff16815260200190815260200160002060009054906101000a900473ffffffffffffffffffffffffffffffffffffffff1673ffffffffffffffffffffffffffffffffffffffff161461097b576108607fe8b8a7940d7d1b1a14bb0a13b22516af756aa121ab18274d913bb5b61c594c9a60001b610ee4565b61088c7f720ba68e2b8e390492a3956c7bd4a3c55cfb0b3215c7855b7b5540a05b0b9a4360001b610ee4565b6108b87f1cabb19f9c80d2ccd0b0d78df0584d4f8a55eaf6cc393e5c7e948a55efd3a13260001b610ee4565b60006001600060026000866bffffffffffffffffffffffff166bffffffffffffffffffffffff16815260200190815260200160002060009054906101000a900473ffffffffffffffffffffffffffffffffffffffff1673ffffffffffffffffffffffffffffffffffffffff1673ffffffffffffffffffffffffffffffffffffffff16815260200190815260200160002060006101000a8154816bffffffffffffffffffffffff02191690836bffffffffffffffffffffffff1602179055506109a8565b6109a77fc9fa4b5caaa12a547256a725f7be11bb26ccc5c65577341e8570bb1c679ac64660001b610ee4565b5b6109d47f4984118a441466a98084d9bb489d37c2dcfdb5d15357092b84c1fde1896631cc60001b610ee4565b610a007ffc1e49af5dc18ba93d6d0fc472d12c047c3905c1ad7890aad098ba39ace48a3460001b610ee4565b81600160008373ffffffffffffffffffffffffffffffffffffffff1673ffffffffffffffffffffffffffffffffffffffff16815260200190815260200160002060006101000a8154816bffffffffffffffffffffffff02191690836bffffffffffffffffffffffff160217905550610a9a7fa79088d7477e62d7d0ce7d57ae9c36b7748d4e1573fca5462c40f35a06fdb0f260001b610ee4565b610ac67f525b719bc550507d42867fadaddca71793447304d84fd3daf57773953cf1893160001b610ee4565b8060026000846bffffffffffffffffffffffff166bffffffffffffffffffffffff16815260200190815260200160002060006101000a81548173ffffffffffffffffffffffffffffffffffffffff021916908373ffffffffffffffffffffffffffffffffffffffff1602179055505050610b68565b610b677fdf456f20e069084952385cf5d0a42c7cdb023207207e5b79a39cf5fdd6e7705160001b610ee4565b5b610b947f41a71202f486434118c86c8df33645e8192f5cc109eff6fd38bedfa3c4f27c0360001b610ee4565b610bc07f99179d54869da4b60540ce3a04109e34aa452d6854fe7dc9322e2e349db92aae60001b610ee4565b7ff7a503e561205d742133bff2027c118610bb7859d287101e367709cc321f18fd60405160405180910390a15050505050565b60026020528060005260406000206000915054906101000a900473ffffffffffffffffffffffffffffffffffffffff1681565b8033610c547f4e44366a848bae4d4fb318bb1ef7d501634311669541c0a063874e4959762adf60001b610ee4565b610c807fd5cc5036c92b07fdf152114e9c7e55e27c4c54eb368cedc5ff2873fac5a03e0a60001b610ee4565b610cac7f7274a2e8a8bd0ab2e2d0b0304fec2a1843755cf94a63d175f8ee05986dd08fd660001b610ee4565b610cd87f4f35836455e7fd5a271a89574a8fbae7e1e616bea37445bdb1e3e5c156aba8cc60001b610ee4565b8073ffffffffffffffffffffffffffffffffffffffff1660026000846bffffffffffffffffffffffff166bffffffffffffffffffffffff16815260200190815260200160002060009054906101000a900473ffffffffffffffffffffffffffffffffffffffff1673ffffffffffffffffffffffffffffffffffffffff1614610d95576040517f08c379a0000000000000000000000000000000000000000000000000000000008152600401610d8c906111af565b60405180910390fd5b610dc17f411cee068e54000d0520a96b62f60143edd77661345b29d9774bd079a84aef2460001b610ee4565b610ded7f012f8d157c60b2157ee1aeca537a267626403a6b3387775e4c26b24ccbc934e960001b610ee4565b610e197f5fff4d896564a19385d62f3b7543c3ad3ba6635ee213a9ecd270ed798c48f7b360001b610ee4565b610e457ff76c78bd70942f6a0fb80a6c6db11ca452440c957bda45aa7e04d4be4b65c68960001b610ee4565b610e717fef95798f8a500587f8e1951ae6d5fd603972b721e0785ce518fbb3eaf55beb5e60001b610ee4565b82600160003373ffffffffffffffffffffffffffffffffffffffff1673ffffffffffffffffffffffffffffffffffffffff16815260200190815260200160002060006101000a8154816bffffffffffffffffffffffff02191690836bffffffffffffffffffffffff160217905550505050565b50565b600080fd5b6000819050919050565b610eff81610eec565b8114610f0a57600080fd5b50565b600081359050610f1c81610ef6565b92915050565b600060208284031215610f3857610f37610ee7565b5b6000610f4684828501610f0d565b91505092915050565b600073ffffffffffffffffffffffffffffffffffffffff82169050919050565b6000610f7a82610f4f565b9050919050565b610f8a81610f6f565b8114610f9557600080fd5b50565b600081359050610fa781610f81565b92915050565b600060208284031215610fc357610fc2610ee7565b5b6000610fd184828501610f98565b91505092915050565b60006bffffffffffffffffffffffff82169050919050565b610ffb81610fda565b82525050565b60006020820190506110166000830184610ff2565b92915050565b61102581610eec565b82525050565b6000602082019050611040600083018461101c565b92915050565b61104f81610fda565b811461105a57600080fd5b50565b60008135905061106c81611046565b92915050565b60006020828403121561108857611087610ee7565b5b60006110968482850161105d565b91505092915050565b6110a881610f6f565b82525050565b60006020820190506110c3600083018461109f565b92915050565b7f4e487b7100000000000000000000000000000000000000000000000000000000600052601160045260246000fd5b600061110382610eec565b915061110e83610eec565b9250828201905080821115611126576111256110c9565b5b92915050565b600082825260208201905092915050565b7f596f752068617665206e6f74207665726966696564207468697320547769747460008201527f6572204944207769746820796f7572206163636f756e74207965742e00000000602082015250565b6000611199603c8361112c565b91506111a48261113d565b604082019050919050565b600060208201905081810360008301526111c88161118c565b905091905056fea2646970667358221220d0bac4f401aecd2adb0a6a117b57ad82859bfeb15aad5dd3524bd2980b03fcd264736f6c63430008100033",
  "linkReferences": {},
  "deployedLinkReferences": {}
}