{
  "_format": "hh-sol-artifact-1",
  "contractName": "MockTwitterNameSpace",
  "sourceName": "contracts/MockTwitter.sol",
  "abi": [
    {
      "anonymous": false,
      "inputs": [],
      "name": "tweetRequestEvent",
      "type": "event"
    },
    {
      "inputs": [],
      "name": "_addressFromTweetMatches",
      "outputs": [
        {
          "internalType": "uint256",
          "name": "",
          "type": "uint256"
        }
      ],
      "stateMutability": "view",
      "type": "function"
    },
    {
      "inputs": [
        {
          "internalType": "address",
          "name": "",
          "type": "address"
        }
      ],
      "name": "addressTwitterID",
      "outputs": [
        {
          "internalType": "uint96",
          "name": "",
          "type": "uint96"
        }
      ],
      "stateMutability": "view",
      "type": "function"
    },
    {
      "inputs": [],
      "name": "mockFulfillLogic",
      "outputs": [],
      "stateMutability": "nonpayable",
      "type": "function"
    },
    {
      "inputs": [
        {
          "internalType": "uint256",
          "name": "mockRequestReturnValue",
          "type": "uint256"
        }
      ],
      "name": "mockRequestAnswer",
      "outputs": [],
      "stateMutability": "nonpayable",
      "type": "function"
    },
    {
      "inputs": [
        {
          "internalType": "uint96",
          "name": "twitter_id_Request",
          "type": "uint96"
        }
      ],
      "name": "requestTweetAddressCompare",
      "outputs": [],
      "stateMutability": "nonpayable",
      "type": "function"
    },
    {
      "inputs": [
        {
          "internalType": "uint96",
          "name": "_twitter_id",
          "type": "uint96"
        }
      ],
      "name": "resolveToTwitterID",
      "outputs": [],
      "stateMutability": "nonpayable",
      "type": "function"
    },
    {
      "inputs": [],
      "name": "tempRequestAddress",
      "outputs": [
        {
          "internalType": "address",
          "name": "",
          "type": "address"
        }
      ],
      "stateMutability": "view",
      "type": "function"
    },
    {
      "inputs": [],
      "name": "tempTwitter_id",
      "outputs": [
        {
          "internalType": "uint96",
          "name": "",
          "type": "uint96"
        }
      ],
      "stateMutability": "view",
      "type": "function"
    },
    {
      "inputs": [
        {
          "internalType": "uint96",
          "name": "",
          "type": "uint96"
        }
      ],
      "name": "twitterIDaddress",
      "outputs": [
        {
          "internalType": "address",
          "name": "",
          "type": "address"
        }
      ],
      "stateMutability": "view",
      "type": "function"
    }
  ],
  "bytecode": "0x608060405234801561001057600080fd5b506113d1806100206000396000f3fe608060405234801561001057600080fd5b50600436106100935760003560e01c8063a16d485511610066578063a16d485514610120578063ce1907df1461012a578063cf154b1f14610146578063dceb828e14610176578063f5454e631461019257610093565b80633e51bd701461009857806343185290146100b6578063624c984b146100d257806368466b4b146100f0575b600080fd5b6100a06101b0565b6040516100ad91906110d1565b60405180910390f35b6100d060048036038101906100cb9190611127565b6101ce565b005b6100da61025c565b6040516100e79190611195565b60405180910390f35b61010a600480360381019061010591906111dc565b610280565b60405161011791906110d1565b60405180910390f35b6101286102ab565b005b610144600480360381019061013f9190611235565b610aee565b005b610160600480360381019061015b9190611235565b610db0565b60405161016d9190611195565b60405180910390f35b610190600480360381019061018b9190611235565b610de3565b005b61019a6110a1565b6040516101a79190611271565b60405180910390f35b600060149054906101000a90046bffffffffffffffffffffffff1681565b6101fa7f79578a70ded54f64131ed013079550fb053468125b80dd974506eba37848e91660001b6110a7565b6102267f891b396f1539d8edb2450f69e306b2e9c62f99c6d87e438f389e655f1f6790e560001b6110a7565b6102527fef6bee6b2d7e3e9879d06ee3b803fa0d0444d13dd214c9fca34cd1883c6eeaac60001b6110a7565b8060018190555050565b60008054906101000a900473ffffffffffffffffffffffffffffffffffffffff1681565b60026020528060005260406000206000915054906101000a90046bffffffffffffffffffffffff1681565b6102d77fd156aaf3507db8ae07cb8cc4ce7b68bace745b127c6772264f513f27211d909460001b6110a7565b6103037f0aaa0354362ed91adf131651daef02a341cea4508804eebac275549ce77a518760001b6110a7565b61032f7fe8b8a7940d7d1b1a14bb0a13b22516af756aa121ab18274d913bb5b61c594c9a60001b6110a7565b6001805403610919576103647f720ba68e2b8e390492a3956c7bd4a3c55cfb0b3215c7855b7b5540a05b0b9a4360001b6110a7565b6103907f1cabb19f9c80d2ccd0b0d78df0584d4f8a55eaf6cc393e5c7e948a55efd3a13260001b6110a7565b6103bc7fc9fa4b5caaa12a547256a725f7be11bb26ccc5c65577341e8570bb1c679ac64660001b6110a7565b600073ffffffffffffffffffffffffffffffffffffffff16600360008060149054906101000a90046bffffffffffffffffffffffff166bffffffffffffffffffffffff166bffffffffffffffffffffffff16815260200190815260200160002060009054906101000a900473ffffffffffffffffffffffffffffffffffffffff1673ffffffffffffffffffffffffffffffffffffffff16146106e7576104847f4984118a441466a98084d9bb489d37c2dcfdb5d15357092b84c1fde1896631cc60001b6110a7565b6104b07ffc1e49af5dc18ba93d6d0fc472d12c047c3905c1ad7890aad098ba39ace48a3460001b6110a7565b6104dc7fa79088d7477e62d7d0ce7d57ae9c36b7748d4e1573fca5462c40f35a06fdb0f260001b6110a7565b600060026000600360008060149054906101000a90046bffffffffffffffffffffffff166bffffffffffffffffffffffff166bffffffffffffffffffffffff16815260200190815260200160002060009054906101000a900473ffffffffffffffffffffffffffffffffffffffff1673ffffffffffffffffffffffffffffffffffffffff1673ffffffffffffffffffffffffffffffffffffffff16815260200190815260200160002060006101000a8154816bffffffffffffffffffffffff02191690836bffffffffffffffffffffffff1602179055506105df7f525b719bc550507d42867fadaddca71793447304d84fd3daf57773953cf1893160001b6110a7565b61060b7fdf456f20e069084952385cf5d0a42c7cdb023207207e5b79a39cf5fdd6e7705160001b6110a7565b600060026000600360008060149054906101000a90046bffffffffffffffffffffffff166bffffffffffffffffffffffff166bffffffffffffffffffffffff16815260200190815260200160002060009054906101000a900473ffffffffffffffffffffffffffffffffffffffff1673ffffffffffffffffffffffffffffffffffffffff1673ffffffffffffffffffffffffffffffffffffffff16815260200190815260200160002060006101000a8154816bffffffffffffffffffffffff02191690836bffffffffffffffffffffffff160217905550610714565b6107137f41a71202f486434118c86c8df33645e8192f5cc109eff6fd38bedfa3c4f27c0360001b6110a7565b5b6107407f99179d54869da4b60540ce3a04109e34aa452d6854fe7dc9322e2e349db92aae60001b6110a7565b61076c7ffd0d80799200199d1ff24f40ca9d0cbea27ed58485735748300a554b8d57c56a60001b6110a7565b600060149054906101000a90046bffffffffffffffffffffffff16600260008060009054906101000a900473ffffffffffffffffffffffffffffffffffffffff1673ffffffffffffffffffffffffffffffffffffffff1673ffffffffffffffffffffffffffffffffffffffff16815260200190815260200160002060006101000a8154816bffffffffffffffffffffffff02191690836bffffffffffffffffffffffff1602179055506108417fe4dd3655bb4a0adcbfe5e0aca5ea4f31771062c421bca6437c2f1d44d38f9bc960001b6110a7565b61086d7f01db9641420b68390a7a9eab12dd12384563beb24f98598e8249bc75bef79da360001b6110a7565b60008054906101000a900473ffffffffffffffffffffffffffffffffffffffff16600360008060149054906101000a90046bffffffffffffffffffffffff166bffffffffffffffffffffffff166bffffffffffffffffffffffff16815260200190815260200160002060006101000a81548173ffffffffffffffffffffffffffffffffffffffff021916908373ffffffffffffffffffffffffffffffffffffffff160217905550610946565b6109457f5fff4d896564a19385d62f3b7543c3ad3ba6635ee213a9ecd270ed798c48f7b360001b6110a7565b5b6109727ff76c78bd70942f6a0fb80a6c6db11ca452440c957bda45aa7e04d4be4b65c68960001b6110a7565b61099e7fef95798f8a500587f8e1951ae6d5fd603972b721e0785ce518fbb3eaf55beb5e60001b6110a7565b60008060006101000a81548173ffffffffffffffffffffffffffffffffffffffff021916908373ffffffffffffffffffffffffffffffffffffffff160217905550610a0b7fa77fcc6ea7d77fd810988a2a528c46864bab2295fc28f806832a10d6907a700260001b6110a7565b610a377fc7bc88ed2a385182020cee8408cd67a318c3637dbf37b656134f5ef7286b691260001b6110a7565b60008060146101000a8154816bffffffffffffffffffffffff02191690836bffffffffffffffffffffffff160217905550610a947f88593324101c0a29203dd3a68eb8da417ab2bf645e94e9b22eeaec40e4644c4e60001b6110a7565b610ac07ff5bb87b09b20eef3b3600b42bdb52fa2fdafc27054139a244821a18e969a641360001b6110a7565b7ff7a503e561205d742133bff2027c118610bb7859d287101e367709cc321f18fd60405160405180910390a1565b610b1a7f456d701371a8a265e90a732bc069e881643edaa839b723830888ab40e8dce06e60001b6110a7565b610b467f0235afc5b3c388c4a4d8d3e5a6c985e87615da1d0e318f55d8780537e7b1c36360001b6110a7565b610b727f0ddf5d6adbd555b43b6d2f07204d2a9889234ec182a2ebecffb68fe60ef3961c60001b6110a7565b610b9e7f73fba0d310c25feedba5401755f752d43ab2b8fc091044be4b42c77466c240e760001b6110a7565b60008060149054906101000a90046bffffffffffffffffffffffff166bffffffffffffffffffffffff16148015610c215750600073ffffffffffffffffffffffffffffffffffffffff1660008054906101000a900473ffffffffffffffffffffffffffffffffffffffff1673ffffffffffffffffffffffffffffffffffffffff16145b610c60576040517f08c379a0000000000000000000000000000000000000000000000000000000008152600401610c57906112e9565b60405180910390fd5b610c8c7fac1a6174376ce7cd8f6e0cbeb2b795d34715bd019df637d15254fb007a6de53860001b6110a7565b610cb87f7faf4920137387a99982778c95a42e65e40575c644bfde554535091c6c94f3f760001b6110a7565b610ce47f634007afcf524ceca38fc4352813c251985759e50bf9e163fa973cbd26a726db60001b6110a7565b80600060146101000a8154816bffffffffffffffffffffffff02191690836bffffffffffffffffffffffff160217905550610d417fe1873bda5c648428a6693206e4e1b2cc6d2667f304da1a0495711a74dda0d4fe60001b6110a7565b610d6d7f30edefad882325936de49872420e2e08f60c7c936b9926a3f66dacea606347b360001b6110a7565b336000806101000a81548173ffffffffffffffffffffffffffffffffffffffff021916908373ffffffffffffffffffffffffffffffffffffffff16021790555050565b60036020528060005260406000206000915054906101000a900473ffffffffffffffffffffffffffffffffffffffff1681565b8033610e117f30fc678d3b588f454d7047e2c75938d9c6d3fbf7ebe5bb39adf34809bc46134760001b6110a7565b610e3d7f529693268e136cb5e7b999e1da228779f61147158c38b4cdc5e1ca5c7dd09d9060001b6110a7565b610e697f446479344d36cd97d48a1413d6063b7136cebecd92509dc0cb37642fc11a300560001b6110a7565b610e957fc06e5a45f051fce79e9f3ebbba6356ca7b458fd0bb77af4ff45c5633171dd22d60001b6110a7565b8073ffffffffffffffffffffffffffffffffffffffff1660036000846bffffffffffffffffffffffff166bffffffffffffffffffffffff16815260200190815260200160002060009054906101000a900473ffffffffffffffffffffffffffffffffffffffff1673ffffffffffffffffffffffffffffffffffffffff1614610f52576040517f08c379a0000000000000000000000000000000000000000000000000000000008152600401610f499061137b565b60405180910390fd5b610f7e7fb6e4e9c76d3c47f32f64b92f47866d84eee29a400c257d260e595bb457e55d0360001b6110a7565b610faa7f9a59d3fb5da853ede02fb29f56a014a856ad2603ba3fd9dbe95b4f9cd533658960001b6110a7565b610fd67fa9f46c4499eb935cb91d807064a3a8c6569e9bec2fdb221e5075eecc5aa3753d60001b6110a7565b6110027f91c0c0cf5b181140e060198c3bb50b72effff29c791e5f9d9138cc742da9583760001b6110a7565b61102e7fabe93d5b64099955b4f25ffd17a96d6c73dde04fe93b9e1458d0fde0b54580f560001b6110a7565b82600260003373ffffffffffffffffffffffffffffffffffffffff1673ffffffffffffffffffffffffffffffffffffffff16815260200190815260200160002060006101000a8154816bffffffffffffffffffffffff02191690836bffffffffffffffffffffffff160217905550505050565b60015481565b50565b60006bffffffffffffffffffffffff82169050919050565b6110cb816110aa565b82525050565b60006020820190506110e660008301846110c2565b92915050565b600080fd5b6000819050919050565b611104816110f1565b811461110f57600080fd5b50565b600081359050611121816110fb565b92915050565b60006020828403121561113d5761113c6110ec565b5b600061114b84828501611112565b91505092915050565b600073ffffffffffffffffffffffffffffffffffffffff82169050919050565b600061117f82611154565b9050919050565b61118f81611174565b82525050565b60006020820190506111aa6000830184611186565b92915050565b6111b981611174565b81146111c457600080fd5b50565b6000813590506111d6816111b0565b92915050565b6000602082840312156111f2576111f16110ec565b5b6000611200848285016111c7565b91505092915050565b611212816110aa565b811461121d57600080fd5b50565b60008135905061122f81611209565b92915050565b60006020828403121561124b5761124a6110ec565b5b600061125984828501611220565b91505092915050565b61126b816110f1565b82525050565b60006020820190506112866000830184611262565b92915050565b600082825260208201905092915050565b7f5245515545535420414c52454144592041435449564521000000000000000000600082015250565b60006112d360178361128c565b91506112de8261129d565b602082019050919050565b60006020820190508181036000830152611302816112c6565b9050919050565b7f596f752068617665206e6f74207665726966696564207468697320547769747460008201527f6572204944207769746820796f7572206163636f756e74207965742e00000000602082015250565b6000611365603c8361128c565b915061137082611309565b604082019050919050565b6000602082019050818103600083015261139481611358565b905091905056fea26469706673582212203009a6982e16044f5dd128dbe1ff8ba642f013861924afbd11e3a7983f9c992364736f6c63430008100033",
  "linkReferences": {},
  "deployedLinkReferences": {}
}