{
  "_format": "hh-sol-artifact-1",
  "contractName": "MockTwitterNameSpaceCompressed",
  "sourceName": "contracts/MockTwitterCompressed.sol",
  "abi": [
    {
      "anonymous": false,
      "inputs": [],
      "name": "tweetRequestEvent",
      "type": "event"
    },
    {
      "inputs": [],
      "name": "_addressFromTweetMatches",
      "outputs": [
        {
          "internalType": "uint256",
          "name": "",
          "type": "uint256"
        }
      ],
      "stateMutability": "view",
      "type": "function"
    },
    {
      "inputs": [
        {
          "internalType": "address",
          "name": "",
          "type": "address"
        }
      ],
      "name": "addressTwitterID",
      "outputs": [
        {
          "internalType": "uint96",
          "name": "",
          "type": "uint96"
        }
      ],
      "stateMutability": "view",
      "type": "function"
    },
    {
      "inputs": [
        {
          "internalType": "uint256",
          "name": "mockRequestReturnValue",
          "type": "uint256"
        }
      ],
      "name": "mockRequestAnswer",
      "outputs": [],
      "stateMutability": "nonpayable",
      "type": "function"
    },
    {
      "inputs": [
        {
          "internalType": "uint96",
          "name": "twitter_id_Request",
          "type": "uint96"
        }
      ],
      "name": "requestTweetAddressCompare",
      "outputs": [],
      "stateMutability": "nonpayable",
      "type": "function"
    },
    {
      "inputs": [
        {
          "internalType": "uint96",
          "name": "_twitter_id",
          "type": "uint96"
        }
      ],
      "name": "resolveToTwitterID",
      "outputs": [],
      "stateMutability": "nonpayable",
      "type": "function"
    },
    {
      "inputs": [
        {
          "internalType": "uint96",
          "name": "",
          "type": "uint96"
        }
      ],
      "name": "twitterIDaddress",
      "outputs": [
        {
          "internalType": "address",
          "name": "",
          "type": "address"
        }
      ],
      "stateMutability": "view",
      "type": "function"
    }
  ],
  "bytecode": "0x6080604052600160005534801561001557600080fd5b50610fd9806100256000396000f3fe608060405234801561001057600080fd5b50600436106100625760003560e01c8063431852901461006757806368466b4b14610083578063ce1907df146100b3578063cf154b1f146100cf578063dceb828e146100ff578063f5454e631461011b575b600080fd5b610081600480360381019061007c9190610cf6565b610139565b005b61009d60048036038101906100989190610d81565b6101c7565b6040516100aa9190610dd5565b60405180910390f35b6100cd60048036038101906100c89190610e1c565b6101f2565b005b6100e960048036038101906100e49190610e1c565b6109c1565b6040516100f69190610e58565b60405180910390f35b61011960048036038101906101149190610e1c565b6109f4565b005b610123610cb2565b6040516101309190610e82565b60405180910390f35b6101657f93a45fb1329f335f8cd1f6faa9019f2674b2d7315ac7fdecf1c67cfcccde981260001b610cb8565b6101917f6cabc3cfe3f82944224a672c9691f87dbf7f9e2db7987c7bab44d96d0845f7b060001b610cb8565b6101bd7fbdd2c86c6a1d8412c3c37db8042fa9e6cd3677b27dda190a3978f95cc66dab4160001b610cb8565b8060008190555050565b60016020528060005260406000206000915054906101000a90046bffffffffffffffffffffffff1681565b61021e7f3a6ac216499c4d38560082f680140f3eac36ab9c60b6ce629f0f520cedeac9af60001b610cb8565b61024a7f82ade6c125acb786820db91414db1a41954617c1d3e05422c797da9da4ef23d360001b610cb8565b6102767f1345f7f451a563aca389053f1a2b43161c6883fab766329095ec25b63d4854b260001b610cb8565b6000816bffffffffffffffffffffffff1690506102b57f6aa8c9e0f7cc333d7dc3a6573b22b0a8af1bea668b8f58407e95a6e52e7fc22e60001b610cb8565b6102e17ff6fe72e70bab8c0cf1a9c02078a7a0a20725ac3c90eb73e1fcae3561a7a756ab60001b610cb8565b60003373ffffffffffffffffffffffffffffffffffffffff1690506103287f4dc30f69f2121ea01bb9d4c31cc9bb3b7a6d4fe0b8217f9f23823baa7434369960001b610cb8565b6103547f3ad38ce77b854d40702bc76568377ce926b6e983130cc898e31ca847643b90f660001b610cb8565b600060a083901b90506103897f0608a12dc0317bba0188fc3ae6655dc9107c4c286132b9489a85e4207ec9aae360001b610cb8565b6103b57fe1bad17041bb6bff6969a711bf7c202a0d491d305e24eb1e29849277cfdc8fff60001b610cb8565b600082826103c39190610ecc565b90506103f17fe0a3f31a4e0be0899988b06981d26dca6b829eaed728de907742cf68248c469460001b610cb8565b61041d7fd280aefd088dc1dcb3f515711ad0dadea8594748264f3d28080258f7fd6c588760001b610cb8565b600060a082901c90506104527fac8f713eed828e32fa2c44db7eab0665748e1fcade4d762a4fb5937b94d0997f60001b610cb8565b61047e7f26410c690450cb4b11dabd353ee001a6276c627bc9af04749e8327c1df46118d60001b610cb8565b600073ffffffffffffffffffffffffffffffffffffffff831690506104c57f71b8aa24c7417c124b81b92a8ac3fa4fb19dde755fafd258302b0f2a5067487c60001b610cb8565b6104f17fab6a6032c2723e4d80681a558eb82749ac0f62d92ec346738bb33a4b962cd49460001b610cb8565b600160005403610907576105277f233525d727b86e8b85cbd626424a8205b418c92a1f4c9943e2ad4666e78f99ed60001b610cb8565b6105537f0125a5c5a61bf406a9a76c155712bdf680323964cf50454dcc5cfe3cc5b6a8a260001b610cb8565b61057f7fab246f6576bd0d84f9145cfc56bf91e5b42651ca1012534a7f04e3a8f3db34a360001b610cb8565b600073ffffffffffffffffffffffffffffffffffffffff1660026000846bffffffffffffffffffffffff166bffffffffffffffffffffffff16815260200190815260200160002060009054906101000a900473ffffffffffffffffffffffffffffffffffffffff1673ffffffffffffffffffffffffffffffffffffffff16146107495761062e7f734d8721b9f5f0aa3be152b56b9243f5a38c444a15a07f606383bb2f1900365360001b610cb8565b61065a7f2bf5dc63a6663c2861db6cd6d4165f85988ed059f648c4266edb1184c031d43d60001b610cb8565b6106867feb6e019ba58883a332c0db17c7a6510aefaa4526c2bacdb16507316f981fe28f60001b610cb8565b60006001600060026000866bffffffffffffffffffffffff166bffffffffffffffffffffffff16815260200190815260200160002060009054906101000a900473ffffffffffffffffffffffffffffffffffffffff1673ffffffffffffffffffffffffffffffffffffffff1673ffffffffffffffffffffffffffffffffffffffff16815260200190815260200160002060006101000a8154816bffffffffffffffffffffffff02191690836bffffffffffffffffffffffff160217905550610776565b6107757f5631c2e14080ea2820a978a522db18e5a8f57e2e3bfb4fb4ae1b9563a01558a260001b610cb8565b5b6107a27f054ad900cb902cef33ce3c4ddf8fd902ea6f485127206d3c52c11350d1cc2d7760001b610cb8565b6107ce7ff7e7642dca8c368597fe6dfec33457030b3a62e7896c27218e0571e235afe6ca60001b610cb8565b81600160008373ffffffffffffffffffffffffffffffffffffffff1673ffffffffffffffffffffffffffffffffffffffff16815260200190815260200160002060006101000a8154816bffffffffffffffffffffffff02191690836bffffffffffffffffffffffff1602179055506108687fd0956761e3e7897d9c6bba9e0201696e1e0292b7206ab9606f3e530a4249ce2e60001b610cb8565b6108947ff264f7290886680f57b920705f2a68522e45d59decbbcbc055eed7114aafaa1360001b610cb8565b8060026000846bffffffffffffffffffffffff166bffffffffffffffffffffffff16815260200190815260200160002060006101000a81548173ffffffffffffffffffffffffffffffffffffffff021916908373ffffffffffffffffffffffffffffffffffffffff160217905550610934565b6109337f277eab3ac72e3373e33388da9cd07f8c50a98a76c09766b46e1b68a8ae6ef18e60001b610cb8565b5b6109607f7c5148e491de9764136611367a83511a6686f4d77fbe8bdeb3df2cf9a339b29f60001b610cb8565b61098c7f2cc991497b6da05c74b867bc5c844d68a5cd0f2b3d086442ee3dce613da750ff60001b610cb8565b7ff7a503e561205d742133bff2027c118610bb7859d287101e367709cc321f18fd60405160405180910390a150505050505050565b60026020528060005260406000206000915054906101000a900473ffffffffffffffffffffffffffffffffffffffff1681565b8033610a227fa0a821c8d409d6b3db50c63c57658c85ac497f48557dde4932940f35c5160ce760001b610cb8565b610a4e7f97380b8fa109e30aa73697c40a05f7b322277ab5167408a66115e707fa700f4f60001b610cb8565b610a7a7f69ecd9eee410275c6e68076e98c6c6e976b90fde65cf9828329454e6bbd4570760001b610cb8565b610aa67ffab5a229c87193cc0a86d547a9e1293d65b5f23d9e8f593cc10295651af20fe960001b610cb8565b8073ffffffffffffffffffffffffffffffffffffffff1660026000846bffffffffffffffffffffffff166bffffffffffffffffffffffff16815260200190815260200160002060009054906101000a900473ffffffffffffffffffffffffffffffffffffffff1673ffffffffffffffffffffffffffffffffffffffff1614610b63576040517f08c379a0000000000000000000000000000000000000000000000000000000008152600401610b5a90610f83565b60405180910390fd5b610b8f7f94ab1521d418371a585aee1931933721d24d39eceef9b75891f3f45a679406cc60001b610cb8565b610bbb7f0d7f5c8de482cf0a6a33d4abb07d2dc0ca497b52b48308c3aa9fda5da0dc759160001b610cb8565b610be77f43d513e22e16416b87383375865bb7db23a3aa7ab37b1483375e9350d497a92260001b610cb8565b610c137f068ceb09a82b126792259c40ea3046b7f8c7bcdc9086e0a8b88a5a4950558beb60001b610cb8565b610c3f7f5ab896f4d960a335d59894c3207044bbda213d7aa04b44deaae838115034fc4960001b610cb8565b82600160003373ffffffffffffffffffffffffffffffffffffffff1673ffffffffffffffffffffffffffffffffffffffff16815260200190815260200160002060006101000a8154816bffffffffffffffffffffffff02191690836bffffffffffffffffffffffff160217905550505050565b60005481565b50565b600080fd5b6000819050919050565b610cd381610cc0565b8114610cde57600080fd5b50565b600081359050610cf081610cca565b92915050565b600060208284031215610d0c57610d0b610cbb565b5b6000610d1a84828501610ce1565b91505092915050565b600073ffffffffffffffffffffffffffffffffffffffff82169050919050565b6000610d4e82610d23565b9050919050565b610d5e81610d43565b8114610d6957600080fd5b50565b600081359050610d7b81610d55565b92915050565b600060208284031215610d9757610d96610cbb565b5b6000610da584828501610d6c565b91505092915050565b60006bffffffffffffffffffffffff82169050919050565b610dcf81610dae565b82525050565b6000602082019050610dea6000830184610dc6565b92915050565b610df981610dae565b8114610e0457600080fd5b50565b600081359050610e1681610df0565b92915050565b600060208284031215610e3257610e31610cbb565b5b6000610e4084828501610e07565b91505092915050565b610e5281610d43565b82525050565b6000602082019050610e6d6000830184610e49565b92915050565b610e7c81610cc0565b82525050565b6000602082019050610e976000830184610e73565b92915050565b7f4e487b7100000000000000000000000000000000000000000000000000000000600052601160045260246000fd5b6000610ed782610cc0565b9150610ee283610cc0565b9250828201905080821115610efa57610ef9610e9d565b5b92915050565b600082825260208201905092915050565b7f596f752068617665206e6f74207665726966696564207468697320547769747460008201527f6572204944207769746820796f7572206163636f756e74207965742e00000000602082015250565b6000610f6d603c83610f00565b9150610f7882610f11565b604082019050919050565b60006020820190508181036000830152610f9c81610f60565b905091905056fea2646970667358221220d6cf0a3577e68cc5d446270af53e261b658c76daa78495af420b8842a8513f9a64736f6c63430008100033",
  "linkReferences": {},
  "deployedLinkReferences": {}
}