{
  "_format": "hh-sol-artifact-1",
  "contractName": "TwitterNameSpace",
  "sourceName": "contracts/TwitterNameSpace.sol",
  "abi": [
    {
      "inputs": [],
      "stateMutability": "nonpayable",
      "type": "constructor"
    },
    {
      "anonymous": false,
      "inputs": [
        {
          "indexed": true,
          "internalType": "bytes32",
          "name": "id",
          "type": "bytes32"
        }
      ],
      "name": "ChainlinkCancelled",
      "type": "event"
    },
    {
      "anonymous": false,
      "inputs": [
        {
          "indexed": true,
          "internalType": "bytes32",
          "name": "id",
          "type": "bytes32"
        }
      ],
      "name": "ChainlinkFulfilled",
      "type": "event"
    },
    {
      "anonymous": false,
      "inputs": [
        {
          "indexed": true,
          "internalType": "bytes32",
          "name": "id",
          "type": "bytes32"
        }
      ],
      "name": "ChainlinkRequested",
      "type": "event"
    },
    {
      "anonymous": false,
      "inputs": [],
      "name": "tweetRequestEvent",
      "type": "event"
    },
    {
      "inputs": [
        {
          "internalType": "address",
          "name": "",
          "type": "address"
        }
      ],
      "name": "addressTwitterID",
      "outputs": [
        {
          "internalType": "uint96",
          "name": "",
          "type": "uint96"
        }
      ],
      "stateMutability": "view",
      "type": "function"
    },
    {
      "inputs": [
        {
          "internalType": "bytes32",
          "name": "_requestId",
          "type": "bytes32"
        },
        {
          "internalType": "uint256",
          "name": "_addressFromTweetMatches",
          "type": "uint256"
        }
      ],
      "name": "fulfillTweetAddressCompare",
      "outputs": [],
      "stateMutability": "nonpayable",
      "type": "function"
    },
    {
      "inputs": [
        {
          "internalType": "uint96",
          "name": "twitter_id_Request",
          "type": "uint96"
        }
      ],
      "name": "requestTweetAddressCompare",
      "outputs": [
        {
          "internalType": "bytes32",
          "name": "requestId",
          "type": "bytes32"
        }
      ],
      "stateMutability": "nonpayable",
      "type": "function"
    },
    {
      "inputs": [
        {
          "internalType": "uint96",
          "name": "_twitter_id",
          "type": "uint96"
        }
      ],
      "name": "resolveToTwitterID",
      "outputs": [],
      "stateMutability": "nonpayable",
      "type": "function"
    },
    {
      "inputs": [],
      "name": "tempRequestAddress",
      "outputs": [
        {
          "internalType": "address",
          "name": "",
          "type": "address"
        }
      ],
      "stateMutability": "view",
      "type": "function"
    },
    {
      "inputs": [],
      "name": "tempTwitter_id",
      "outputs": [
        {
          "internalType": "uint96",
          "name": "",
          "type": "uint96"
        }
      ],
      "stateMutability": "view",
      "type": "function"
    },
    {
      "inputs": [
        {
          "internalType": "uint96",
          "name": "",
          "type": "uint96"
        }
      ],
      "name": "twitterIDaddress",
      "outputs": [
        {
          "internalType": "address",
          "name": "",
          "type": "address"
        }
      ],
      "stateMutability": "view",
      "type": "function"
    }
  ],
  "bytecode": "0x6080604052600160045534801561001557600080fd5b5061003973bfb26279a9d28cec1f781808da89efbbfe2c426861006160201b60201c565b61005c73401ae6bfb89448fb6e06ce7c9171a8a0366d02d06100a560201b60201c565b6100e9565b80600260006101000a81548173ffffffffffffffffffffffffffffffffffffffff021916908373ffffffffffffffffffffffffffffffffffffffff16021790555050565b80600360006101000a81548173ffffffffffffffffffffffffffffffffffffffff021916908373ffffffffffffffffffffffffffffffffffffffff16021790555050565b61223980620000f96000396000f3fe608060405234801561001057600080fd5b506004361061007d5760003560e01c80636fe813b71161005b5780636fe813b7146100ee578063ce1907df1461010a578063cf154b1f1461013a578063dceb828e1461016a5761007d565b80633e51bd7014610082578063624c984b146100a057806368466b4b146100be575b600080fd5b61008a610186565b60405161009791906116aa565b60405180910390f35b6100a86101a4565b6040516100b59190611706565b60405180910390f35b6100d860048036038101906100d39190611752565b6101ca565b6040516100e591906116aa565b60405180910390f35b610108600480360381019061010391906117eb565b6101f5565b005b610124600480360381019061011f9190611857565b610672565b6040516101319190611893565b60405180910390f35b610154600480360381019061014f9190611857565b6108c4565b6040516101619190611706565b60405180910390f35b610184600480360381019061017f9190611857565b6108f7565b005b600660149054906101000a90046bffffffffffffffffffffffff1681565b600660009054906101000a900473ffffffffffffffffffffffffffffffffffffffff1681565b60076020528060005260406000206000915054906101000a90046bffffffffffffffffffffffff1681565b816005600082815260200190815260200160002060009054906101000a900473ffffffffffffffffffffffffffffffffffffffff1673ffffffffffffffffffffffffffffffffffffffff163373ffffffffffffffffffffffffffffffffffffffff1614610297576040517f08c379a000000000000000000000000000000000000000000000000000000000815260040161028e90611931565b60405180910390fd5b6005600082815260200190815260200160002060006101000a81549073ffffffffffffffffffffffffffffffffffffffff0219169055807f7cc135e0cebb02c3480ae5d74d377283180a2601f8f644edf7987b009316c63a60405160405180910390a2600182036105cd57600073ffffffffffffffffffffffffffffffffffffffff1660086000600660149054906101000a90046bffffffffffffffffffffffff166bffffffffffffffffffffffff166bffffffffffffffffffffffff16815260200190815260200160002060009054906101000a900473ffffffffffffffffffffffffffffffffffffffff1673ffffffffffffffffffffffffffffffffffffffff16146104785760006007600060086000600660149054906101000a90046bffffffffffffffffffffffff166bffffffffffffffffffffffff166bffffffffffffffffffffffff16815260200190815260200160002060009054906101000a900473ffffffffffffffffffffffffffffffffffffffff1673ffffffffffffffffffffffffffffffffffffffff1673ffffffffffffffffffffffffffffffffffffffff16815260200190815260200160002060006101000a8154816bffffffffffffffffffffffff02191690836bffffffffffffffffffffffff1602179055505b600660149054906101000a90046bffffffffffffffffffffffff1660076000600660009054906101000a900473ffffffffffffffffffffffffffffffffffffffff1673ffffffffffffffffffffffffffffffffffffffff1673ffffffffffffffffffffffffffffffffffffffff16815260200190815260200160002060006101000a8154816bffffffffffffffffffffffff02191690836bffffffffffffffffffffffff160217905550600660009054906101000a900473ffffffffffffffffffffffffffffffffffffffff1660086000600660149054906101000a90046bffffffffffffffffffffffff166bffffffffffffffffffffffff166bffffffffffffffffffffffff16815260200190815260200160002060006101000a81548173ffffffffffffffffffffffffffffffffffffffff021916908373ffffffffffffffffffffffffffffffffffffffff1602179055505b6000600660006101000a81548173ffffffffffffffffffffffffffffffffffffffff021916908373ffffffffffffffffffffffffffffffffffffffff1602179055506000600660146101000a8154816bffffffffffffffffffffffff02191690836bffffffffffffffffffffffff1602179055507ff7a503e561205d742133bff2027c118610bb7859d287101e367709cc321f18fd60405160405180910390a1505050565b600080600660149054906101000a90046bffffffffffffffffffffffff166bffffffffffffffffffffffff161480156106f95750600073ffffffffffffffffffffffffffffffffffffffff16600660009054906101000a900473ffffffffffffffffffffffffffffffffffffffff1673ffffffffffffffffffffffffffffffffffffffff16145b610738576040517f08c379a000000000000000000000000000000000000000000000000000000000815260040161072f9061199d565b60405180910390fd5b600061076c7f313361326665323132626366343039373864386330643532623864393665346430636fe813b760e01b610a29565b90506107ce6040518060400160405280600a81526020017f747769747465725f6964000000000000000000000000000000000000000000008152506107be856bffffffffffffffffffffffff16610a5a565b83610bba9092919063ffffffff16565b6108386040518060400160405280600d81526020017f616464726573735f6f776e6572000000000000000000000000000000000000008152506108283373ffffffffffffffffffffffffffffffffffffffff166014610bed565b83610bba9092919063ffffffff16565b82600660146101000a8154816bffffffffffffffffffffffff02191690836bffffffffffffffffffffffff16021790555033600660006101000a81548173ffffffffffffffffffffffffffffffffffffffff021916908373ffffffffffffffffffffffffffffffffffffffff1602179055506108bc81670de0b6b3a7640000610e29565b915050919050565b60086020528060005260406000206000915054906101000a900473ffffffffffffffffffffffffffffffffffffffff1681565b80338073ffffffffffffffffffffffffffffffffffffffff1660086000846bffffffffffffffffffffffff166bffffffffffffffffffffffff16815260200190815260200160002060009054906101000a900473ffffffffffffffffffffffffffffffffffffffff1673ffffffffffffffffffffffffffffffffffffffff16146109b6576040517f08c379a00000000000000000000000000000000000000000000000000000000081526004016109ad90611a2f565b60405180910390fd5b82600760003373ffffffffffffffffffffffffffffffffffffffff1673ffffffffffffffffffffffffffffffffffffffff16815260200190815260200160002060006101000a8154816bffffffffffffffffffffffff02191690836bffffffffffffffffffffffff160217905550505050565b610a316115fc565b610a396115fc565b610a5085858584610e60909392919063ffffffff16565b9150509392505050565b606060008203610aa1576040518060400160405280600181526020017f30000000000000000000000000000000000000000000000000000000000000008152509050610bb5565b600082905060005b60008214610ad3578080610abc90611a7e565b915050600a82610acc9190611af5565b9150610aa9565b60008167ffffffffffffffff811115610aef57610aee611b26565b5b6040519080825280601f01601f191660200182016040528015610b215781602001600182028036833780820191505090505b5090505b60008514610bae57600182610b3a9190611b55565b9150600a85610b499190611b89565b6030610b559190611bba565b60f81b818381518110610b6b57610b6a611bee565b5b60200101907effffffffffffffffffffffffffffffffffffffffffffffffffffffffffffff1916908160001a905350600a85610ba79190611af5565b9450610b25565b8093505050505b919050565b610bd1828460800151610f1090919063ffffffff16565b610be8818460800151610f1090919063ffffffff16565b505050565b606060006002836002610c009190611c1d565b610c0a9190611bba565b67ffffffffffffffff811115610c2357610c22611b26565b5b6040519080825280601f01601f191660200182016040528015610c555781602001600182028036833780820191505090505b5090507f300000000000000000000000000000000000000000000000000000000000000081600081518110610c8d57610c8c611bee565b5b60200101907effffffffffffffffffffffffffffffffffffffffffffffffffffffffffffff1916908160001a9053507f780000000000000000000000000000000000000000000000000000000000000081600181518110610cf157610cf0611bee565b5b60200101907effffffffffffffffffffffffffffffffffffffffffffffffffffffffffffff1916908160001a90535060006001846002610d319190611c1d565b610d3b9190611bba565b90505b6001811115610ddb577f3031323334353637383961626364656600000000000000000000000000000000600f861660108110610d7d57610d7c611bee565b5b1a60f81b828281518110610d9457610d93611bee565b5b60200101907effffffffffffffffffffffffffffffffffffffffffffffffffffffffffffff1916908160001a905350600485901c945080610dd490611c77565b9050610d3e565b5060008414610e1f576040517f08c379a0000000000000000000000000000000000000000000000000000000008152600401610e1690611cec565b60405180910390fd5b8091505092915050565b6000610e58600360009054906101000a900473ffffffffffffffffffffffffffffffffffffffff168484610f35565b905092915050565b610e686115fc565b610e788560800151610100611001565b508385600001818152505082856020019073ffffffffffffffffffffffffffffffffffffffff16908173ffffffffffffffffffffffffffffffffffffffff16815250508185604001907bffffffffffffffffffffffffffffffffffffffffffffffffffffffff191690817bffffffffffffffffffffffffffffffffffffffffffffffffffffffff191681525050849050949350505050565b610f1d826003835161106b565b610f3081836111f090919063ffffffff16565b505050565b6000806004549050600181610f4a9190611bba565b6004819055506000634042994660e01b60008087600001513089604001518760018c6080015160000151604051602401610f8b989796959493929190611de6565b604051602081830303815290604052907bffffffffffffffffffffffffffffffffffffffffffffffffffffffff19166020820180517bffffffffffffffffffffffffffffffffffffffffffffffffffffffff83818316178352505050509050610ff686838684611212565b925050509392505050565b611009611669565b60006020836110189190611b89565b146110445760208261102a9190611b89565b60206110369190611b55565b826110419190611bba565b91505b81836020018181525050604051808452600081528281016020016040525082905092915050565b60178167ffffffffffffffff16116110a25761109c8160058460ff16901b60ff1617846113a790919063ffffffff16565b506111eb565b60ff8167ffffffffffffffff16116110f8576110d1601860058460ff16901b17846113a790919063ffffffff16565b506110f28167ffffffffffffffff166001856113c79092919063ffffffff16565b506111ea565b61ffff8167ffffffffffffffff161161114f57611128601960058460ff16901b17846113a790919063ffffffff16565b506111498167ffffffffffffffff166002856113c79092919063ffffffff16565b506111e9565b63ffffffff8167ffffffffffffffff16116111a857611181601a60058460ff16901b17846113a790919063ffffffff16565b506111a28167ffffffffffffffff166004856113c79092919063ffffffff16565b506111e8565b6111c5601b60058460ff16901b17846113a790919063ffffffff16565b506111e68167ffffffffffffffff166008856113c79092919063ffffffff16565b505b5b5b5b505050565b6111f8611669565b61120a838460000151518485516113e9565b905092915050565b60003084604051602001611227929190611f24565b604051602081830303815290604052805190602001209050846005600083815260200190815260200160002060006101000a81548173ffffffffffffffffffffffffffffffffffffffff021916908373ffffffffffffffffffffffffffffffffffffffff160217905550807fb5e6e01e79f91267dc17b4e6314d5d4d03593d2ceee0fbb452b750bd70ea5af960405160405180910390a2600260009054906101000a900473ffffffffffffffffffffffffffffffffffffffff1673ffffffffffffffffffffffffffffffffffffffff16634000aea08685856040518463ffffffff1660e01b815260040161131d93929190611f50565b6020604051808303816000875af115801561133c573d6000803e3d6000fd5b505050506040513d601f19601f820116820180604052508101906113609190611fc6565b61139f576040517f08c379a000000000000000000000000000000000000000000000000000000000815260040161139690612065565b60405180910390fd5b949350505050565b6113af611669565b6113bf83846000015151846114d8565b905092915050565b6113cf611669565b6113e084856000015151858561152e565b90509392505050565b6113f1611669565b82518211156113ff57600080fd5b846020015182856114109190611bba565b111561144557611444856002611435886020015188876114309190611bba565b6115bc565b61143f9190611c1d565b6115d8565b5b6000808651805187602083010193508088870111156114645787860182525b60208701925050505b602084106114ab57805182526020826114869190611bba565b91506020816114959190611bba565b90506020846114a49190611b55565b935061146d565b60006001856020036101000a03905080198251168184511681811785525050508692505050949350505050565b6114e0611669565b836020015183106115065761150584600286602001516115009190611c1d565b6115d8565b5b83518051602085830101848153818603611521576001820183525b5050508390509392505050565b611536611669565b846020015184836115479190611bba565b111561156f5761156e856002868561155f9190611bba565b6115699190611c1d565b6115d8565b5b600060018361010061158191906121b8565b61158b9190611b55565b905085518386820101858319825116178152815185880111156115ae5784870182525b505085915050949350505050565b6000818311156115ce578290506115d2565b8190505b92915050565b6000826000015190506115eb8383611001565b506115f683826111f0565b50505050565b6040518060a0016040528060008019168152602001600073ffffffffffffffffffffffffffffffffffffffff16815260200160007bffffffffffffffffffffffffffffffffffffffffffffffffffffffff1916815260200160008152602001611663611669565b81525090565b604051806040016040528060608152602001600081525090565b60006bffffffffffffffffffffffff82169050919050565b6116a481611683565b82525050565b60006020820190506116bf600083018461169b565b92915050565b600073ffffffffffffffffffffffffffffffffffffffff82169050919050565b60006116f0826116c5565b9050919050565b611700816116e5565b82525050565b600060208201905061171b60008301846116f7565b92915050565b600080fd5b61172f816116e5565b811461173a57600080fd5b50565b60008135905061174c81611726565b92915050565b60006020828403121561176857611767611721565b5b60006117768482850161173d565b91505092915050565b6000819050919050565b6117928161177f565b811461179d57600080fd5b50565b6000813590506117af81611789565b92915050565b6000819050919050565b6117c8816117b5565b81146117d357600080fd5b50565b6000813590506117e5816117bf565b92915050565b6000806040838503121561180257611801611721565b5b6000611810858286016117a0565b9250506020611821858286016117d6565b9150509250929050565b61183481611683565b811461183f57600080fd5b50565b6000813590506118518161182b565b92915050565b60006020828403121561186d5761186c611721565b5b600061187b84828501611842565b91505092915050565b61188d8161177f565b82525050565b60006020820190506118a86000830184611884565b92915050565b600082825260208201905092915050565b7f536f75726365206d75737420626520746865206f7261636c65206f662074686560008201527f2072657175657374000000000000000000000000000000000000000000000000602082015250565b600061191b6028836118ae565b9150611926826118bf565b604082019050919050565b6000602082019050818103600083015261194a8161190e565b9050919050565b7f5245515545535420414c52454144592041435449564521000000000000000000600082015250565b60006119876017836118ae565b915061199282611951565b602082019050919050565b600060208201905081810360008301526119b68161197a565b9050919050565b7f596f752068617665206e6f74207665726966696564207468697320547769747460008201527f6572204944207769746820796f7572206163636f756e74207965742e00000000602082015250565b6000611a19603c836118ae565b9150611a24826119bd565b604082019050919050565b60006020820190508181036000830152611a4881611a0c565b9050919050565b7f4e487b7100000000000000000000000000000000000000000000000000000000600052601160045260246000fd5b6000611a89826117b5565b91507fffffffffffffffffffffffffffffffffffffffffffffffffffffffffffffffff8203611abb57611aba611a4f565b5b600182019050919050565b7f4e487b7100000000000000000000000000000000000000000000000000000000600052601260045260246000fd5b6000611b00826117b5565b9150611b0b836117b5565b925082611b1b57611b1a611ac6565b5b828204905092915050565b7f4e487b7100000000000000000000000000000000000000000000000000000000600052604160045260246000fd5b6000611b60826117b5565b9150611b6b836117b5565b9250828203905081811115611b8357611b82611a4f565b5b92915050565b6000611b94826117b5565b9150611b9f836117b5565b925082611baf57611bae611ac6565b5b828206905092915050565b6000611bc5826117b5565b9150611bd0836117b5565b9250828201905080821115611be857611be7611a4f565b5b92915050565b7f4e487b7100000000000000000000000000000000000000000000000000000000600052603260045260246000fd5b6000611c28826117b5565b9150611c33836117b5565b9250817fffffffffffffffffffffffffffffffffffffffffffffffffffffffffffffffff0483118215151615611c6c57611c6b611a4f565b5b828202905092915050565b6000611c82826117b5565b915060008203611c9557611c94611a4f565b5b600182039050919050565b7f537472696e67733a20686578206c656e67746820696e73756666696369656e74600082015250565b6000611cd66020836118ae565b9150611ce182611ca0565b602082019050919050565b60006020820190508181036000830152611d0581611cc9565b9050919050565b611d15816117b5565b82525050565b60007fffffffff0000000000000000000000000000000000000000000000000000000082169050919050565b611d5081611d1b565b82525050565b600081519050919050565b600082825260208201905092915050565b60005b83811015611d90578082015181840152602081019050611d75565b60008484015250505050565b6000601f19601f8301169050919050565b6000611db882611d56565b611dc28185611d61565b9350611dd2818560208601611d72565b611ddb81611d9c565b840191505092915050565b600061010082019050611dfc600083018b6116f7565b611e09602083018a611d0c565b611e166040830189611884565b611e2360608301886116f7565b611e306080830187611d47565b611e3d60a0830186611d0c565b611e4a60c0830185611d0c565b81810360e0830152611e5c8184611dad565b90509998505050505050505050565b6000819050919050565b6000611e90611e8b611e86846116c5565b611e6b565b6116c5565b9050919050565b6000611ea282611e75565b9050919050565b6000611eb482611e97565b9050919050565b60008160601b9050919050565b6000611ed382611ebb565b9050919050565b6000611ee582611ec8565b9050919050565b611efd611ef882611ea9565b611eda565b82525050565b6000819050919050565b611f1e611f19826117b5565b611f03565b82525050565b6000611f308285611eec565b601482019150611f408284611f0d565b6020820191508190509392505050565b6000606082019050611f6560008301866116f7565b611f726020830185611d0c565b8181036040830152611f848184611dad565b9050949350505050565b60008115159050919050565b611fa381611f8e565b8114611fae57600080fd5b50565b600081519050611fc081611f9a565b92915050565b600060208284031215611fdc57611fdb611721565b5b6000611fea84828501611fb1565b91505092915050565b7f756e61626c6520746f207472616e73666572416e6443616c6c20746f206f726160008201527f636c650000000000000000000000000000000000000000000000000000000000602082015250565b600061204f6023836118ae565b915061205a82611ff3565b604082019050919050565b6000602082019050818103600083015261207e81612042565b9050919050565b60008160011c9050919050565b6000808291508390505b60018511156120dc578086048111156120b8576120b7611a4f565b5b60018516156120c75780820291505b80810290506120d585612085565b945061209c565b94509492505050565b6000826120f557600190506121b1565b8161210357600090506121b1565b8160018114612119576002811461212357612152565b60019150506121b1565b60ff84111561213557612134611a4f565b5b8360020a91508482111561214c5761214b611a4f565b5b506121b1565b5060208310610133831016604e8410600b84101617156121875782820a90508381111561218257612181611a4f565b5b6121b1565b6121948484846001612092565b925090508184048111156121ab576121aa611a4f565b5b81810290505b9392505050565b60006121c3826117b5565b91506121ce836117b5565b92506121fb7fffffffffffffffffffffffffffffffffffffffffffffffffffffffffffffffff84846120e5565b90509291505056fea26469706673582212205a711979c456dd1febc9c9a2835b9f7124c0674dd46f0f80be095887372cfeba64736f6c63430008100033",
  "linkReferences": {},
  "deployedLinkReferences": {}
}